{"abi":[{"type":"constructor","inputs":[],"stateMutability":"nonpayable"},{"type":"function","name":"ADMIN_ROLE","inputs":[],"outputs":[{"name":"","type":"bytes32","internalType":"bytes32"}],"stateMutability":"view"},{"type":"function","name":"DEFAULT_ADMIN_ROLE","inputs":[],"outputs":[{"name":"","type":"bytes32","internalType":"bytes32"}],"stateMutability":"view"},{"type":"function","name":"DISTRIBUTOR_ROLE","inputs":[],"outputs":[{"name":"","type":"bytes32","internalType":"bytes32"}],"stateMutability":"view"},{"type":"function","name":"OPERATOR_ROLE","inputs":[],"outputs":[{"name":"","type":"bytes32","internalType":"bytes32"}],"stateMutability":"view"},{"type":"function","name":"UPGRADE_INTERFACE_VERSION","inputs":[],"outputs":[{"name":"","type":"string","internalType":"string"}],"stateMutability":"view"},{"type":"function","name":"depositUSDC","inputs":[{"name":"amount","type":"uint256","internalType":"uint256"}],"outputs":[],"stateMutability":"nonpayable"},{"type":"function","name":"emergencyWithdraw","inputs":[{"name":"amount","type":"uint256","internalType":"uint256"}],"outputs":[],"stateMutability":"nonpayable"},{"type":"function","name":"emergencyWithdrawAll","inputs":[],"outputs":[],"stateMutability":"nonpayable"},{"type":"function","name":"getRoleAdmin","inputs":[{"name":"role","type":"bytes32","internalType":"bytes32"}],"outputs":[{"name":"","type":"bytes32","internalType":"bytes32"}],"stateMutability":"view"},{"type":"function","name":"getUSDCBalance","inputs":[],"outputs":[{"name":"","type":"uint256","internalType":"uint256"}],"stateMutability":"view"},{"type":"function","name":"grantRole","inputs":[{"name":"role","type":"bytes32","internalType":"bytes32"},{"name":"account","type":"address","internalType":"address"}],"outputs":[],"stateMutability":"nonpayable"},{"type":"function","name":"hasRole","inputs":[{"name":"role","type":"bytes32","internalType":"bytes32"},{"name":"account","type":"address","internalType":"address"}],"outputs":[{"name":"","type":"bool","internalType":"bool"}],"stateMutability":"view"},{"type":"function","name":"initialize","inputs":[{"name":"_usdc","type":"address","internalType":"address"},{"name":"_admin","type":"address","internalType":"address"}],"outputs":[],"stateMutability":"nonpayable"},{"type":"function","name":"pause","inputs":[],"outputs":[],"stateMutability":"nonpayable"},{"type":"function","name":"paused","inputs":[],"outputs":[{"name":"","type":"bool","internalType":"bool"}],"stateMutability":"view"},{"type":"function","name":"payCatFeeder","inputs":[{"name":"user","type":"address","internalType":"address"},{"name":"usdcAmount","type":"uint256","internalType":"uint256"},{"name":"","type":"uint256","internalType":"uint256"}],"outputs":[],"stateMutability":"nonpayable"},{"type":"function","name":"proxiableUUID","inputs":[],"outputs":[{"name":"","type":"bytes32","internalType":"bytes32"}],"stateMutability":"view"},{"type":"function","name":"renounceRole","inputs":[{"name":"role","type":"bytes32","internalType":"bytes32"},{"name":"callerConfirmation","type":"address","internalType":"address"}],"outputs":[],"stateMutability":"nonpayable"},{"type":"function","name":"revoke","inputs":[],"outputs":[],"stateMutability":"nonpayable"},{"type":"function","name":"revokeRole","inputs":[{"name":"role","type":"bytes32","internalType":"bytes32"},{"name":"account","type":"address","internalType":"address"}],"outputs":[],"stateMutability":"nonpayable"},{"type":"function","name":"supportsInterface","inputs":[{"name":"interfaceId","type":"bytes4","internalType":"bytes4"}],"outputs":[{"name":"","type":"bool","internalType":"bool"}],"stateMutability":"view"},{"type":"function","name":"unpause","inputs":[],"outputs":[],"stateMutability":"nonpayable"},{"type":"function","name":"upgradeToAndCall","inputs":[{"name":"newImplementation","type":"address","internalType":"address"},{"name":"data","type":"bytes","internalType":"bytes"}],"outputs":[],"stateMutability":"payable"},{"type":"function","name":"usdc","inputs":[],"outputs":[{"name":"","type":"address","internalType":"contract IERC20"}],"stateMutability":"view"},{"type":"event","name":"CatFeederPaid","inputs":[{"name":"user","type":"address","indexed":true,"internalType":"address"},{"name":"usdcAmount","type":"uint256","indexed":false,"internalType":"uint256"}],"anonymous":false},{"type":"event","name":"EmergencyWithdraw","inputs":[{"name":"to","type":"address","indexed":true,"internalType":"address"},{"name":"amount","type":"uint256","indexed":false,"internalType":"uint256"}],"anonymous":false},{"type":"event","name":"FundsDeposited","inputs":[{"name":"from","type":"address","indexed":true,"internalType":"address"},{"name":"amount","type":"uint256","indexed":false,"internalType":"uint256"}],"anonymous":false},{"type":"event","name":"Initialized","inputs":[{"name":"version","type":"uint64","indexed":false,"internalType":"uint64"}],"anonymous":false},{"type":"event","name":"Paused","inputs":[{"name":"account","type":"address","indexed":false,"internalType":"address"}],"anonymous":false},{"type":"event","name":"RoleAdminChanged","inputs":[{"name":"role","type":"bytes32","indexed":true,"internalType":"bytes32"},{"name":"previousAdminRole","type":"bytes32","indexed":true,"internalType":"bytes32"},{"name":"newAdminRole","type":"bytes32","indexed":true,"internalType":"bytes32"}],"anonymous":false},{"type":"event","name":"RoleGranted","inputs":[{"name":"role","type":"bytes32","indexed":true,"internalType":"bytes32"},{"name":"account","type":"address","indexed":true,"internalType":"address"},{"name":"sender","type":"address","indexed":true,"internalType":"address"}],"anonymous":false},{"type":"event","name":"RoleRevoked","inputs":[{"name":"role","type":"bytes32","indexed":true,"internalType":"bytes32"},{"name":"account","type":"address","indexed":true,"internalType":"address"},{"name":"sender","type":"address","indexed":true,"internalType":"address"}],"anonymous":false},{"type":"event","name":"USDCRevoked","inputs":[{"name":"wallet","type":"address","indexed":true,"internalType":"address"},{"name":"amount","type":"uint256","indexed":false,"internalType":"uint256"}],"anonymous":false},{"type":"event","name":"Unpaused","inputs":[{"name":"account","type":"address","indexed":false,"internalType":"address"}],"anonymous":false},{"type":"event","name":"Upgraded","inputs":[{"name":"implementation","type":"address","indexed":true,"internalType":"address"}],"anonymous":false},{"type":"error","name":"AccessControlBadConfirmation","inputs":[]},{"type":"error","name":"AccessControlUnauthorizedAccount","inputs":[{"name":"account","type":"address","internalType":"address"},{"name":"neededRole","type":"bytes32","internalType":"bytes32"}]},{"type":"error","name":"AddressEmptyCode","inputs":[{"name":"target","type":"address","internalType":"address"}]},{"type":"error","name":"ERC1967InvalidImplementation","inputs":[{"name":"implementation","type":"address","internalType":"address"}]},{"type":"error","name":"ERC1967NonPayable","inputs":[]},{"type":"error","name":"EnforcedPause","inputs":[]},{"type":"error","name":"ExpectedPause","inputs":[]},{"type":"error","name":"FailedCall","inputs":[]},{"type":"error","name":"InvalidInitialization","inputs":[]},{"type":"error","name":"NotInitializing","inputs":[]},{"type":"error","name":"UUPSUnauthorizedCallContext","inputs":[]},{"type":"error","name":"UUPSUnsupportedProxiableUUID","inputs":[{"name":"slot","type":"bytes32","internalType":"bytes32"}]}],"bytecode":{"object":"0x60a060405230608052348015610013575f80fd5b5061001c610021565b6100d3565b7ff0c57e16840df040f15088dc2f81fe391c3923bec73e23a9662efc9c229c6a00805468010000000000000000900460ff16156100715760405163f92ee8a960e01b815260040160405180910390fd5b80546001600160401b03908116146100d05780546001600160401b0319166001600160401b0390811782556040519081527fc7f505b2f371ae2175ee4913f4499e1f2633a7b5936321eed1cdaeb6115181d29060200160405180910390a15b50565b60805161197f6100f95f395f8181611193015281816111bc01526112fd015261197f5ff3fe608060405260043610610147575f3560e01c80635c975abb116100b3578063b6549f751161006d578063b6549f7514610394578063d547741f146103a8578063dd191719146103c7578063f0bd87cc146103db578063f5b541a61461040e578063f688bcfb1461042e575f80fd5b80635c975abb146102ce57806375b238fc146102f15780638456cb591461031157806391d1485414610325578063a217fddf14610344578063ad3cb1cc14610357575f80fd5b80633f4ba83a116101045780633f4ba83a14610236578063444744ed1461024a578063485cc955146102695780634f1ef2861461028857806352d1902d1461029b5780635312ea8e146102af575f80fd5b806301ffc9a71461014b578063248a9ca31461017f5780632f2ff15d146101ac57806336568abe146101cd5780633cfd1ccc146101ec5780633e413bee14610200575b5f80fd5b348015610156575f80fd5b5061016a6101653660046115f9565b61044d565b60405190151581526020015b60405180910390f35b34801561018a575f80fd5b5061019e610199366004611620565b610483565b604051908152602001610176565b3480156101b7575f80fd5b506101cb6101c6366004611652565b6104a3565b005b3480156101d8575f80fd5b506101cb6101e7366004611652565b6104c5565b3480156101f7575f80fd5b5061019e6104fd565b34801561020b575f80fd5b505f5461021e906001600160a01b031681565b6040516001600160a01b039091168152602001610176565b348015610241575f80fd5b506101cb61056c565b348015610255575f80fd5b506101cb61026436600461167c565b61058e565b348015610274575f80fd5b506101cb6102833660046116ac565b6107e7565b6101cb6102963660046116e8565b610a0b565b3480156102a6575f80fd5b5061019e610a2a565b3480156102ba575f80fd5b506101cb6102c9366004611620565b610a45565b3480156102d9575f80fd5b505f8051602061190a8339815191525460ff1661016a565b3480156102fc575f80fd5b5061019e5f8051602061192a83398151915281565b34801561031c575f80fd5b506101cb610b42565b348015610330575f80fd5b5061016a61033f366004611652565b610b61565b34801561034f575f80fd5b5061019e5f81565b348015610362575f80fd5b50610387604051806040016040528060058152602001640352e302e360dc1b81525081565b60405161017691906117c6565b34801561039f575f80fd5b506101cb610b97565b3480156103b3575f80fd5b506101cb6103c2366004611652565b610d19565b3480156103d2575f80fd5b506101cb610d35565b3480156103e6575f80fd5b5061019e7ffbd454f36a7e1a388bd6fc3ab10d434aa4578f811acbbcf33afb1c697486313c81565b348015610419575f80fd5b5061019e5f805160206118ca83398151915281565b348015610439575f80fd5b506101cb610448366004611620565b610ebf565b5f6001600160e01b03198216637965db0b60e01b148061047d57506301ffc9a760e01b6001600160e01b03198316145b92915050565b5f9081525f805160206118ea833981519152602052604090206001015490565b6104ac82610483565b6104b581610fa3565b6104bf8383610fad565b50505050565b6001600160a01b03811633146104ee5760405163334bd91960e11b815260040160405180910390fd5b6104f8828261104e565b505050565b5f80546040516370a0823160e01b81523060048201526001600160a01b03909116906370a0823190602401602060405180830381865afa158015610543573d5f803e3d5ffd5b505050506040513d601f19601f8201168201806040525081019061056791906117f8565b905090565b5f805160206118ca83398151915261058381610fa3565b61058b6110c7565b50565b610596611126565b7ffbd454f36a7e1a388bd6fc3ab10d434aa4578f811acbbcf33afb1c697486313c6105c081610fa3565b6001600160a01b0384166106125760405162461bcd60e51b8152602060048201526014602482015273496e76616c69642075736572206164647265737360601b60448201526064015b60405180910390fd5b5f83116106315760405162461bcd60e51b81526004016106099061180f565b5f546040516370a0823160e01b815230600482015284916001600160a01b0316906370a0823190602401602060405180830381865afa158015610676573d5f803e3d5ffd5b505050506040513d601f19601f8201168201806040525081019061069a91906117f8565b10156106e85760405162461bcd60e51b815260206004820152601960248201527f496e73756666696369656e7420555344432062616c616e6365000000000000006044820152606401610609565b5f5460405163a9059cbb60e01b81526001600160a01b038681166004830152602482018690529091169063a9059cbb906044016020604051808303815f875af1158015610737573d5f803e3d5ffd5b505050506040513d601f19601f8201168201806040525081019061075b9190611846565b61079e5760405162461bcd60e51b81526020600482015260146024820152731554d110c81d1c985b9cd9995c8819985a5b195960621b6044820152606401610609565b836001600160a01b03167f32d8aef37a519ee23fba321f10660a2ab209e3974856b17669f83f6f3e1412d7846040516107d991815260200190565b60405180910390a250505050565b5f6107f0611158565b805490915060ff600160401b820416159067ffffffffffffffff165f811580156108175750825b90505f8267ffffffffffffffff1660011480156108335750303b155b905081158015610841575080155b1561085f5760405163f92ee8a960e01b815260040160405180910390fd5b845467ffffffffffffffff19166001178555831561088957845460ff60401b1916600160401b1785555b6001600160a01b0387166108d65760405162461bcd60e51b8152602060048201526014602482015273496e76616c69642055534443206164647265737360601b6044820152606401610609565b6001600160a01b0386166109245760405162461bcd60e51b8152602060048201526015602482015274496e76616c69642061646d696e206164647265737360581b6044820152606401610609565b61092c611180565b610934611180565b61093c611180565b5f80546001600160a01b0319166001600160a01b0389161781556109609087610fad565b506109785f8051602061192a83398151915287610fad565b506109905f805160206118ca83398151915287610fad565b506109bb7ffbd454f36a7e1a388bd6fc3ab10d434aa4578f811acbbcf33afb1c697486313c87610fad565b508315610a0257845460ff60401b19168555604051600181527fc7f505b2f371ae2175ee4913f4499e1f2633a7b5936321eed1cdaeb6115181d29060200160405180910390a15b50505050505050565b610a13611188565b610a1c8261122c565b610a268282611236565b5050565b5f610a336112f2565b505f805160206118aa83398151915290565b5f8051602061192a833981519152610a5c81610fa3565b5f8211610a7b5760405162461bcd60e51b81526004016106099061180f565b5f5460405163a9059cbb60e01b8152336004820152602481018490526001600160a01b039091169063a9059cbb906044016020604051808303815f875af1158015610ac8573d5f803e3d5ffd5b505050506040513d601f19601f82011682018060405250810190610aec9190611846565b610b085760405162461bcd60e51b815260040161060990611865565b60405182815233907f5fafa99d0643513820be26656b45130b01e1c03062e1266bf36f88cbd3bd9695906020015b60405180910390a25050565b5f805160206118ca833981519152610b5981610fa3565b61058b61133b565b5f9182525f805160206118ea833981519152602090815260408084206001600160a01b0393909316845291905290205460ff1690565b610b9f611126565b5f80546040516370a0823160e01b81523360048201526001600160a01b03909116906370a0823190602401602060405180830381865afa158015610be5573d5f803e3d5ffd5b505050506040513d601f19601f82011682018060405250810190610c0991906117f8565b90505f8111610c4e5760405162461bcd60e51b81526020600482015260116024820152704e6f205553444320746f207265766f6b6560781b6044820152606401610609565b5f546040516323b872dd60e01b8152336004820152306024820152604481018390526001600160a01b03909116906323b872dd906064016020604051808303815f875af1158015610ca1573d5f803e3d5ffd5b505050506040513d601f19601f82011682018060405250810190610cc59190611846565b610ce15760405162461bcd60e51b815260040161060990611865565b60405181815233907e968244251c68c8cb216010217d2fbaec9de9a85edb99ca6c0481abdfa28d7c906020015b60405180910390a250565b610d2282610483565b610d2b81610fa3565b6104bf838361104e565b5f8051602061192a833981519152610d4c81610fa3565b5f80546040516370a0823160e01b81523060048201526001600160a01b03909116906370a0823190602401602060405180830381865afa158015610d92573d5f803e3d5ffd5b505050506040513d601f19601f82011682018060405250810190610db691906117f8565b90505f8111610e005760405162461bcd60e51b81526020600482015260166024820152754e6f2062616c616e636520746f20776974686472617760501b6044820152606401610609565b5f5460405163a9059cbb60e01b8152336004820152602481018390526001600160a01b039091169063a9059cbb906044016020604051808303815f875af1158015610e4d573d5f803e3d5ffd5b505050506040513d601f19601f82011682018060405250810190610e719190611846565b610e8d5760405162461bcd60e51b815260040161060990611865565b60405181815233907f5fafa99d0643513820be26656b45130b01e1c03062e1266bf36f88cbd3bd969590602001610b36565b5f8111610ede5760405162461bcd60e51b81526004016106099061180f565b5f546040516323b872dd60e01b8152336004820152306024820152604481018390526001600160a01b03909116906323b872dd906064016020604051808303815f875af1158015610f31573d5f803e3d5ffd5b505050506040513d601f19601f82011682018060405250810190610f559190611846565b610f715760405162461bcd60e51b815260040161060990611865565b60405181815233907f543ba50a5eec5e6178218e364b1d0f396157b3c8fa278522c2cb7fd99407d47490602001610d0e565b61058b8133611383565b5f5f805160206118ea833981519152610fc68484610b61565b611045575f848152602082815260408083206001600160a01b03871684529091529020805460ff19166001179055610ffb3390565b6001600160a01b0316836001600160a01b0316857f2f8788117e7eff1d82e926ec794901d17c78024a50270940304540a733656f0d60405160405180910390a4600191505061047d565b5f91505061047d565b5f5f805160206118ea8339815191526110678484610b61565b15611045575f848152602082815260408083206001600160a01b0387168085529252808320805460ff1916905551339287917ff6391f5c32d9c69d2a47ea670b442974b53935d1edc7fd64eb21e047a839171b9190a4600191505061047d565b6110cf6113bc565b5f8051602061190a833981519152805460ff191681557f5db9ee0a495bf2e6ff9c91a7834c1ba4fdd244a5e8aa4e537bd38aeae4b073aa335b6040516001600160a01b03909116815260200160405180910390a150565b5f8051602061190a8339815191525460ff16156111565760405163d93c066560e01b815260040160405180910390fd5b565b5f807ff0c57e16840df040f15088dc2f81fe391c3923bec73e23a9662efc9c229c6a0061047d565b6111566113eb565b306001600160a01b037f000000000000000000000000000000000000000000000000000000000000000016148061120e57507f00000000000000000000000000000000000000000000000000000000000000006001600160a01b03166112025f805160206118aa833981519152546001600160a01b031690565b6001600160a01b031614155b156111565760405163703e46dd60e11b815260040160405180910390fd5b5f610a2681610fa3565b816001600160a01b03166352d1902d6040518163ffffffff1660e01b8152600401602060405180830381865afa925050508015611290575060408051601f3d908101601f1916820190925261128d918101906117f8565b60015b6112b857604051634c9c8ce360e01b81526001600160a01b0383166004820152602401610609565b5f805160206118aa83398151915281146112e857604051632a87526960e21b815260048101829052602401610609565b6104f88383611410565b306001600160a01b037f000000000000000000000000000000000000000000000000000000000000000016146111565760405163703e46dd60e11b815260040160405180910390fd5b611343611126565b5f8051602061190a833981519152805460ff191660011781557f62e78cea01bee320cd4e420270b5ea74000d11b0c9f74754ebdbfc544b05a25833611108565b61138d8282610b61565b610a265760405163e2517d3f60e01b81526001600160a01b038216600482015260248101839052604401610609565b5f8051602061190a8339815191525460ff1661115657604051638dfc202b60e01b815260040160405180910390fd5b6113f3611465565b61115657604051631afcd79f60e31b815260040160405180910390fd5b6114198261147e565b6040516001600160a01b038316907fbc7cd75a20ee27fd9adebab32041f755214dbc6bffa90cc0225b39da2e5c2d3b905f90a280511561145d576104f882826114e1565b610a26611553565b5f61146e611158565b54600160401b900460ff16919050565b806001600160a01b03163b5f036114b357604051634c9c8ce360e01b81526001600160a01b0382166004820152602401610609565b5f805160206118aa83398151915280546001600160a01b0319166001600160a01b0392909216919091179055565b60605f80846001600160a01b0316846040516114fd919061188e565b5f60405180830381855af49150503d805f8114611535576040519150601f19603f3d011682016040523d82523d5f602084013e61153a565b606091505b509150915061154a858383611572565b95945050505050565b34156111565760405163b398979f60e01b815260040160405180910390fd5b60608261158757611582826115d1565b6115ca565b815115801561159e57506001600160a01b0384163b155b156115c757604051639996b31560e01b81526001600160a01b0385166004820152602401610609565b50805b9392505050565b8051156115e057805160208201fd5b60405163d6bda27560e01b815260040160405180910390fd5b5f60208284031215611609575f80fd5b81356001600160e01b0319811681146115ca575f80fd5b5f60208284031215611630575f80fd5b5035919050565b80356001600160a01b038116811461164d575f80fd5b919050565b5f8060408385031215611663575f80fd5b8235915061167360208401611637565b90509250929050565b5f805f6060848603121561168e575f80fd5b61169784611637565b95602085013595506040909401359392505050565b5f80604083850312156116bd575f80fd5b6116c683611637565b915061167360208401611637565b634e487b7160e01b5f52604160045260245ffd5b5f80604083850312156116f9575f80fd5b61170283611637565b9150602083013567ffffffffffffffff8082111561171e575f80fd5b818501915085601f830112611731575f80fd5b813581811115611743576117436116d4565b604051601f8201601f19908116603f0116810190838211818310171561176b5761176b6116d4565b81604052828152886020848701011115611783575f80fd5b826020860160208301375f6020848301015280955050505050509250929050565b5f5b838110156117be5781810151838201526020016117a6565b50505f910152565b602081525f82518060208401526117e48160408501602087016117a4565b601f01601f19169190910160400192915050565b5f60208284031215611808575f80fd5b5051919050565b6020808252601d908201527f416d6f756e74206d7573742062652067726561746572207468616e2030000000604082015260600190565b5f60208284031215611856575f80fd5b815180151581146115ca575f80fd5b6020808252600f908201526e151c985b9cd9995c8819985a5b1959608a1b604082015260600190565b5f825161189f8184602087016117a4565b919091019291505056fe360894a13ba1a3210667c828492db98dca3e2076cc3735a920a3ca505d382bbc97667070c54ef182b0f5858b034beac1b6f3089aa2d3188bb1e8929f4fa9b92902dd7bc7dec4dceedda775e58dd541e08a116c6c53815c0bd028192f7b626800cd5ed15c6e187e77e9aee88184c21f4f2182ab5827cb3b7e07fbedcd63f03300a49807205ce4d355092ef5a8a18f56e8913cf4a201fbe287825b095693c21775a2646970667358221220004f6d530f118822afd42c4a6a8f1563b3f060f7a88e3871aa87fec47a95707264736f6c63430008180033","linkReferences":{}},"methodIdentifiers":{"ADMIN_ROLE()":"75b238fc","DEFAULT_ADMIN_ROLE()":"a217fddf","DISTRIBUTOR_ROLE()":"f0bd87cc","OPERATOR_ROLE()":"f5b541a6","UPGRADE_INTERFACE_VERSION()":"ad3cb1cc","depositUSDC(uint256)":"f688bcfb","emergencyWithdraw(uint256)":"5312ea8e","emergencyWithdrawAll()":"dd191719","getRoleAdmin(bytes32)":"248a9ca3","getUSDCBalance()":"3cfd1ccc","grantRole(bytes32,address)":"2f2ff15d","hasRole(bytes32,address)":"91d14854","initialize(address,address)":"485cc955","pause()":"8456cb59","paused()":"5c975abb","payCatFeeder(address,uint256,uint256)":"444744ed","proxiableUUID()":"52d1902d","renounceRole(bytes32,address)":"36568abe","revoke()":"b6549f75","revokeRole(bytes32,address)":"d547741f","supportsInterface(bytes4)":"01ffc9a7","unpause()":"3f4ba83a","upgradeToAndCall(address,bytes)":"4f1ef286","usdc()":"3e413bee"},"id":44}