{"abi":[{"type":"constructor","inputs":[{"name":"_usdc","type":"address","internalType":"address"},{"name":"_nativeToken","type":"address","internalType":"address"},{"name":"_admin","type":"address","internalType":"address"}],"stateMutability":"nonpayable"},{"type":"function","name":"ADMIN_ROLE","inputs":[],"outputs":[{"name":"","type":"bytes32","internalType":"bytes32"}],"stateMutability":"view"},{"type":"function","name":"DEFAULT_ADMIN_ROLE","inputs":[],"outputs":[{"name":"","type":"bytes32","internalType":"bytes32"}],"stateMutability":"view"},{"type":"function","name":"DISTRIBUTOR_ROLE","inputs":[],"outputs":[{"name":"","type":"bytes32","internalType":"bytes32"}],"stateMutability":"view"},{"type":"function","name":"OPERATOR_ROLE","inputs":[],"outputs":[{"name":"","type":"bytes32","internalType":"bytes32"}],"stateMutability":"view"},{"type":"function","name":"canFund","inputs":[{"name":"usdcAmount","type":"uint256","internalType":"uint256"},{"name":"nativeAmount","type":"uint256","internalType":"uint256"}],"outputs":[{"name":"","type":"bool","internalType":"bool"}],"stateMutability":"view"},{"type":"function","name":"depositFunds","inputs":[{"name":"usdcAmount","type":"uint256","internalType":"uint256"},{"name":"nativeAmount","type":"uint256","internalType":"uint256"}],"outputs":[],"stateMutability":"nonpayable"},{"type":"function","name":"emergencyWithdraw","inputs":[{"name":"token","type":"address","internalType":"address"},{"name":"to","type":"address","internalType":"address"},{"name":"amount","type":"uint256","internalType":"uint256"}],"outputs":[],"stateMutability":"nonpayable"},{"type":"function","name":"fundMultipleWallets","inputs":[{"name":"wallets","type":"address[]","internalType":"address[]"},{"name":"usdcAmountPerWallet","type":"uint256","internalType":"uint256"},{"name":"nativeAmountPerWallet","type":"uint256","internalType":"uint256"}],"outputs":[],"stateMutability":"nonpayable"},{"type":"function","name":"fundWallet","inputs":[{"name":"wallet","type":"address","internalType":"address"},{"name":"usdcAmount","type":"uint256","internalType":"uint256"},{"name":"nativeAmount","type":"uint256","internalType":"uint256"}],"outputs":[],"stateMutability":"nonpayable"},{"type":"function","name":"getBalances","inputs":[],"outputs":[{"name":"usdcBalance","type":"uint256","internalType":"uint256"},{"name":"nativeBalance","type":"uint256","internalType":"uint256"}],"stateMutability":"view"},{"type":"function","name":"getRoleAdmin","inputs":[{"name":"role","type":"bytes32","internalType":"bytes32"}],"outputs":[{"name":"","type":"bytes32","internalType":"bytes32"}],"stateMutability":"view"},{"type":"function","name":"getStats","inputs":[],"outputs":[{"name":"walletsFunded","type":"uint256","internalType":"uint256"},{"name":"usdcDistributed","type":"uint256","internalType":"uint256"},{"name":"nativeDistributed","type":"uint256","internalType":"uint256"},{"name":"currentUsdcBalance","type":"uint256","internalType":"uint256"},{"name":"currentNativeBalance","type":"uint256","internalType":"uint256"}],"stateMutability":"view"},{"type":"function","name":"getWalletFundingInfo","inputs":[{"name":"wallet","type":"address","internalType":"address"}],"outputs":[{"name":"timestamp","type":"uint256","internalType":"uint256"},{"name":"usdcReceived","type":"uint256","internalType":"uint256"},{"name":"nativeReceived","type":"uint256","internalType":"uint256"}],"stateMutability":"view"},{"type":"function","name":"grantRole","inputs":[{"name":"role","type":"bytes32","internalType":"bytes32"},{"name":"account","type":"address","internalType":"address"}],"outputs":[],"stateMutability":"nonpayable"},{"type":"function","name":"hasRole","inputs":[{"name":"role","type":"bytes32","internalType":"bytes32"},{"name":"account","type":"address","internalType":"address"}],"outputs":[{"name":"","type":"bool","internalType":"bool"}],"stateMutability":"view"},{"type":"function","name":"nativeFunded","inputs":[{"name":"","type":"address","internalType":"address"}],"outputs":[{"name":"","type":"uint256","internalType":"uint256"}],"stateMutability":"view"},{"type":"function","name":"nativeToken","inputs":[],"outputs":[{"name":"","type":"address","internalType":"contract IERC20"}],"stateMutability":"view"},{"type":"function","name":"pause","inputs":[],"outputs":[],"stateMutability":"nonpayable"},{"type":"function","name":"paused","inputs":[],"outputs":[{"name":"","type":"bool","internalType":"bool"}],"stateMutability":"view"},{"type":"function","name":"renounceRole","inputs":[{"name":"role","type":"bytes32","internalType":"bytes32"},{"name":"callerConfirmation","type":"address","internalType":"address"}],"outputs":[],"stateMutability":"nonpayable"},{"type":"function","name":"revokeRole","inputs":[{"name":"role","type":"bytes32","internalType":"bytes32"},{"name":"account","type":"address","internalType":"address"}],"outputs":[],"stateMutability":"nonpayable"},{"type":"function","name":"supportsInterface","inputs":[{"name":"interfaceId","type":"bytes4","internalType":"bytes4"}],"outputs":[{"name":"","type":"bool","internalType":"bool"}],"stateMutability":"view"},{"type":"function","name":"totalNativeDistributed","inputs":[],"outputs":[{"name":"","type":"uint256","internalType":"uint256"}],"stateMutability":"view"},{"type":"function","name":"totalUsdcDistributed","inputs":[],"outputs":[{"name":"","type":"uint256","internalType":"uint256"}],"stateMutability":"view"},{"type":"function","name":"totalWalletsFunded","inputs":[],"outputs":[{"name":"","type":"uint256","internalType":"uint256"}],"stateMutability":"view"},{"type":"function","name":"unpause","inputs":[],"outputs":[],"stateMutability":"nonpayable"},{"type":"function","name":"usdc","inputs":[],"outputs":[{"name":"","type":"address","internalType":"contract IERC20"}],"stateMutability":"view"},{"type":"function","name":"usdcFunded","inputs":[{"name":"","type":"address","internalType":"address"}],"outputs":[{"name":"","type":"uint256","internalType":"uint256"}],"stateMutability":"view"},{"type":"function","name":"walletFundingTimestamp","inputs":[{"name":"","type":"address","internalType":"address"}],"outputs":[{"name":"","type":"uint256","internalType":"uint256"}],"stateMutability":"view"},{"type":"event","name":"EmergencyWithdraw","inputs":[{"name":"to","type":"address","indexed":true,"internalType":"address"},{"name":"token","type":"address","indexed":false,"internalType":"address"},{"name":"amount","type":"uint256","indexed":false,"internalType":"uint256"}],"anonymous":false},{"type":"event","name":"FundsDeposited","inputs":[{"name":"from","type":"address","indexed":true,"internalType":"address"},{"name":"usdcAmount","type":"uint256","indexed":false,"internalType":"uint256"},{"name":"nativeAmount","type":"uint256","indexed":false,"internalType":"uint256"}],"anonymous":false},{"type":"event","name":"Paused","inputs":[{"name":"account","type":"address","indexed":false,"internalType":"address"}],"anonymous":false},{"type":"event","name":"RoleAdminChanged","inputs":[{"name":"role","type":"bytes32","indexed":true,"internalType":"bytes32"},{"name":"previousAdminRole","type":"bytes32","indexed":true,"internalType":"bytes32"},{"name":"newAdminRole","type":"bytes32","indexed":true,"internalType":"bytes32"}],"anonymous":false},{"type":"event","name":"RoleGranted","inputs":[{"name":"role","type":"bytes32","indexed":true,"internalType":"bytes32"},{"name":"account","type":"address","indexed":true,"internalType":"address"},{"name":"sender","type":"address","indexed":true,"internalType":"address"}],"anonymous":false},{"type":"event","name":"RoleRevoked","inputs":[{"name":"role","type":"bytes32","indexed":true,"internalType":"bytes32"},{"name":"account","type":"address","indexed":true,"internalType":"address"},{"name":"sender","type":"address","indexed":true,"internalType":"address"}],"anonymous":false},{"type":"event","name":"Unpaused","inputs":[{"name":"account","type":"address","indexed":false,"internalType":"address"}],"anonymous":false},{"type":"event","name":"WalletFunded","inputs":[{"name":"wallet","type":"address","indexed":true,"internalType":"address"},{"name":"usdcAmount","type":"uint256","indexed":false,"internalType":"uint256"},{"name":"nativeAmount","type":"uint256","indexed":false,"internalType":"uint256"},{"name":"timestamp","type":"uint256","indexed":false,"internalType":"uint256"}],"anonymous":false},{"type":"error","name":"AccessControlBadConfirmation","inputs":[]},{"type":"error","name":"AccessControlUnauthorizedAccount","inputs":[{"name":"account","type":"address","internalType":"address"},{"name":"neededRole","type":"bytes32","internalType":"bytes32"}]},{"type":"error","name":"EnforcedPause","inputs":[]},{"type":"error","name":"ExpectedPause","inputs":[]},{"type":"error","name":"ReentrancyGuardReentrantCall","inputs":[]}],"bytecode":{"object":"0x60c060405234801562000010575f80fd5b506040516200228e3803806200228e8339810160408190526200003391620002bb565b600180556001600160a01b038316620000935760405162461bcd60e51b815260206004820152601460248201527f496e76616c69642055534443206164647265737300000000000000000000000060448201526064015b60405180910390fd5b6001600160a01b038216620000eb5760405162461bcd60e51b815260206004820152601c60248201527f496e76616c6964206e617469766520746f6b656e20616464726573730000000060448201526064016200008a565b6001600160a01b038116620001435760405162461bcd60e51b815260206004820152601560248201527f496e76616c69642061646d696e2061646472657373000000000000000000000060448201526064016200008a565b6001600160a01b03808416608052821660a052620001625f82620001f3565b506200018f7fa49807205ce4d355092ef5a8a18f56e8913cf4a201fbe287825b095693c2177582620001f3565b50620001bc7f97667070c54ef182b0f5858b034beac1b6f3089aa2d3188bb1e8929f4fa9b92982620001f3565b50620001e97ffbd454f36a7e1a388bd6fc3ab10d434aa4578f811acbbcf33afb1c697486313c82620001f3565b5050505062000302565b5f828152602081815260408083206001600160a01b038516845290915281205460ff1662000296575f838152602081815260408083206001600160a01b03861684529091529020805460ff191660011790556200024d3390565b6001600160a01b0316826001600160a01b0316847f2f8788117e7eff1d82e926ec794901d17c78024a50270940304540a733656f0d60405160405180910390a450600162000299565b505f5b92915050565b80516001600160a01b0381168114620002b6575f80fd5b919050565b5f805f60608486031215620002ce575f80fd5b620002d9846200029f565b9250620002e9602085016200029f565b9150620002f9604085016200029f565b90509250925092565b60805160a051611efa620003945f395f8181610448015281816105890152818161071201528181610a0a01528181610c8e01528181610fa1015281816113c5015281816114aa015261171b01525f818161027e0152818161050b015281816106720152818161092e01528181610b7f01528181610ec5015281816111d1015281816112b6015261166e0152611efa5ff3fe608060405234801561000f575f80fd5b50600436106101c5575f3560e01c806361638ed5116100fe578063a36ad92d1161009e578063e63ea4081161006e578063e63ea4081461046a578063f0bd87cc1461047d578063f5b541a6146104a4578063fe6fa300146104cb575f80fd5b8063a36ad92d146103f7578063c59d484714610400578063d547741f14610430578063e1758bd814610443575f80fd5b80638b49d9f4116100d95780638b49d9f4146103ab57806391d14854146103be5780639fbf2710146103d1578063a217fddf146103f0575f80fd5b806361638ed51461036957806375b238fc1461037c5780638456cb59146103a3575f80fd5b80633f4ba83a1161016957806353d3ee591161014457806353d3ee59146103395780635c975abb146103425780635ece213c1461034d57806360688b8414610356575f80fd5b80633f4ba83a146102b857806346eba3e1146102c0578063477b937f1461031a575f80fd5b8063248a9ca3116101a4578063248a9ca3146102215780632f2ff15d1461025157806336568abe146102665780633e413bee14610279575f80fd5b8062113e08146101c957806301ffc9a7146101eb57806323a961911461020e575b5f80fd5b6101d16104ea565b604080519283526020830191909152015b60405180910390f35b6101fe6101f9366004611c7d565b610602565b60405190151581526020016101e2565b6101fe61021c366004611cab565b610638565b61024361022f366004611ccb565b5f9081526020819052604090206001015490565b6040519081526020016101e2565b61026461025f366004611cfd565b61079a565b005b610264610274366004611cfd565b6107c4565b6102a07f000000000000000000000000000000000000000000000000000000000000000081565b6040516001600160a01b0390911681526020016101e2565b6102646107fc565b6102ff6102ce366004611d27565b6001600160a01b03165f90815260066020908152604080832054600783528184205460089093529220549192909190565b604080519384526020840192909252908201526060016101e2565b610243610328366004611d27565b60086020525f908152604090205481565b61024360035481565b60025460ff166101fe565b61024360055481565b610264610364366004611d40565b610831565b610264610377366004611cab565b610e44565b6102437fa49807205ce4d355092ef5a8a18f56e8913cf4a201fbe287825b095693c2177581565b610264611096565b6102646103b9366004611dbb565b6110c8565b6101fe6103cc366004611cfd565b611636565b6102436103df366004611d27565b60076020525f908152604090205481565b6102435f81565b61024360045481565b61040861165e565b604080519586526020860194909452928401919091526060830152608082015260a0016101e2565b61026461043e366004611cfd565b61179d565b6102a07f000000000000000000000000000000000000000000000000000000000000000081565b610264610478366004611deb565b6117c1565b6102437ffbd454f36a7e1a388bd6fc3ab10d434aa4578f811acbbcf33afb1c697486313c81565b6102437f97667070c54ef182b0f5858b034beac1b6f3089aa2d3188bb1e8929f4fa9b92981565b6102436104d9366004611d27565b60066020525f908152604090205481565b6040516370a0823160e01b81523060048201525f9081906001600160a01b037f000000000000000000000000000000000000000000000000000000000000000016906370a0823190602401602060405180830381865afa158015610550573d5f803e3d5ffd5b505050506040513d601f19601f820116820180604052508101906105749190611e24565b6040516370a0823160e01b81523060048201527f00000000000000000000000000000000000000000000000000000000000000006001600160a01b0316906370a0823190602401602060405180830381865afa1580156105d6573d5f803e3d5ffd5b505050506040513d601f19601f820116820180604052508101906105fa9190611e24565b915091509091565b5f6001600160e01b03198216637965db0b60e01b148061063257506301ffc9a760e01b6001600160e01b03198316145b92915050565b5f61064560025460ff1690565b1561065157505f610632565b5f831180156106e557506040516370a0823160e01b815230600482015283907f00000000000000000000000000000000000000000000000000000000000000006001600160a01b0316906370a0823190602401602060405180830381865afa1580156106bf573d5f803e3d5ffd5b505050506040513d601f19601f820116820180604052508101906106e39190611e24565b105b156106f157505f610632565b5f8211801561078557506040516370a0823160e01b815230600482015282907f00000000000000000000000000000000000000000000000000000000000000006001600160a01b0316906370a0823190602401602060405180830381865afa15801561075f573d5f803e3d5ffd5b505050506040513d601f19601f820116820180604052508101906107839190611e24565b105b1561079157505f610632565b50600192915050565b5f828152602081905260409020600101546107b481611a3c565b6107be8383611a46565b50505050565b6001600160a01b03811633146107ed5760405163334bd91960e11b815260040160405180910390fd5b6107f78282611ad5565b505050565b7f97667070c54ef182b0f5858b034beac1b6f3089aa2d3188bb1e8929f4fa9b92961082681611a3c565b61082e611b3e565b50565b610839611b90565b610841611bba565b7ffbd454f36a7e1a388bd6fc3ab10d434aa4578f811acbbcf33afb1c697486313c61086b81611a3c565b836108b35760405162461bcd60e51b8152602060048201526013602482015272139bc81dd85b1b195d1cc81c1c9bdd9a591959606a1b60448201526064015b60405180910390fd5b60648411156108f75760405162461bcd60e51b815260206004820152601060248201526f546f6f206d616e792077616c6c65747360801b60448201526064016108aa565b5f6109028585611e4f565b90505f61090f8685611e4f565b905081156109ed576040516370a0823160e01b815230600482015282907f00000000000000000000000000000000000000000000000000000000000000006001600160a01b0316906370a0823190602401602060405180830381865afa15801561097b573d5f803e3d5ffd5b505050506040513d601f19601f8201168201806040525081019061099f9190611e24565b10156109ed5760405162461bcd60e51b815260206004820152601b60248201527f496e73756666696369656e74205553444320666f72206261746368000000000060448201526064016108aa565b8015610ac9576040516370a0823160e01b815230600482015281907f00000000000000000000000000000000000000000000000000000000000000006001600160a01b0316906370a0823190602401602060405180830381865afa158015610a57573d5f803e3d5ffd5b505050506040513d601f19601f82011682018060405250810190610a7b9190611e24565b1015610ac95760405162461bcd60e51b815260206004820152601d60248201527f496e73756666696369656e74206e617469766520666f7220626174636800000060448201526064016108aa565b5f5b86811015610e08575f888883818110610ae657610ae6611e66565b9050602002016020810190610afb9190611d27565b90506001600160a01b038116610b535760405162461bcd60e51b815260206004820152601760248201527f496e76616c69642077616c6c657420696e20626174636800000000000000000060448201526064016108aa565b8615610c625760405163a9059cbb60e01b81526001600160a01b038281166004830152602482018990527f0000000000000000000000000000000000000000000000000000000000000000169063a9059cbb906044016020604051808303815f875af1158015610bc5573d5f803e3d5ffd5b505050506040513d601f19601f82011682018060405250810190610be99190611e7a565b610c355760405162461bcd60e51b815260206004820152601d60248201527f55534443207472616e73666572206661696c656420696e20626174636800000060448201526064016108aa565b6001600160a01b0381165f9081526007602052604081208054899290610c5c908490611e99565b90915550505b8515610d715760405163a9059cbb60e01b81526001600160a01b038281166004830152602482018890527f0000000000000000000000000000000000000000000000000000000000000000169063a9059cbb906044016020604051808303815f875af1158015610cd4573d5f803e3d5ffd5b505050506040513d601f19601f82011682018060405250810190610cf89190611e7a565b610d445760405162461bcd60e51b815260206004820152601f60248201527f4e6174697665207472616e73666572206661696c656420696e2062617463680060448201526064016108aa565b6001600160a01b0381165f9081526008602052604081208054889290610d6b908490611e99565b90915550505b6001600160a01b0381165f908152600660205260408120549003610da45760058054905f610d9e83611eac565b91905055505b6001600160a01b0381165f81815260066020908152604091829020429081905582518b81529182018a90528183015290517fae70389e575bdbddd34b75c64c9d2c542aa66a0810a7e5faed93af11cd17839a9181900360600190a250600101610acb565b508160035f828254610e1a9190611e99565b925050819055508060045f828254610e329190611e99565b909155505060018055506107be915050565b5f821180610e5157505f81115b610e9d5760405162461bcd60e51b815260206004820152601f60248201527f4d757374206465706f736974206174206c65617374206f6e6520746f6b656e0060448201526064016108aa565b8115610f79576040516323b872dd60e01b8152336004820152306024820152604481018390527f00000000000000000000000000000000000000000000000000000000000000006001600160a01b0316906323b872dd906064016020604051808303815f875af1158015610f13573d5f803e3d5ffd5b505050506040513d601f19601f82011682018060405250810190610f379190611e7a565b610f795760405162461bcd60e51b81526020600482015260136024820152721554d110c819195c1bdcda5d0819985a5b1959606a1b60448201526064016108aa565b8015611057576040516323b872dd60e01b8152336004820152306024820152604481018290527f00000000000000000000000000000000000000000000000000000000000000006001600160a01b0316906323b872dd906064016020604051808303815f875af1158015610fef573d5f803e3d5ffd5b505050506040513d601f19601f820116820180604052508101906110139190611e7a565b6110575760405162461bcd60e51b815260206004820152601560248201527413985d1a5d994819195c1bdcda5d0819985a5b1959605a1b60448201526064016108aa565b604080518381526020810183905233917fbee4fe3675934fca827426c793623996a3079255089bda3a717019ffc5db2765910160405180910390a25050565b7f97667070c54ef182b0f5858b034beac1b6f3089aa2d3188bb1e8929f4fa9b9296110c081611a3c565b61082e611be0565b6110d0611b90565b6110d8611bba565b7ffbd454f36a7e1a388bd6fc3ab10d434aa4578f811acbbcf33afb1c697486313c61110281611a3c565b6001600160a01b0384166111515760405162461bcd60e51b8152602060048201526016602482015275496e76616c69642077616c6c6574206164647265737360501b60448201526064016108aa565b5f83118061115e57505f82115b6111b45760405162461bcd60e51b815260206004820152602160248201527f4d7573742066756e642077697468206174206c65617374206f6e6520746f6b656044820152603760f91b60648201526084016108aa565b82156113a8576040516370a0823160e01b815230600482015283907f00000000000000000000000000000000000000000000000000000000000000006001600160a01b0316906370a0823190602401602060405180830381865afa15801561121e573d5f803e3d5ffd5b505050506040513d601f19601f820116820180604052508101906112429190611e24565b10156112905760405162461bcd60e51b815260206004820152601960248201527f496e73756666696369656e7420555344432062616c616e63650000000000000060448201526064016108aa565b60405163a9059cbb60e01b81526001600160a01b038581166004830152602482018590527f0000000000000000000000000000000000000000000000000000000000000000169063a9059cbb906044016020604051808303815f875af11580156112fc573d5f803e3d5ffd5b505050506040513d601f19601f820116820180604052508101906113209190611e7a565b6113635760405162461bcd60e51b81526020600482015260146024820152731554d110c81d1c985b9cd9995c8819985a5b195960621b60448201526064016108aa565b6001600160a01b0384165f908152600760205260408120805485929061138a908490611e99565b925050819055508260035f8282546113a29190611e99565b90915550505b811561159e576040516370a0823160e01b815230600482015282907f00000000000000000000000000000000000000000000000000000000000000006001600160a01b0316906370a0823190602401602060405180830381865afa158015611412573d5f803e3d5ffd5b505050506040513d601f19601f820116820180604052508101906114369190611e24565b10156114845760405162461bcd60e51b815260206004820152601b60248201527f496e73756666696369656e74206e61746976652062616c616e6365000000000060448201526064016108aa565b60405163a9059cbb60e01b81526001600160a01b038581166004830152602482018490527f0000000000000000000000000000000000000000000000000000000000000000169063a9059cbb906044016020604051808303815f875af11580156114f0573d5f803e3d5ffd5b505050506040513d601f19601f820116820180604052508101906115149190611e7a565b6115595760405162461bcd60e51b815260206004820152601660248201527513985d1a5d99481d1c985b9cd9995c8819985a5b195960521b60448201526064016108aa565b6001600160a01b0384165f9081526008602052604081208054849290611580908490611e99565b925050819055508160045f8282546115989190611e99565b90915550505b6001600160a01b0384165f9081526006602052604081205490036115d15760058054905f6115cb83611eac565b91905055505b6001600160a01b0384165f81815260066020908152604091829020429081905582518781529182018690528183015290517fae70389e575bdbddd34b75c64c9d2c542aa66a0810a7e5faed93af11cd17839a9181900360600190a2506107f760018055565b5f918252602082815260408084206001600160a01b0393909316845291905290205460ff1690565b5f805f805f6005546003546004547f00000000000000000000000000000000000000000000000000000000000000006001600160a01b03166370a08231306040518263ffffffff1660e01b81526004016116c791906001600160a01b0391909116815260200190565b602060405180830381865afa1580156116e2573d5f803e3d5ffd5b505050506040513d601f19601f820116820180604052508101906117069190611e24565b6040516370a0823160e01b81523060048201527f00000000000000000000000000000000000000000000000000000000000000006001600160a01b0316906370a0823190602401602060405180830381865afa158015611768573d5f803e3d5ffd5b505050506040513d601f19601f8201168201806040525081019061178c9190611e24565b945094509450945094509091929394565b5f828152602081905260409020600101546117b781611a3c565b6107be8383611ad5565b7fa49807205ce4d355092ef5a8a18f56e8913cf4a201fbe287825b095693c217756117eb81611a3c565b6001600160a01b0383166118355760405162461bcd60e51b8152602060048201526011602482015270125b9d985b1a59081c9958da5c1a595b9d607a1b60448201526064016108aa565b5f82116118845760405162461bcd60e51b815260206004820152601d60248201527f416d6f756e74206d7573742062652067726561746572207468616e203000000060448201526064016108aa565b6040516370a0823160e01b8152306004820152849083906001600160a01b038316906370a0823190602401602060405180830381865afa1580156118ca573d5f803e3d5ffd5b505050506040513d601f19601f820116820180604052508101906118ee9190611e24565b10156119335760405162461bcd60e51b8152602060048201526014602482015273496e73756666696369656e742062616c616e636560601b60448201526064016108aa565b60405163a9059cbb60e01b81526001600160a01b0385811660048301526024820185905282169063a9059cbb906044016020604051808303815f875af115801561197f573d5f803e3d5ffd5b505050506040513d601f19601f820116820180604052508101906119a39190611e7a565b6119ef5760405162461bcd60e51b815260206004820152601960248201527f456d657267656e6379207769746864726177206661696c65640000000000000060448201526064016108aa565b604080516001600160a01b038781168252602082018690528616917ff24ef89f38eadc1bde50701ad6e4d6d11a2dc24f7cf834a486991f3883328504910160405180910390a25050505050565b61082e8133611c1d565b5f611a518383611636565b611ace575f838152602081815260408083206001600160a01b03861684529091529020805460ff19166001179055611a863390565b6001600160a01b0316826001600160a01b0316847f2f8788117e7eff1d82e926ec794901d17c78024a50270940304540a733656f0d60405160405180910390a4506001610632565b505f610632565b5f611ae08383611636565b15611ace575f838152602081815260408083206001600160a01b0386168085529252808320805460ff1916905551339286917ff6391f5c32d9c69d2a47ea670b442974b53935d1edc7fd64eb21e047a839171b9190a4506001610632565b611b46611c5a565b6002805460ff191690557f5db9ee0a495bf2e6ff9c91a7834c1ba4fdd244a5e8aa4e537bd38aeae4b073aa335b6040516001600160a01b03909116815260200160405180910390a1565b600260015403611bb357604051633ee5aeb560e01b815260040160405180910390fd5b6002600155565b60025460ff1615611bde5760405163d93c066560e01b815260040160405180910390fd5b565b611be8611bba565b6002805460ff191660011790557f62e78cea01bee320cd4e420270b5ea74000d11b0c9f74754ebdbfc544b05a258611b733390565b611c278282611636565b611c565760405163e2517d3f60e01b81526001600160a01b0382166004820152602481018390526044016108aa565b5050565b60025460ff16611bde57604051638dfc202b60e01b815260040160405180910390fd5b5f60208284031215611c8d575f80fd5b81356001600160e01b031981168114611ca4575f80fd5b9392505050565b5f8060408385031215611cbc575f80fd5b50508035926020909101359150565b5f60208284031215611cdb575f80fd5b5035919050565b80356001600160a01b0381168114611cf8575f80fd5b919050565b5f8060408385031215611d0e575f80fd5b82359150611d1e60208401611ce2565b90509250929050565b5f60208284031215611d37575f80fd5b611ca482611ce2565b5f805f8060608587031215611d53575f80fd5b843567ffffffffffffffff80821115611d6a575f80fd5b818701915087601f830112611d7d575f80fd5b813581811115611d8b575f80fd5b8860208260051b8501011115611d9f575f80fd5b6020928301999098509187013596604001359550909350505050565b5f805f60608486031215611dcd575f80fd5b611dd684611ce2565b95602085013595506040909401359392505050565b5f805f60608486031215611dfd575f80fd5b611e0684611ce2565b9250611e1460208501611ce2565b9150604084013590509250925092565b5f60208284031215611e34575f80fd5b5051919050565b634e487b7160e01b5f52601160045260245ffd5b808202811582820484141761063257610632611e3b565b634e487b7160e01b5f52603260045260245ffd5b5f60208284031215611e8a575f80fd5b81518015158114611ca4575f80fd5b8082018082111561063257610632611e3b565b5f60018201611ebd57611ebd611e3b565b506001019056fea2646970667358221220d22881f29b22d0f35ac7cd26441bc909b5a8c42a1e644c7249d06c60d638e9c664736f6c63430008180033","linkReferences":{}},"methodIdentifiers":{"ADMIN_ROLE()":"75b238fc","DEFAULT_ADMIN_ROLE()":"a217fddf","DISTRIBUTOR_ROLE()":"f0bd87cc","OPERATOR_ROLE()":"f5b541a6","canFund(uint256,uint256)":"23a96191","depositFunds(uint256,uint256)":"61638ed5","emergencyWithdraw(address,address,uint256)":"e63ea408","fundMultipleWallets(address[],uint256,uint256)":"60688b84","fundWallet(address,uint256,uint256)":"8b49d9f4","getBalances()":"00113e08","getRoleAdmin(bytes32)":"248a9ca3","getStats()":"c59d4847","getWalletFundingInfo(address)":"46eba3e1","grantRole(bytes32,address)":"2f2ff15d","hasRole(bytes32,address)":"91d14854","nativeFunded(address)":"477b937f","nativeToken()":"e1758bd8","pause()":"8456cb59","paused()":"5c975abb","renounceRole(bytes32,address)":"36568abe","revokeRole(bytes32,address)":"d547741f","supportsInterface(bytes4)":"01ffc9a7","totalNativeDistributed()":"a36ad92d","totalUsdcDistributed()":"53d3ee59","totalWalletsFunded()":"5ece213c","unpause()":"3f4ba83a","usdc()":"3e413bee","usdcFunded(address)":"9fbf2710","walletFundingTimestamp(address)":"fe6fa300"},"id":30}