{"abi":[{"type":"constructor","inputs":[],"stateMutability":"nonpayable"},{"type":"function","name":"allowance","inputs":[{"name":"owner","type":"address","internalType":"address"},{"name":"spender","type":"address","internalType":"address"}],"outputs":[{"name":"","type":"uint256","internalType":"uint256"}],"stateMutability":"view"},{"type":"function","name":"approve","inputs":[{"name":"spender","type":"address","internalType":"address"},{"name":"value","type":"uint256","internalType":"uint256"}],"outputs":[{"name":"","type":"bool","internalType":"bool"}],"stateMutability":"nonpayable"},{"type":"function","name":"balanceOf","inputs":[{"name":"account","type":"address","internalType":"address"}],"outputs":[{"name":"","type":"uint256","internalType":"uint256"}],"stateMutability":"view"},{"type":"function","name":"decimals","inputs":[],"outputs":[{"name":"","type":"uint8","internalType":"uint8"}],"stateMutability":"pure"},{"type":"function","name":"faucet","inputs":[],"outputs":[],"stateMutability":"nonpayable"},{"type":"function","name":"mint","inputs":[],"outputs":[],"stateMutability":"nonpayable"},{"type":"function","name":"mintTo","inputs":[{"name":"to","type":"address","internalType":"address"},{"name":"amount","type":"uint256","internalType":"uint256"}],"outputs":[],"stateMutability":"nonpayable"},{"type":"function","name":"name","inputs":[],"outputs":[{"name":"","type":"string","internalType":"string"}],"stateMutability":"view"},{"type":"function","name":"owner","inputs":[],"outputs":[{"name":"","type":"address","internalType":"address"}],"stateMutability":"view"},{"type":"function","name":"renounceOwnership","inputs":[],"outputs":[],"stateMutability":"nonpayable"},{"type":"function","name":"symbol","inputs":[],"outputs":[{"name":"","type":"string","internalType":"string"}],"stateMutability":"view"},{"type":"function","name":"totalSupply","inputs":[],"outputs":[{"name":"","type":"uint256","internalType":"uint256"}],"stateMutability":"view"},{"type":"function","name":"transfer","inputs":[{"name":"to","type":"address","internalType":"address"},{"name":"value","type":"uint256","internalType":"uint256"}],"outputs":[{"name":"","type":"bool","internalType":"bool"}],"stateMutability":"nonpayable"},{"type":"function","name":"transferFrom","inputs":[{"name":"from","type":"address","internalType":"address"},{"name":"to","type":"address","internalType":"address"},{"name":"value","type":"uint256","internalType":"uint256"}],"outputs":[{"name":"","type":"bool","internalType":"bool"}],"stateMutability":"nonpayable"},{"type":"function","name":"transferOwnership","inputs":[{"name":"newOwner","type":"address","internalType":"address"}],"outputs":[],"stateMutability":"nonpayable"},{"type":"event","name":"Approval","inputs":[{"name":"owner","type":"address","indexed":true,"internalType":"address"},{"name":"spender","type":"address","indexed":true,"internalType":"address"},{"name":"value","type":"uint256","indexed":false,"internalType":"uint256"}],"anonymous":false},{"type":"event","name":"OwnershipTransferred","inputs":[{"name":"previousOwner","type":"address","indexed":true,"internalType":"address"},{"name":"newOwner","type":"address","indexed":true,"internalType":"address"}],"anonymous":false},{"type":"event","name":"Transfer","inputs":[{"name":"from","type":"address","indexed":true,"internalType":"address"},{"name":"to","type":"address","indexed":true,"internalType":"address"},{"name":"value","type":"uint256","indexed":false,"internalType":"uint256"}],"anonymous":false},{"type":"error","name":"ERC20InsufficientAllowance","inputs":[{"name":"spender","type":"address","internalType":"address"},{"name":"allowance","type":"uint256","internalType":"uint256"},{"name":"needed","type":"uint256","internalType":"uint256"}]},{"type":"error","name":"ERC20InsufficientBalance","inputs":[{"name":"sender","type":"address","internalType":"address"},{"name":"balance","type":"uint256","internalType":"uint256"},{"name":"needed","type":"uint256","internalType":"uint256"}]},{"type":"error","name":"ERC20InvalidApprover","inputs":[{"name":"approver","type":"address","internalType":"address"}]},{"type":"error","name":"ERC20InvalidReceiver","inputs":[{"name":"receiver","type":"address","internalType":"address"}]},{"type":"error","name":"ERC20InvalidSender","inputs":[{"name":"sender","type":"address","internalType":"address"}]},{"type":"error","name":"ERC20InvalidSpender","inputs":[{"name":"spender","type":"address","internalType":"address"}]},{"type":"error","name":"OwnableInvalidOwner","inputs":[{"name":"owner","type":"address","internalType":"address"}]},{"type":"error","name":"OwnableUnauthorizedAccount","inputs":[{"name":"account","type":"address","internalType":"address"}]}],"bytecode":{"object":"0x608060405234801562000010575f80fd5b50336040518060400160405280600981526020016809adec6d640a69ea0960bb1b815250604051806040016040528060058152602001640daa69ea0960db1b8152508160039081620000639190620001a4565b506004620000728282620001a4565b5050506001600160a01b038116620000a357604051631e4fbdf760e01b81525f600482015260240160405180910390fd5b620000ae81620000b5565b5062000270565b600580546001600160a01b038381166001600160a01b0319831681179093556040519116919082907f8be0079c531659141344cd1fd0a4f28419497f9722a3daafe3b4186f6b6457e0905f90a35050565b634e487b7160e01b5f52604160045260245ffd5b600181811c908216806200012f57607f821691505b6020821081036200014e57634e487b7160e01b5f52602260045260245ffd5b50919050565b601f8211156200019f57805f5260205f20601f840160051c810160208510156200017b5750805b601f840160051c820191505b818110156200019c575f815560010162000187565b50505b505050565b81516001600160401b03811115620001c057620001c062000106565b620001d881620001d184546200011a565b8462000154565b602080601f8311600181146200020e575f8415620001f65750858301515b5f19600386901b1c1916600185901b17855562000268565b5f85815260208120601f198616915b828110156200023e578886015182559484019460019091019084016200021d565b50858210156200025c57878501515f19600388901b60f8161c191681555b505060018460011b0185555b505050505050565b610a16806200027e5f395ff3fe608060405234801561000f575f80fd5b50600436106100f0575f3560e01c806370a0823111610093578063a9059cbb11610063578063a9059cbb146101d9578063dd62ed3e146101ec578063de5f72fd14610224578063f2fde38b1461022c575f80fd5b806370a0823114610186578063715018a6146101ae5780638da5cb5b146101b657806395d89b41146101d1575f80fd5b806318160ddd116100ce57806318160ddd1461013f57806323b872dd14610151578063313ce56714610164578063449a52f814610173575f80fd5b806306fdde03146100f4578063095ea7b3146101125780631249c58b14610135575b5f80fd5b6100fc61023f565b6040516101099190610763565b60405180910390f35b6101256101203660046107ca565b6102cf565b6040519015158152602001610109565b61013d6102e8565b005b6002545b604051908152602001610109565b61012561015f3660046107f2565b61030b565b60405160128152602001610109565b61013d6101813660046107ca565b61032e565b61014361019436600461082b565b6001600160a01b03165f9081526020819052604090205490565b61013d610344565b6005546040516001600160a01b039091168152602001610109565b6100fc610355565b6101256101e73660046107ca565b610364565b6101436101fa36600461084b565b6001600160a01b039182165f90815260016020908152604080832093909416825291909152205490565b61013d610371565b61013d61023a36600461082b565b61038c565b60606003805461024e9061087c565b80601f016020809104026020016040519081016040528092919081815260200182805461027a9061087c565b80156102c55780601f1061029c576101008083540402835291602001916102c5565b820191905f5260205f20905b8154815290600101906020018083116102a857829003601f168201915b5050505050905090565b5f336102dc8185856103ce565b60019150505b92915050565b610309336102f86012600a6109a8565b610304906103e86109b6565b6103e0565b565b5f33610318858285610414565b610323858585610490565b506001949350505050565b6103366104ed565b61034082826103e0565b5050565b61034c6104ed565b6103095f61051a565b60606004805461024e9061087c565b5f336102dc818585610490565b610309336103816012600a6109a8565b61030490600a6109b6565b6103946104ed565b6001600160a01b0381166103c257604051631e4fbdf760e01b81525f60048201526024015b60405180910390fd5b6103cb8161051a565b50565b6103db838383600161056b565b505050565b6001600160a01b0382166104095760405163ec442f0560e01b81525f60048201526024016103b9565b6103405f838361063d565b6001600160a01b038381165f908152600160209081526040808320938616835292905220545f1981101561048a578181101561047c57604051637dc7a0d960e11b81526001600160a01b038416600482015260248101829052604481018390526064016103b9565b61048a84848484035f61056b565b50505050565b6001600160a01b0383166104b957604051634b637e8f60e11b81525f60048201526024016103b9565b6001600160a01b0382166104e25760405163ec442f0560e01b81525f60048201526024016103b9565b6103db83838361063d565b6005546001600160a01b031633146103095760405163118cdaa760e01b81523360048201526024016103b9565b600580546001600160a01b038381166001600160a01b0319831681179093556040519116919082907f8be0079c531659141344cd1fd0a4f28419497f9722a3daafe3b4186f6b6457e0905f90a35050565b6001600160a01b0384166105945760405163e602df0560e01b81525f60048201526024016103b9565b6001600160a01b0383166105bd57604051634a1406b160e11b81525f60048201526024016103b9565b6001600160a01b038085165f908152600160209081526040808320938716835292905220829055801561048a57826001600160a01b0316846001600160a01b03167f8c5be1e5ebec7d5bd14f71427d1e84f3dd0314c0f7b2291e5b200ac8c7c3b9258460405161062f91815260200190565b60405180910390a350505050565b6001600160a01b038316610667578060025f82825461065c91906109cd565b909155506106d79050565b6001600160a01b0383165f90815260208190526040902054818110156106b95760405163391434e360e21b81526001600160a01b038516600482015260248101829052604481018390526064016103b9565b6001600160a01b0384165f9081526020819052604090209082900390555b6001600160a01b0382166106f357600280548290039055610711565b6001600160a01b0382165f9081526020819052604090208054820190555b816001600160a01b0316836001600160a01b03167fddf252ad1be2c89b69c2b068fc378daa952ba7f163c4a11628f55a4df523b3ef8360405161075691815260200190565b60405180910390a3505050565b5f602080835283518060208501525f5b8181101561078f57858101830151858201604001528201610773565b505f604082860101526040601f19601f8301168501019250505092915050565b80356001600160a01b03811681146107c5575f80fd5b919050565b5f80604083850312156107db575f80fd5b6107e4836107af565b946020939093013593505050565b5f805f60608486031215610804575f80fd5b61080d846107af565b925061081b602085016107af565b9150604084013590509250925092565b5f6020828403121561083b575f80fd5b610844826107af565b9392505050565b5f806040838503121561085c575f80fd5b610865836107af565b9150610873602084016107af565b90509250929050565b600181811c9082168061089057607f821691505b6020821081036108ae57634e487b7160e01b5f52602260045260245ffd5b50919050565b634e487b7160e01b5f52601160045260245ffd5b600181815b8085111561090257815f19048211156108e8576108e86108b4565b808516156108f557918102915b93841c93908002906108cd565b509250929050565b5f82610918575060016102e2565b8161092457505f6102e2565b816001811461093a576002811461094457610960565b60019150506102e2565b60ff841115610955576109556108b4565b50506001821b6102e2565b5060208310610133831016604e8410600b8410161715610983575081810a6102e2565b61098d83836108c8565b805f19048211156109a0576109a06108b4565b029392505050565b5f61084460ff84168361090a565b80820281158282048414176102e2576102e26108b4565b808201808211156102e2576102e26108b456fea2646970667358221220b90dac8abc7a6bddba848b0ebf9261294ae3e15391d55dd48a854ef8c082263364736f6c63430008180033","linkReferences":{}},"methodIdentifiers":{"allowance(address,address)":"dd62ed3e","approve(address,uint256)":"095ea7b3","balanceOf(address)":"70a08231","decimals()":"313ce567","faucet()":"de5f72fd","mint()":"1249c58b","mintTo(address,uint256)":"449a52f8","name()":"06fdde03","owner()":"8da5cb5b","renounceOwnership()":"715018a6","symbol()":"95d89b41","totalSupply()":"18160ddd","transfer(address,uint256)":"a9059cbb","transferFrom(address,address,uint256)":"23b872dd","transferOwnership(address)":"f2fde38b"},"id":41}