{"abi":[{"type":"constructor","inputs":[],"stateMutability":"nonpayable"},{"type":"function","name":"ADMIN_ROLE","inputs":[],"outputs":[{"name":"","type":"bytes32","internalType":"bytes32"}],"stateMutability":"view"},{"type":"function","name":"DEFAULT_ADMIN_ROLE","inputs":[],"outputs":[{"name":"","type":"bytes32","internalType":"bytes32"}],"stateMutability":"view"},{"type":"function","name":"DISTRIBUTOR_ROLE","inputs":[],"outputs":[{"name":"","type":"bytes32","internalType":"bytes32"}],"stateMutability":"view"},{"type":"function","name":"OPERATOR_ROLE","inputs":[],"outputs":[{"name":"","type":"bytes32","internalType":"bytes32"}],"stateMutability":"view"},{"type":"function","name":"UPGRADE_INTERFACE_VERSION","inputs":[],"outputs":[{"name":"","type":"string","internalType":"string"}],"stateMutability":"view"},{"type":"function","name":"depositUSDC","inputs":[{"name":"amount","type":"uint256","internalType":"uint256"}],"outputs":[],"stateMutability":"nonpayable"},{"type":"function","name":"emergencyWithdraw","inputs":[{"name":"amount","type":"uint256","internalType":"uint256"}],"outputs":[],"stateMutability":"nonpayable"},{"type":"function","name":"emergencyWithdrawAll","inputs":[],"outputs":[],"stateMutability":"nonpayable"},{"type":"function","name":"getRoleAdmin","inputs":[{"name":"role","type":"bytes32","internalType":"bytes32"}],"outputs":[{"name":"","type":"bytes32","internalType":"bytes32"}],"stateMutability":"view"},{"type":"function","name":"getUSDCBalance","inputs":[],"outputs":[{"name":"","type":"uint256","internalType":"uint256"}],"stateMutability":"view"},{"type":"function","name":"grantRole","inputs":[{"name":"role","type":"bytes32","internalType":"bytes32"},{"name":"account","type":"address","internalType":"address"}],"outputs":[],"stateMutability":"nonpayable"},{"type":"function","name":"hasRole","inputs":[{"name":"role","type":"bytes32","internalType":"bytes32"},{"name":"account","type":"address","internalType":"address"}],"outputs":[{"name":"","type":"bool","internalType":"bool"}],"stateMutability":"view"},{"type":"function","name":"initialize","inputs":[{"name":"_usdc","type":"address","internalType":"address"},{"name":"_admin","type":"address","internalType":"address"}],"outputs":[],"stateMutability":"nonpayable"},{"type":"function","name":"pause","inputs":[],"outputs":[],"stateMutability":"nonpayable"},{"type":"function","name":"paused","inputs":[],"outputs":[{"name":"","type":"bool","internalType":"bool"}],"stateMutability":"view"},{"type":"function","name":"paySongSubmitter","inputs":[{"name":"user","type":"address","internalType":"address"},{"name":"usdcAmount","type":"uint256","internalType":"uint256"},{"name":"","type":"uint256","internalType":"uint256"}],"outputs":[],"stateMutability":"nonpayable"},{"type":"function","name":"proxiableUUID","inputs":[],"outputs":[{"name":"","type":"bytes32","internalType":"bytes32"}],"stateMutability":"view"},{"type":"function","name":"renounceRole","inputs":[{"name":"role","type":"bytes32","internalType":"bytes32"},{"name":"callerConfirmation","type":"address","internalType":"address"}],"outputs":[],"stateMutability":"nonpayable"},{"type":"function","name":"revoke","inputs":[],"outputs":[],"stateMutability":"nonpayable"},{"type":"function","name":"revokeRole","inputs":[{"name":"role","type":"bytes32","internalType":"bytes32"},{"name":"account","type":"address","internalType":"address"}],"outputs":[],"stateMutability":"nonpayable"},{"type":"function","name":"supportsInterface","inputs":[{"name":"interfaceId","type":"bytes4","internalType":"bytes4"}],"outputs":[{"name":"","type":"bool","internalType":"bool"}],"stateMutability":"view"},{"type":"function","name":"unpause","inputs":[],"outputs":[],"stateMutability":"nonpayable"},{"type":"function","name":"upgradeToAndCall","inputs":[{"name":"newImplementation","type":"address","internalType":"address"},{"name":"data","type":"bytes","internalType":"bytes"}],"outputs":[],"stateMutability":"payable"},{"type":"function","name":"usdc","inputs":[],"outputs":[{"name":"","type":"address","internalType":"contract IERC20"}],"stateMutability":"view"},{"type":"event","name":"EmergencyWithdraw","inputs":[{"name":"to","type":"address","indexed":true,"internalType":"address"},{"name":"amount","type":"uint256","indexed":false,"internalType":"uint256"}],"anonymous":false},{"type":"event","name":"FundsDeposited","inputs":[{"name":"from","type":"address","indexed":true,"internalType":"address"},{"name":"amount","type":"uint256","indexed":false,"internalType":"uint256"}],"anonymous":false},{"type":"event","name":"Initialized","inputs":[{"name":"version","type":"uint64","indexed":false,"internalType":"uint64"}],"anonymous":false},{"type":"event","name":"Paused","inputs":[{"name":"account","type":"address","indexed":false,"internalType":"address"}],"anonymous":false},{"type":"event","name":"RoleAdminChanged","inputs":[{"name":"role","type":"bytes32","indexed":true,"internalType":"bytes32"},{"name":"previousAdminRole","type":"bytes32","indexed":true,"internalType":"bytes32"},{"name":"newAdminRole","type":"bytes32","indexed":true,"internalType":"bytes32"}],"anonymous":false},{"type":"event","name":"RoleGranted","inputs":[{"name":"role","type":"bytes32","indexed":true,"internalType":"bytes32"},{"name":"account","type":"address","indexed":true,"internalType":"address"},{"name":"sender","type":"address","indexed":true,"internalType":"address"}],"anonymous":false},{"type":"event","name":"RoleRevoked","inputs":[{"name":"role","type":"bytes32","indexed":true,"internalType":"bytes32"},{"name":"account","type":"address","indexed":true,"internalType":"address"},{"name":"sender","type":"address","indexed":true,"internalType":"address"}],"anonymous":false},{"type":"event","name":"SongSubmitted","inputs":[{"name":"user","type":"address","indexed":true,"internalType":"address"},{"name":"usdcAmount","type":"uint256","indexed":false,"internalType":"uint256"}],"anonymous":false},{"type":"event","name":"USDCRevoked","inputs":[{"name":"wallet","type":"address","indexed":true,"internalType":"address"},{"name":"amount","type":"uint256","indexed":false,"internalType":"uint256"}],"anonymous":false},{"type":"event","name":"Unpaused","inputs":[{"name":"account","type":"address","indexed":false,"internalType":"address"}],"anonymous":false},{"type":"event","name":"Upgraded","inputs":[{"name":"implementation","type":"address","indexed":true,"internalType":"address"}],"anonymous":false},{"type":"error","name":"AccessControlBadConfirmation","inputs":[]},{"type":"error","name":"AccessControlUnauthorizedAccount","inputs":[{"name":"account","type":"address","internalType":"address"},{"name":"neededRole","type":"bytes32","internalType":"bytes32"}]},{"type":"error","name":"AddressEmptyCode","inputs":[{"name":"target","type":"address","internalType":"address"}]},{"type":"error","name":"ERC1967InvalidImplementation","inputs":[{"name":"implementation","type":"address","internalType":"address"}]},{"type":"error","name":"ERC1967NonPayable","inputs":[]},{"type":"error","name":"EnforcedPause","inputs":[]},{"type":"error","name":"ExpectedPause","inputs":[]},{"type":"error","name":"FailedCall","inputs":[]},{"type":"error","name":"InvalidInitialization","inputs":[]},{"type":"error","name":"NotInitializing","inputs":[]},{"type":"error","name":"UUPSUnauthorizedCallContext","inputs":[]},{"type":"error","name":"UUPSUnsupportedProxiableUUID","inputs":[{"name":"slot","type":"bytes32","internalType":"bytes32"}]}],"bytecode":{"object":"0x60a080604052346100cc57306080527ff0c57e16840df040f15088dc2f81fe391c3923bec73e23a9662efc9c229c6a009081549060ff8260401c166100bd57506001600160401b036002600160401b031982821601610078575b60405161186d90816100d18239608051818181610a5a0152610b380152f35b6001600160401b031990911681179091556040519081527fc7f505b2f371ae2175ee4913f4499e1f2633a7b5936321eed1cdaeb6115181d290602090a15f8080610059565b63f92ee8a960e01b8152600490fd5b5f80fdfe6080604081815260049182361015610015575f80fd5b5f3560e01c90816301ffc9a71461112357508063248a9ca3146110ed5780632f2ff15d146110c557806336568abe146110815780633cfd1ccc14610fef5780633e413bee14610fc85780633f4ba83a14610f53578063485cc95514610d4e5780634f1ef28614610abe57806352d1902d14610a475780635312ea8e1461099a5780635c975abb1461096b57806375b238fc146109315780638456cb59146108cc57806391d148541461087c578063a217fddf14610862578063ad3cb1cc146107c4578063b6549f7514610699578063cd3d4a021461042a578063d547741f146103e2578063dd19171914610283578063f0bd87cc14610249578063f5b541a61461020f5763f688bcfb14610127575f80fd5b3461020b57602036600319011261020b5761018960208335809461014c8215156111f3565b5f805486516323b872dd60e01b8152339381019384523060208501526040840194909452929485936001600160a01b031692849291839160600190565b03925af190811561020157906101a6915f916101d2575b50611257565b519081527f543ba50a5eec5e6178218e364b1d0f396157b3c8fa278522c2cb7fd99407d47460203392a2005b6101f4915060203d6020116101fa575b6101ec81836111a1565b81019061123f565b5f6101a0565b503d6101e2565b82513d5f823e3d90fd5b5f80fd5b503461020b575f36600319011261020b57602090517f97667070c54ef182b0f5858b034beac1b6f3089aa2d3188bb1e8929f4fa9b9298152f35b503461020b575f36600319011261020b57602090517ffbd454f36a7e1a388bd6fc3ab10d434aa4578f811acbbcf33afb1c697486313c8152f35b50903461020b575f36600319011261020b5761029d61130e565b5f5482516370a0823160e01b81523081840152916020916001600160a01b0316908284602481855afa9384156103d8575f946103a9575b50831561036d57845163a9059cbb60e01b8152339181019182526020820185905291839183919082905f90829060400103925af1908115610363577f5fafa99d0643513820be26656b45130b01e1c03062e1266bf36f88cbd3bd9695939491610343915f9161034c5750611257565b519283523392a2005b6101f49150843d86116101fa576101ec81836111a1565b84513d5f823e3d90fd5b845162461bcd60e51b815290810183905260166024820152754e6f2062616c616e636520746f20776974686472617760501b6044820152606490fd5b9093508281813d83116103d1575b6103c181836111a1565b8101031261020b5751925f6102d4565b503d6103b7565b85513d5f823e3d90fd5b503461020b578060031936011261020b5761042891356104236001610405611175565b93835f525f805160206117f88339815191526020525f200154611369565b61168a565b005b50903461020b57606036600319011261020b5761044561118b565b90602490813590610454611709565b7ffbd454f36a7e1a388bd6fc3ab10d434aa4578f811acbbcf33afb1c697486313c92835f526020935f805160206117f88339815191528552865f20335f52855260ff875f2054161561067e57506001600160a01b0385811695908615610645576104bf8515156111f3565b5f54169087516370a0823160e01b8152308582015286818581865afa801561063b5786915f9161060a575b50106105c857875163a9059cbb60e01b81526001600160a01b03909116848201908152602081018690529091869183919082905f90829060400103925af19081156105be575f916105a1575b50156105685750507fdaa5dd53a94da65ec015431e7c8356d60da8b913a9341b50594373b45b1bd4e1929351908152a2005b855162461bcd60e51b8152918201849052601490820152731554d110c81d1c985b9cd9995c8819985a5b195960621b6044820152606490fd5b6105b89150853d87116101fa576101ec81836111a1565b5f610536565b87513d5f823e3d90fd5b875162461bcd60e51b81528085018790526019818501527f496e73756666696369656e7420555344432062616c616e6365000000000000006044820152606490fd5b809250888092503d8311610634575b61062381836111a1565b8101031261020b578590515f6104ea565b503d610619565b89513d5f823e3d90fd5b875162461bcd60e51b815280850187905260148185015273496e76616c69642075736572206164647265737360601b6044820152606490fd5b6044929187519263e2517d3f60e01b84523390840152820152fd5b50903461020b575f36600319011261020b576106b3611709565b5f5482516370a0823160e01b81523381840152916020916001600160a01b0316908284602481855afa9384156103d8575f94610795575b50831561075e5784516323b872dd60e01b8152339181019182523060208301526040820185905291839183919082905f90829060600103925af1908115610363577e968244251c68c8cb216010217d2fbaec9de9a85edb99ca6c0481abdfa28d7c939491610343915f9161034c5750611257565b845162461bcd60e51b815290810183905260116024820152704e6f205553444320746f207265766f6b6560781b6044820152606490fd5b9093508281813d83116107bd575b6107ad81836111a1565b8101031261020b5751925f6106ea565b503d6107a3565b503461020b575f36600319011261020b578051918183019083821067ffffffffffffffff83111761084f57508152600582526020640352e302e360dc1b60208401528151928391602083528151918260208501525f5b8381106108395750505f83830185015250601f01601f19168101030190f35b818101830151878201870152869450820161081a565b604190634e487b7160e01b5f525260245ffd5b503461020b575f36600319011261020b57602090515f8152f35b503461020b578060031936011261020b57602091610898611175565b90355f525f805160206117f88339815191528352815f209060018060a01b03165f52825260ff815f20541690519015158152f35b503461020b575f36600319011261020b5760207f62e78cea01bee320cd4e420270b5ea74000d11b0c9f74754ebdbfc544b05a25891610909611295565b610911611709565b5f80516020611818833981519152805460ff1916600117905551338152a1005b503461020b575f36600319011261020b57602090517fa49807205ce4d355092ef5a8a18f56e8913cf4a201fbe287825b095693c217758152f35b503461020b575f36600319011261020b5760209060ff5f80516020611818833981519152541690519015158152f35b503461020b57602036600319011261020b576109ff6020833580946109bd61130e565b6109c88215156111f3565b5f8054865163a9059cbb60e01b8152339381019384526020840194909452929485936001600160a01b031692849291839160400190565b03925af19081156102015790610a1b915f916101d25750611257565b519081527f5fafa99d0643513820be26656b45130b01e1c03062e1266bf36f88cbd3bd969560203392a2005b503461020b575f36600319011261020b577f00000000000000000000000000000000000000000000000000000000000000006001600160a01b03163003610ab157602090517f360894a13ba1a3210667c828492db98dca3e2076cc3735a920a3ca505d382bbc8152f35b5163703e46dd60e11b8152fd5b50908160031936011261020b57610ad361118b565b602492833567ffffffffffffffff811161020b573660238201121561020b5780840135610aff816111d7565b93610b0c845195866111a1565b818552602091828601933689838301011161020b57815f928a8693018737870101526001600160a01b037f00000000000000000000000000000000000000000000000000000000000000008116308114908115610d20575b50610d10575f80525f805160206117f88339815191528352845f20335f52835260ff855f20541615610cf55781169484516352d1902d60e01b8152838189818a5afa5f9181610cc6575b50610bc95750505050505191634c9c8ce360e01b8352820152fd5b9087878794938b7f360894a13ba1a3210667c828492db98dca3e2076cc3735a920a3ca505d382bbc91828103610cb15750853b15610c9d575080546001600160a01b031916821790558451907fbc7cd75a20ee27fd9adebab32041f755214dbc6bffa90cc0225b39da2e5c2d3b5f80a2825115610c835750505f6104289581925190845af4913d15610c79573d610c6b610c62826111d7565b925192836111a1565b81525f81943d92013e611774565b5060609250611774565b9450945050505034610c9157005b63b398979f60e01b8152fd5b8651634c9c8ce360e01b8152808501849052fd5b8751632a87526960e21b815280860191909152fd5b9091508481813d8311610cee575b610cde81836111a1565b8101031261020b5751905f610bae565b503d610cd4565b845163e2517d3f60e01b815233818901525f818a0152604490fd5b845163703e46dd60e11b81528790fd5b9050817f360894a13ba1a3210667c828492db98dca3e2076cc3735a920a3ca505d382bbc541614155f610b64565b50903461020b578160031936011261020b57610d6861118b565b90610d71611175565b7ff0c57e16840df040f15088dc2f81fe391c3923bec73e23a9662efc9c229c6a009283549260ff84871c16159367ffffffffffffffff811680159081610f4b575b6001149081610f41575b159081610f38575b50610f295767ffffffffffffffff198116600117865584610f0a575b506001600160a01b03918216918215610ed057831615610e95575090610e5191610e08611733565b610e10611733565b610e18611733565b6bffffffffffffffffffffffff60a01b5f5416175f55610e3781611397565b50610e4181611421565b50610e4b816114ce565b50611574565b50610e5857005b805468ff00000000000000001916905551600181527fc7f505b2f371ae2175ee4913f4499e1f2633a7b5936321eed1cdaeb6115181d290602090a1005b606490602087519162461bcd60e51b83528201526015602482015274496e76616c69642061646d696e206164647265737360581b6044820152fd5b865162461bcd60e51b81526020818401526014602482015273496e76616c69642055534443206164647265737360601b6044820152606490fd5b68ffffffffffffffffff1916680100000000000000011785555f610de0565b50855163f92ee8a960e01b8152fd5b9050155f610dc4565b303b159150610dbc565b869150610db2565b503461020b575f36600319011261020b57610f6c611295565b5f805160206118188339815191529182549060ff821615610fba577f5db9ee0a495bf2e6ff9c91a7834c1ba4fdd244a5e8aa4e537bd38aeae4b073aa602084868560ff1916905551338152a1005b8251638dfc202b60e01b8152fd5b503461020b575f36600319011261020b575f5490516001600160a01b039091168152602090f35b503461020b575f36600319011261020b575f5481516370a0823160e01b81523093810193909352602090839060249082906001600160a01b03165afa908115611078575f91611043575b6020925051908152f35b90506020823d602011611070575b8161105e602093836111a1565b8101031261020b576020915190611039565b3d9150611051565b513d5f823e3d90fd5b503461020b578060031936011261020b5761109a611175565b90336001600160a01b038316036110b65750610428913561168a565b5163334bd91960e11b81529050fd5b503461020b578060031936011261020b5761042891356110e86001610405611175565b61161a565b503461020b57602036600319011261020b57602091355f525f805160206117f883398151915282526001815f2001549051908152f35b833461020b57602036600319011261020b57359063ffffffff60e01b821680920361020b57602091637965db0b60e01b8114908115611164575b5015158152f35b6301ffc9a760e01b1490508361115d565b602435906001600160a01b038216820361020b57565b600435906001600160a01b038216820361020b57565b90601f8019910116810190811067ffffffffffffffff8211176111c357604052565b634e487b7160e01b5f52604160045260245ffd5b67ffffffffffffffff81116111c357601f01601f191660200190565b156111fa57565b60405162461bcd60e51b815260206004820152601d60248201527f416d6f756e74206d7573742062652067726561746572207468616e20300000006044820152606490fd5b9081602091031261020b5751801515810361020b5790565b1561125e57565b60405162461bcd60e51b815260206004820152600f60248201526e151c985b9cd9995c8819985a5b1959608a1b6044820152606490fd5b335f9081527f448256db8f8fb95ee3eaaf89c1051414494e85cebb6057fcf996cc3d0ccfb45660205260409020547f97667070c54ef182b0f5858b034beac1b6f3089aa2d3188bb1e8929f4fa9b9299060ff16156112f05750565b6044906040519063e2517d3f60e01b82523360048301526024820152fd5b335f9081527fb16e88c42fd4e48df2dd6a2eabd6bc9aec654ec170056b470819f8892cc6431c60205260409020547fa49807205ce4d355092ef5a8a18f56e8913cf4a201fbe287825b095693c217759060ff16156112f05750565b805f525f805160206117f883398151915260205260405f20335f5260205260ff60405f205416156112f05750565b6001600160a01b03165f8181527fb7db2dd08fcb62d0c9e08c51941cae53c267786a0b75803fb7960902fc8ef97d60205260409020545f805160206117f88339815191529060ff1661141b575f805260205260405f20815f5260205260405f20600160ff1982541617905533905f5f805160206117d88339815191528180a4600190565b50505f90565b6001600160a01b03165f8181527fb16e88c42fd4e48df2dd6a2eabd6bc9aec654ec170056b470819f8892cc6431c60205260409020547fa49807205ce4d355092ef5a8a18f56e8913cf4a201fbe287825b095693c2177591905f805160206117f88339815191529060ff166114c757825f5260205260405f20815f5260205260405f20600160ff1982541617905533915f805160206117d88339815191525f80a4600190565b5050505f90565b6001600160a01b03165f8181527f448256db8f8fb95ee3eaaf89c1051414494e85cebb6057fcf996cc3d0ccfb45660205260409020547f97667070c54ef182b0f5858b034beac1b6f3089aa2d3188bb1e8929f4fa9b92991905f805160206117f88339815191529060ff166114c757825f5260205260405f20815f5260205260405f20600160ff1982541617905533915f805160206117d88339815191525f80a4600190565b6001600160a01b03165f8181527fb2ce6f3a0968c56a08b54f4f0d1d0af4871f2c3340441c6ce862aaa53c9d37c760205260409020547ffbd454f36a7e1a388bd6fc3ab10d434aa4578f811acbbcf33afb1c697486313c91905f805160206117f88339815191529060ff166114c757825f5260205260405f20815f5260205260405f20600160ff1982541617905533915f805160206117d88339815191525f80a4600190565b90815f525f805160206117f88339815191528060205260405f209160018060a01b031691825f5260205260ff60405f205416155f146114c757825f5260205260405f20815f5260205260405f20600160ff1982541617905533915f805160206117d88339815191525f80a4600190565b90815f525f805160206117f88339815191528060205260405f209160018060a01b031691825f5260205260ff60405f2054165f146114c757825f5260205260405f20815f5260205260405f2060ff19815416905533917ff6391f5c32d9c69d2a47ea670b442974b53935d1edc7fd64eb21e047a839171b5f80a4600190565b60ff5f80516020611818833981519152541661172157565b60405163d93c066560e01b8152600490fd5b60ff7ff0c57e16840df040f15088dc2f81fe391c3923bec73e23a9662efc9c229c6a005460401c161561176257565b604051631afcd79f60e31b8152600490fd5b9061179b575080511561178957602081519101fd5b60405163d6bda27560e01b8152600490fd5b815115806117ce575b6117ac575090565b604051639996b31560e01b81526001600160a01b039091166004820152602490fd5b50803b156117a456fe2f8788117e7eff1d82e926ec794901d17c78024a50270940304540a733656f0d02dd7bc7dec4dceedda775e58dd541e08a116c6c53815c0bd028192f7b626800cd5ed15c6e187e77e9aee88184c21f4f2182ab5827cb3b7e07fbedcd63f03300a2646970667358221220ccd075fdf80431bc7269dd660dcb983e28744cc204343286e4cd5f555d3238ad64736f6c63430008180033","linkReferences":{}},"methodIdentifiers":{"ADMIN_ROLE()":"75b238fc","DEFAULT_ADMIN_ROLE()":"a217fddf","DISTRIBUTOR_ROLE()":"f0bd87cc","OPERATOR_ROLE()":"f5b541a6","UPGRADE_INTERFACE_VERSION()":"ad3cb1cc","depositUSDC(uint256)":"f688bcfb","emergencyWithdraw(uint256)":"5312ea8e","emergencyWithdrawAll()":"dd191719","getRoleAdmin(bytes32)":"248a9ca3","getUSDCBalance()":"3cfd1ccc","grantRole(bytes32,address)":"2f2ff15d","hasRole(bytes32,address)":"91d14854","initialize(address,address)":"485cc955","pause()":"8456cb59","paused()":"5c975abb","paySongSubmitter(address,uint256,uint256)":"cd3d4a02","proxiableUUID()":"52d1902d","renounceRole(bytes32,address)":"36568abe","revoke()":"b6549f75","revokeRole(bytes32,address)":"d547741f","supportsInterface(bytes4)":"01ffc9a7","unpause()":"3f4ba83a","upgradeToAndCall(address,bytes)":"4f1ef286","usdc()":"3e413bee"},"id":44}