{"abi":[{"type":"constructor","inputs":[{"name":"_usdc","type":"address","internalType":"address"},{"name":"_admin","type":"address","internalType":"address"},{"name":"_initialPrice","type":"uint256","internalType":"uint256"}],"stateMutability":"nonpayable"},{"type":"function","name":"ADMIN_ROLE","inputs":[],"outputs":[{"name":"","type":"bytes32","internalType":"bytes32"}],"stateMutability":"view"},{"type":"function","name":"DEFAULT_ADMIN_ROLE","inputs":[],"outputs":[{"name":"","type":"bytes32","internalType":"bytes32"}],"stateMutability":"view"},{"type":"function","name":"OPERATOR_ROLE","inputs":[],"outputs":[{"name":"","type":"bytes32","internalType":"bytes32"}],"stateMutability":"view"},{"type":"function","name":"albumPrice","inputs":[],"outputs":[{"name":"","type":"uint256","internalType":"uint256"}],"stateMutability":"view"},{"type":"function","name":"buyAlbum","inputs":[],"outputs":[],"stateMutability":"nonpayable"},{"type":"function","name":"canBuy","inputs":[{"name":"buyer","type":"address","internalType":"address"}],"outputs":[{"name":"","type":"bool","internalType":"bool"}],"stateMutability":"view"},{"type":"function","name":"getBuyerInfo","inputs":[{"name":"buyer","type":"address","internalType":"address"}],"outputs":[{"name":"purchased","type":"bool","internalType":"bool"},{"name":"timestamp","type":"uint256","internalType":"uint256"}],"stateMutability":"view"},{"type":"function","name":"getContractBalance","inputs":[],"outputs":[{"name":"","type":"uint256","internalType":"uint256"}],"stateMutability":"view"},{"type":"function","name":"getRoleAdmin","inputs":[{"name":"role","type":"bytes32","internalType":"bytes32"}],"outputs":[{"name":"","type":"bytes32","internalType":"bytes32"}],"stateMutability":"view"},{"type":"function","name":"getStats","inputs":[],"outputs":[{"name":"price","type":"uint256","internalType":"uint256"},{"name":"purchases","type":"uint256","internalType":"uint256"},{"name":"revenue","type":"uint256","internalType":"uint256"},{"name":"balance","type":"uint256","internalType":"uint256"}],"stateMutability":"view"},{"type":"function","name":"grantRole","inputs":[{"name":"role","type":"bytes32","internalType":"bytes32"},{"name":"account","type":"address","internalType":"address"}],"outputs":[],"stateMutability":"nonpayable"},{"type":"function","name":"hasPurchased","inputs":[{"name":"","type":"address","internalType":"address"}],"outputs":[{"name":"","type":"bool","internalType":"bool"}],"stateMutability":"view"},{"type":"function","name":"hasRole","inputs":[{"name":"role","type":"bytes32","internalType":"bytes32"},{"name":"account","type":"address","internalType":"address"}],"outputs":[{"name":"","type":"bool","internalType":"bool"}],"stateMutability":"view"},{"type":"function","name":"pause","inputs":[],"outputs":[],"stateMutability":"nonpayable"},{"type":"function","name":"paused","inputs":[],"outputs":[{"name":"","type":"bool","internalType":"bool"}],"stateMutability":"view"},{"type":"function","name":"purchaseTimestamp","inputs":[{"name":"","type":"address","internalType":"address"}],"outputs":[{"name":"","type":"uint256","internalType":"uint256"}],"stateMutability":"view"},{"type":"function","name":"renounceRole","inputs":[{"name":"role","type":"bytes32","internalType":"bytes32"},{"name":"callerConfirmation","type":"address","internalType":"address"}],"outputs":[],"stateMutability":"nonpayable"},{"type":"function","name":"revokeRole","inputs":[{"name":"role","type":"bytes32","internalType":"bytes32"},{"name":"account","type":"address","internalType":"address"}],"outputs":[],"stateMutability":"nonpayable"},{"type":"function","name":"supportsInterface","inputs":[{"name":"interfaceId","type":"bytes4","internalType":"bytes4"}],"outputs":[{"name":"","type":"bool","internalType":"bool"}],"stateMutability":"view"},{"type":"function","name":"totalPurchases","inputs":[],"outputs":[{"name":"","type":"uint256","internalType":"uint256"}],"stateMutability":"view"},{"type":"function","name":"totalRevenue","inputs":[],"outputs":[{"name":"","type":"uint256","internalType":"uint256"}],"stateMutability":"view"},{"type":"function","name":"unpause","inputs":[],"outputs":[],"stateMutability":"nonpayable"},{"type":"function","name":"updatePrice","inputs":[{"name":"newPrice","type":"uint256","internalType":"uint256"}],"outputs":[],"stateMutability":"nonpayable"},{"type":"function","name":"usdc","inputs":[],"outputs":[{"name":"","type":"address","internalType":"contract IERC20"}],"stateMutability":"view"},{"type":"function","name":"withdrawAll","inputs":[{"name":"to","type":"address","internalType":"address"}],"outputs":[],"stateMutability":"nonpayable"},{"type":"function","name":"withdrawFunds","inputs":[{"name":"to","type":"address","internalType":"address"},{"name":"amount","type":"uint256","internalType":"uint256"}],"outputs":[],"stateMutability":"nonpayable"},{"type":"event","name":"AlbumPurchased","inputs":[{"name":"buyer","type":"address","indexed":true,"internalType":"address"},{"name":"price","type":"uint256","indexed":false,"internalType":"uint256"},{"name":"timestamp","type":"uint256","indexed":false,"internalType":"uint256"}],"anonymous":false},{"type":"event","name":"FundsWithdrawn","inputs":[{"name":"to","type":"address","indexed":true,"internalType":"address"},{"name":"amount","type":"uint256","indexed":false,"internalType":"uint256"}],"anonymous":false},{"type":"event","name":"Paused","inputs":[{"name":"account","type":"address","indexed":false,"internalType":"address"}],"anonymous":false},{"type":"event","name":"PriceUpdated","inputs":[{"name":"oldPrice","type":"uint256","indexed":false,"internalType":"uint256"},{"name":"newPrice","type":"uint256","indexed":false,"internalType":"uint256"}],"anonymous":false},{"type":"event","name":"RoleAdminChanged","inputs":[{"name":"role","type":"bytes32","indexed":true,"internalType":"bytes32"},{"name":"previousAdminRole","type":"bytes32","indexed":true,"internalType":"bytes32"},{"name":"newAdminRole","type":"bytes32","indexed":true,"internalType":"bytes32"}],"anonymous":false},{"type":"event","name":"RoleGranted","inputs":[{"name":"role","type":"bytes32","indexed":true,"internalType":"bytes32"},{"name":"account","type":"address","indexed":true,"internalType":"address"},{"name":"sender","type":"address","indexed":true,"internalType":"address"}],"anonymous":false},{"type":"event","name":"RoleRevoked","inputs":[{"name":"role","type":"bytes32","indexed":true,"internalType":"bytes32"},{"name":"account","type":"address","indexed":true,"internalType":"address"},{"name":"sender","type":"address","indexed":true,"internalType":"address"}],"anonymous":false},{"type":"event","name":"Unpaused","inputs":[{"name":"account","type":"address","indexed":false,"internalType":"address"}],"anonymous":false},{"type":"error","name":"AccessControlBadConfirmation","inputs":[]},{"type":"error","name":"AccessControlUnauthorizedAccount","inputs":[{"name":"account","type":"address","internalType":"address"},{"name":"neededRole","type":"bytes32","internalType":"bytes32"}]},{"type":"error","name":"EnforcedPause","inputs":[]},{"type":"error","name":"ExpectedPause","inputs":[]},{"type":"error","name":"ReentrancyGuardReentrantCall","inputs":[]}],"bytecode":{"object":"0x60a060405234801562000010575f80fd5b50604051620014eb380380620014eb833981016040819052620000339162000286565b600180556001600160a01b038316620000935760405162461bcd60e51b815260206004820152601460248201527f496e76616c69642055534443206164647265737300000000000000000000000060448201526064015b60405180910390fd5b6001600160a01b038216620000eb5760405162461bcd60e51b815260206004820152601560248201527f496e76616c69642061646d696e2061646472657373000000000000000000000060448201526064016200008a565b5f81116200013c5760405162461bcd60e51b815260206004820152601c60248201527f5072696365206d7573742062652067726561746572207468616e20300000000060448201526064016200008a565b6001600160a01b03831660805260038190556200015a5f83620001be565b50620001877fa49807205ce4d355092ef5a8a18f56e8913cf4a201fbe287825b095693c2177583620001be565b50620001b47f97667070c54ef182b0f5858b034beac1b6f3089aa2d3188bb1e8929f4fa9b92983620001be565b50505050620002c4565b5f828152602081815260408083206001600160a01b038516845290915281205460ff1662000261575f838152602081815260408083206001600160a01b03861684529091529020805460ff19166001179055620002183390565b6001600160a01b0316826001600160a01b0316847f2f8788117e7eff1d82e926ec794901d17c78024a50270940304540a733656f0d60405160405180910390a450600162000264565b505f5b92915050565b80516001600160a01b038116811462000281575f80fd5b919050565b5f805f6060848603121562000299575f80fd5b620002a4846200026a565b9250620002b4602085016200026a565b9150604084015190509250925092565b6080516111dd6200030e5f395f8181610223015281816104fe0152818161060201528181610915015281816109f201528181610af101528181610bfc0152610d2501526111dd5ff3fe608060405234801561000f575f80fd5b5060043610610187575f3560e01c80638456cb59116100d9578063a217fddf11610093578063c59d48471161006e578063c59d48471461039b578063d547741f146103c3578063f5b541a6146103d6578063fa09e630146103ea575f80fd5b8063a217fddf14610378578063bf2d9e0b1461037f578063c107532914610388575f80fd5b80638456cb59146102cf5780638d6cc56d146102d757806390118fb4146102ea57806391d148541461030c5780639d03ade91461031f5780639d79b5541461036f575f80fd5b80633f4ba83a116101445780636f9fb98a1161011f5780636f9fb98a1461027957806373f2524b1461028157806375b238fc1461028957806376755118146102b0575f80fd5b80633f4ba83a1461025d5780635962a941146102655780635c975abb1461026e575f80fd5b806301ffc9a71461018b5780630808f3eb146101b3578063248a9ca3146101c65780632f2ff15d146101f657806336568abe1461020b5780633e413bee1461021e575b5f80fd5b61019e610199366004611047565b6103fd565b60405190151581526020015b60405180910390f35b61019e6101c1366004611090565b610433565b6101e86101d43660046110a9565b5f9081526020819052604090206001015490565b6040519081526020016101aa565b6102096102043660046110c0565b610463565b005b6102096102193660046110c0565b61048d565b6102457f000000000000000000000000000000000000000000000000000000000000000081565b6040516001600160a01b0390911681526020016101aa565b6102096104c5565b6101e860045481565b60025460ff1661019e565b6101e86104e7565b610209610574565b6101e87fa49807205ce4d355092ef5a8a18f56e8913cf4a201fbe287825b095693c2177581565b6101e86102be366004611090565b60076020525f908152604090205481565b61020961074a565b6102096102e53660046110a9565b610769565b61019e6102f8366004611090565b60066020525f908152604090205460ff1681565b61019e61031a3660046110c0565b610815565b61035861032d366004611090565b6001600160a01b03165f9081526006602090815260408083205460079092529091205460ff90911691565b6040805192151583526020830191909152016101aa565b6101e860035481565b6101e85f81565b6101e860055481565b6102096103963660046110ea565b61083d565b6103a3610ae2565b6040805194855260208501939093529183015260608201526080016101aa565b6102096103d13660046110c0565b610b97565b6101e85f8051602061118883398151915281565b6102096103f8366004611090565b610bbb565b5f6001600160e01b03198216637965db0b60e01b148061042d57506301ffc9a760e01b6001600160e01b03198316145b92915050565b6001600160a01b0381165f9081526006602052604081205460ff1615801561042d575060025460ff161592915050565b5f8281526020819052604090206001015461047d81610e08565b6104878383610e12565b50505050565b6001600160a01b03811633146104b65760405163334bd91960e11b815260040160405180910390fd5b6104c08282610ea1565b505050565b5f805160206111888339815191526104dc81610e08565b6104e4610f0a565b50565b6040516370a0823160e01b81523060048201525f907f00000000000000000000000000000000000000000000000000000000000000006001600160a01b0316906370a0823190602401602060405180830381865afa15801561054b573d5f803e3d5ffd5b505050506040513d601f19601f8201168201806040525081019061056f9190611112565b905090565b61057c610f5c565b610584610f86565b335f9081526006602052604090205460ff16156105dc5760405162461bcd60e51b8152602060048201526011602482015270105b1c9958591e481c1d5c98da185cd959607a1b60448201526064015b60405180910390fd5b6003546040516323b872dd60e01b815233600482015230602482015260448101919091527f00000000000000000000000000000000000000000000000000000000000000006001600160a01b0316906323b872dd906064016020604051808303815f875af1158015610650573d5f803e3d5ffd5b505050506040513d601f19601f820116820180604052508101906106749190611129565b6106b15760405162461bcd60e51b815260206004820152600e60248201526d14185e5b595b9d0819985a5b195960921b60448201526064016105d3565b335f908152600660209081526040808320805460ff191660011790556007909152812042905560048054916106e58361115c565b919050555060035460055f8282546106fd9190611174565b90915550506003546040805191825242602083015233917f2ac4a21a8fc7d4887e29ada810b67fdc99d38edd71b34a21653694b2f8e1a41b910160405180910390a261074860018055565b565b5f8051602061118883398151915261076181610e08565b6104e4610faa565b5f8051602061118883398151915261078081610e08565b5f82116107cf5760405162461bcd60e51b815260206004820152601c60248201527f5072696365206d7573742062652067726561746572207468616e20300000000060448201526064016105d3565b600380549083905560408051828152602081018590527f945c1c4e99aa89f648fbfe3df471b916f719e16d960fcec0737d4d56bd696838910160405180910390a1505050565b5f918252602082815260408084206001600160a01b0393909316845291905290205460ff1690565b7fa49807205ce4d355092ef5a8a18f56e8913cf4a201fbe287825b095693c2177561086781610e08565b6001600160a01b0383166108b15760405162461bcd60e51b8152602060048201526011602482015270125b9d985b1a59081c9958da5c1a595b9d607a1b60448201526064016105d3565b5f82116109005760405162461bcd60e51b815260206004820152601d60248201527f416d6f756e74206d7573742062652067726561746572207468616e203000000060448201526064016105d3565b6040516370a0823160e01b81523060048201527f00000000000000000000000000000000000000000000000000000000000000006001600160a01b0316906370a0823190602401602060405180830381865afa158015610962573d5f803e3d5ffd5b505050506040513d601f19601f820116820180604052508101906109869190611112565b8211156109cc5760405162461bcd60e51b8152602060048201526014602482015273496e73756666696369656e742062616c616e636560601b60448201526064016105d3565b60405163a9059cbb60e01b81526001600160a01b038481166004830152602482018490527f0000000000000000000000000000000000000000000000000000000000000000169063a9059cbb906044016020604051808303815f875af1158015610a38573d5f803e3d5ffd5b505050506040513d601f19601f82011682018060405250810190610a5c9190611129565b610a9a5760405162461bcd60e51b815260206004820152600f60248201526e15da5d1a191c985dc819985a5b1959608a1b60448201526064016105d3565b826001600160a01b03167feaff4b37086828766ad3268786972c0cd24259d4c87a80f9d3963a3c3d999b0d83604051610ad591815260200190565b60405180910390a2505050565b5f805f806003546004546005547f00000000000000000000000000000000000000000000000000000000000000006001600160a01b03166370a08231306040518263ffffffff1660e01b8152600401610b4a91906001600160a01b0391909116815260200190565b602060405180830381865afa158015610b65573d5f803e3d5ffd5b505050506040513d601f19601f82011682018060405250810190610b899190611112565b935093509350935090919293565b5f82815260208190526040902060010154610bb181610e08565b6104878383610ea1565b7fa49807205ce4d355092ef5a8a18f56e8913cf4a201fbe287825b095693c21775610be581610e08565b6040516370a0823160e01b81523060048201525f907f00000000000000000000000000000000000000000000000000000000000000006001600160a01b0316906370a0823190602401602060405180830381865afa158015610c49573d5f803e3d5ffd5b505050506040513d601f19601f82011682018060405250810190610c6d9190611112565b90505f8111610cb55760405162461bcd60e51b81526020600482015260146024820152734e6f2066756e647320746f20776974686472617760601b60448201526064016105d3565b6001600160a01b038316610cff5760405162461bcd60e51b8152602060048201526011602482015270125b9d985b1a59081c9958da5c1a595b9d607a1b60448201526064016105d3565b60405163a9059cbb60e01b81526001600160a01b038481166004830152602482018390527f0000000000000000000000000000000000000000000000000000000000000000169063a9059cbb906044016020604051808303815f875af1158015610d6b573d5f803e3d5ffd5b505050506040513d601f19601f82011682018060405250810190610d8f9190611129565b610dcd5760405162461bcd60e51b815260206004820152600f60248201526e15da5d1a191c985dc819985a5b1959608a1b60448201526064016105d3565b826001600160a01b03167feaff4b37086828766ad3268786972c0cd24259d4c87a80f9d3963a3c3d999b0d82604051610ad591815260200190565b6104e48133610fe7565b5f610e1d8383610815565b610e9a575f838152602081815260408083206001600160a01b03861684529091529020805460ff19166001179055610e523390565b6001600160a01b0316826001600160a01b0316847f2f8788117e7eff1d82e926ec794901d17c78024a50270940304540a733656f0d60405160405180910390a450600161042d565b505f61042d565b5f610eac8383610815565b15610e9a575f838152602081815260408083206001600160a01b0386168085529252808320805460ff1916905551339286917ff6391f5c32d9c69d2a47ea670b442974b53935d1edc7fd64eb21e047a839171b9190a450600161042d565b610f12611024565b6002805460ff191690557f5db9ee0a495bf2e6ff9c91a7834c1ba4fdd244a5e8aa4e537bd38aeae4b073aa335b6040516001600160a01b03909116815260200160405180910390a1565b600260015403610f7f57604051633ee5aeb560e01b815260040160405180910390fd5b6002600155565b60025460ff16156107485760405163d93c066560e01b815260040160405180910390fd5b610fb2610f86565b6002805460ff191660011790557f62e78cea01bee320cd4e420270b5ea74000d11b0c9f74754ebdbfc544b05a258610f3f3390565b610ff18282610815565b6110205760405163e2517d3f60e01b81526001600160a01b0382166004820152602481018390526044016105d3565b5050565b60025460ff1661074857604051638dfc202b60e01b815260040160405180910390fd5b5f60208284031215611057575f80fd5b81356001600160e01b03198116811461106e575f80fd5b9392505050565b80356001600160a01b038116811461108b575f80fd5b919050565b5f602082840312156110a0575f80fd5b61106e82611075565b5f602082840312156110b9575f80fd5b5035919050565b5f80604083850312156110d1575f80fd5b823591506110e160208401611075565b90509250929050565b5f80604083850312156110fb575f80fd5b61110483611075565b946020939093013593505050565b5f60208284031215611122575f80fd5b5051919050565b5f60208284031215611139575f80fd5b8151801515811461106e575f80fd5b634e487b7160e01b5f52601160045260245ffd5b5f6001820161116d5761116d611148565b5060010190565b8082018082111561042d5761042d61114856fe97667070c54ef182b0f5858b034beac1b6f3089aa2d3188bb1e8929f4fa9b929a2646970667358221220d1efa323a51dfddc443b11ba5cf2744e76ce6748e0a5c47e707f4290cc29ae3364736f6c63430008180033","linkReferences":{}},"methodIdentifiers":{"ADMIN_ROLE()":"75b238fc","DEFAULT_ADMIN_ROLE()":"a217fddf","OPERATOR_ROLE()":"f5b541a6","albumPrice()":"9d79b554","buyAlbum()":"73f2524b","canBuy(address)":"0808f3eb","getBuyerInfo(address)":"9d03ade9","getContractBalance()":"6f9fb98a","getRoleAdmin(bytes32)":"248a9ca3","getStats()":"c59d4847","grantRole(bytes32,address)":"2f2ff15d","hasPurchased(address)":"90118fb4","hasRole(bytes32,address)":"91d14854","pause()":"8456cb59","paused()":"5c975abb","purchaseTimestamp(address)":"76755118","renounceRole(bytes32,address)":"36568abe","revokeRole(bytes32,address)":"d547741f","supportsInterface(bytes4)":"01ffc9a7","totalPurchases()":"5962a941","totalRevenue()":"bf2d9e0b","unpause()":"3f4ba83a","updatePrice(uint256)":"8d6cc56d","usdc()":"3e413bee","withdrawAll(address)":"fa09e630","withdrawFunds(address,uint256)":"c1075329"},"id":31}