{"abi":[{"type":"constructor","inputs":[],"stateMutability":"nonpayable"},{"type":"function","name":"ADMIN_ROLE","inputs":[],"outputs":[{"name":"","type":"bytes32","internalType":"bytes32"}],"stateMutability":"view"},{"type":"function","name":"DEFAULT_ADMIN_ROLE","inputs":[],"outputs":[{"name":"","type":"bytes32","internalType":"bytes32"}],"stateMutability":"view"},{"type":"function","name":"DISTRIBUTOR_ROLE","inputs":[],"outputs":[{"name":"","type":"bytes32","internalType":"bytes32"}],"stateMutability":"view"},{"type":"function","name":"OPERATOR_ROLE","inputs":[],"outputs":[{"name":"","type":"bytes32","internalType":"bytes32"}],"stateMutability":"view"},{"type":"function","name":"UPGRADE_INTERFACE_VERSION","inputs":[],"outputs":[{"name":"","type":"string","internalType":"string"}],"stateMutability":"view"},{"type":"function","name":"canFund","inputs":[{"name":"usdcAmount","type":"uint256","internalType":"uint256"},{"name":"nativeAmount","type":"uint256","internalType":"uint256"}],"outputs":[{"name":"","type":"bool","internalType":"bool"}],"stateMutability":"view"},{"type":"function","name":"claimAmountFromStore","inputs":[{"name":"amount","type":"uint256","internalType":"uint256"}],"outputs":[],"stateMutability":"nonpayable"},{"type":"function","name":"claimFromStore","inputs":[],"outputs":[],"stateMutability":"nonpayable"},{"type":"function","name":"depositFunds","inputs":[{"name":"usdcAmount","type":"uint256","internalType":"uint256"},{"name":"nativeAmount","type":"uint256","internalType":"uint256"}],"outputs":[],"stateMutability":"nonpayable"},{"type":"function","name":"emergencyWithdraw","inputs":[{"name":"token","type":"address","internalType":"address"},{"name":"to","type":"address","internalType":"address"},{"name":"amount","type":"uint256","internalType":"uint256"}],"outputs":[],"stateMutability":"nonpayable"},{"type":"function","name":"getBalances","inputs":[],"outputs":[{"name":"usdcBalance","type":"uint256","internalType":"uint256"},{"name":"nativeBalance","type":"uint256","internalType":"uint256"}],"stateMutability":"view"},{"type":"function","name":"getRoleAdmin","inputs":[{"name":"role","type":"bytes32","internalType":"bytes32"}],"outputs":[{"name":"","type":"bytes32","internalType":"bytes32"}],"stateMutability":"view"},{"type":"function","name":"getStats","inputs":[],"outputs":[{"name":"usersPaid","type":"uint256","internalType":"uint256"},{"name":"usdcDistributed","type":"uint256","internalType":"uint256"},{"name":"nativeDistributed","type":"uint256","internalType":"uint256"},{"name":"claimedFromStore","type":"uint256","internalType":"uint256"},{"name":"currentUsdcBalance","type":"uint256","internalType":"uint256"},{"name":"currentNativeBalance","type":"uint256","internalType":"uint256"}],"stateMutability":"view"},{"type":"function","name":"getStoreBalance","inputs":[],"outputs":[{"name":"","type":"uint256","internalType":"uint256"}],"stateMutability":"view"},{"type":"function","name":"getUserPaymentInfo","inputs":[{"name":"user","type":"address","internalType":"address"}],"outputs":[{"name":"timestamp","type":"uint256","internalType":"uint256"},{"name":"usdcReceived","type":"uint256","internalType":"uint256"},{"name":"nativeReceived","type":"uint256","internalType":"uint256"}],"stateMutability":"view"},{"type":"function","name":"grantRole","inputs":[{"name":"role","type":"bytes32","internalType":"bytes32"},{"name":"account","type":"address","internalType":"address"}],"outputs":[],"stateMutability":"nonpayable"},{"type":"function","name":"hasRole","inputs":[{"name":"role","type":"bytes32","internalType":"bytes32"},{"name":"account","type":"address","internalType":"address"}],"outputs":[{"name":"","type":"bool","internalType":"bool"}],"stateMutability":"view"},{"type":"function","name":"initialize","inputs":[{"name":"_usdc","type":"address","internalType":"address"},{"name":"_nativeToken","type":"address","internalType":"address"},{"name":"_admin","type":"address","internalType":"address"},{"name":"_storeContract","type":"address","internalType":"address"}],"outputs":[],"stateMutability":"nonpayable"},{"type":"function","name":"nativePaid","inputs":[{"name":"","type":"address","internalType":"address"}],"outputs":[{"name":"","type":"uint256","internalType":"uint256"}],"stateMutability":"view"},{"type":"function","name":"nativeToken","inputs":[],"outputs":[{"name":"","type":"address","internalType":"contract IERC20"}],"stateMutability":"view"},{"type":"function","name":"pause","inputs":[],"outputs":[],"stateMutability":"nonpayable"},{"type":"function","name":"paused","inputs":[],"outputs":[{"name":"","type":"bool","internalType":"bool"}],"stateMutability":"view"},{"type":"function","name":"payCatFeeder","inputs":[{"name":"user","type":"address","internalType":"address"},{"name":"usdcAmount","type":"uint256","internalType":"uint256"},{"name":"nativeAmount","type":"uint256","internalType":"uint256"}],"outputs":[],"stateMutability":"nonpayable"},{"type":"function","name":"proxiableUUID","inputs":[],"outputs":[{"name":"","type":"bytes32","internalType":"bytes32"}],"stateMutability":"view"},{"type":"function","name":"renounceRole","inputs":[{"name":"role","type":"bytes32","internalType":"bytes32"},{"name":"callerConfirmation","type":"address","internalType":"address"}],"outputs":[],"stateMutability":"nonpayable"},{"type":"function","name":"revokeRole","inputs":[{"name":"role","type":"bytes32","internalType":"bytes32"},{"name":"account","type":"address","internalType":"address"}],"outputs":[],"stateMutability":"nonpayable"},{"type":"function","name":"setTokens","inputs":[{"name":"_usdc","type":"address","internalType":"address"},{"name":"_nativeToken","type":"address","internalType":"address"}],"outputs":[],"stateMutability":"nonpayable"},{"type":"function","name":"storeContract","inputs":[],"outputs":[{"name":"","type":"address","internalType":"contract IStore"}],"stateMutability":"view"},{"type":"function","name":"supportsInterface","inputs":[{"name":"interfaceId","type":"bytes4","internalType":"bytes4"}],"outputs":[{"name":"","type":"bool","internalType":"bool"}],"stateMutability":"view"},{"type":"function","name":"totalClaimedFromStore","inputs":[],"outputs":[{"name":"","type":"uint256","internalType":"uint256"}],"stateMutability":"view"},{"type":"function","name":"totalNativeDistributed","inputs":[],"outputs":[{"name":"","type":"uint256","internalType":"uint256"}],"stateMutability":"view"},{"type":"function","name":"totalUsdcDistributed","inputs":[],"outputs":[{"name":"","type":"uint256","internalType":"uint256"}],"stateMutability":"view"},{"type":"function","name":"totalUsersPaid","inputs":[],"outputs":[{"name":"","type":"uint256","internalType":"uint256"}],"stateMutability":"view"},{"type":"function","name":"unpause","inputs":[],"outputs":[],"stateMutability":"nonpayable"},{"type":"function","name":"updateStoreContract","inputs":[{"name":"_storeContract","type":"address","internalType":"address"}],"outputs":[],"stateMutability":"nonpayable"},{"type":"function","name":"upgradeToAndCall","inputs":[{"name":"newImplementation","type":"address","internalType":"address"},{"name":"data","type":"bytes","internalType":"bytes"}],"outputs":[],"stateMutability":"payable"},{"type":"function","name":"usdc","inputs":[],"outputs":[{"name":"","type":"address","internalType":"contract IERC20"}],"stateMutability":"view"},{"type":"function","name":"usdcPaid","inputs":[{"name":"","type":"address","internalType":"address"}],"outputs":[{"name":"","type":"uint256","internalType":"uint256"}],"stateMutability":"view"},{"type":"function","name":"userPaymentTimestamp","inputs":[{"name":"","type":"address","internalType":"address"}],"outputs":[{"name":"","type":"uint256","internalType":"uint256"}],"stateMutability":"view"},{"type":"event","name":"CatFeederPaid","inputs":[{"name":"user","type":"address","indexed":true,"internalType":"address"},{"name":"usdcAmount","type":"uint256","indexed":false,"internalType":"uint256"},{"name":"nativeAmount","type":"uint256","indexed":false,"internalType":"uint256"},{"name":"timestamp","type":"uint256","indexed":false,"internalType":"uint256"}],"anonymous":false},{"type":"event","name":"ClaimedFromStore","inputs":[{"name":"amount","type":"uint256","indexed":false,"internalType":"uint256"},{"name":"timestamp","type":"uint256","indexed":false,"internalType":"uint256"}],"anonymous":false},{"type":"event","name":"EmergencyWithdraw","inputs":[{"name":"to","type":"address","indexed":true,"internalType":"address"},{"name":"token","type":"address","indexed":false,"internalType":"address"},{"name":"amount","type":"uint256","indexed":false,"internalType":"uint256"}],"anonymous":false},{"type":"event","name":"FundsDeposited","inputs":[{"name":"from","type":"address","indexed":true,"internalType":"address"},{"name":"usdcAmount","type":"uint256","indexed":false,"internalType":"uint256"},{"name":"nativeAmount","type":"uint256","indexed":false,"internalType":"uint256"}],"anonymous":false},{"type":"event","name":"Initialized","inputs":[{"name":"version","type":"uint64","indexed":false,"internalType":"uint64"}],"anonymous":false},{"type":"event","name":"Paused","inputs":[{"name":"account","type":"address","indexed":false,"internalType":"address"}],"anonymous":false},{"type":"event","name":"RoleAdminChanged","inputs":[{"name":"role","type":"bytes32","indexed":true,"internalType":"bytes32"},{"name":"previousAdminRole","type":"bytes32","indexed":true,"internalType":"bytes32"},{"name":"newAdminRole","type":"bytes32","indexed":true,"internalType":"bytes32"}],"anonymous":false},{"type":"event","name":"RoleGranted","inputs":[{"name":"role","type":"bytes32","indexed":true,"internalType":"bytes32"},{"name":"account","type":"address","indexed":true,"internalType":"address"},{"name":"sender","type":"address","indexed":true,"internalType":"address"}],"anonymous":false},{"type":"event","name":"RoleRevoked","inputs":[{"name":"role","type":"bytes32","indexed":true,"internalType":"bytes32"},{"name":"account","type":"address","indexed":true,"internalType":"address"},{"name":"sender","type":"address","indexed":true,"internalType":"address"}],"anonymous":false},{"type":"event","name":"StoreContractUpdated","inputs":[{"name":"oldStore","type":"address","indexed":false,"internalType":"address"},{"name":"newStore","type":"address","indexed":false,"internalType":"address"}],"anonymous":false},{"type":"event","name":"Unpaused","inputs":[{"name":"account","type":"address","indexed":false,"internalType":"address"}],"anonymous":false},{"type":"event","name":"Upgraded","inputs":[{"name":"implementation","type":"address","indexed":true,"internalType":"address"}],"anonymous":false},{"type":"error","name":"AccessControlBadConfirmation","inputs":[]},{"type":"error","name":"AccessControlUnauthorizedAccount","inputs":[{"name":"account","type":"address","internalType":"address"},{"name":"neededRole","type":"bytes32","internalType":"bytes32"}]},{"type":"error","name":"AddressEmptyCode","inputs":[{"name":"target","type":"address","internalType":"address"}]},{"type":"error","name":"ERC1967InvalidImplementation","inputs":[{"name":"implementation","type":"address","internalType":"address"}]},{"type":"error","name":"ERC1967NonPayable","inputs":[]},{"type":"error","name":"EnforcedPause","inputs":[]},{"type":"error","name":"ExpectedPause","inputs":[]},{"type":"error","name":"FailedCall","inputs":[]},{"type":"error","name":"InvalidInitialization","inputs":[]},{"type":"error","name":"NotInitializing","inputs":[]},{"type":"error","name":"ReentrancyGuardReentrantCall","inputs":[]},{"type":"error","name":"UUPSUnauthorizedCallContext","inputs":[]},{"type":"error","name":"UUPSUnsupportedProxiableUUID","inputs":[{"name":"slot","type":"bytes32","internalType":"bytes32"}]}],"bytecode":{"object":"0x60a06040523060805234801562000014575f80fd5b506200001f62000025565b620000d9565b7ff0c57e16840df040f15088dc2f81fe391c3923bec73e23a9662efc9c229c6a00805468010000000000000000900460ff1615620000765760405163f92ee8a960e01b815260040160405180910390fd5b80546001600160401b0390811614620000d65780546001600160401b0319166001600160401b0390811782556040519081527fc7f505b2f371ae2175ee4913f4499e1f2633a7b5936321eed1cdaeb6115181d29060200160405180910390a15b50565b608051612aa8620001005f395f818161219f015281816121c801526123090152612aa85ff3fe608060405260043610610227575f3560e01c806365038ad911610129578063cbc7854e116100a8578063f05fae681161006d578063f05fae68146106d3578063f0bd87cc146106e7578063f3cf03761461071a578063f5b541a614610739578063f8c8765e14610759575f80fd5b8063cbc7854e1461062c578063d547741f1461064b578063e1758bd81461066a578063e55a2e1b14610689578063e63ea408146106b4575f80fd5b80639c2829ac116100ee5780639c2829ac14610571578063a217fddf14610586578063a36ad92d14610599578063ad3cb1cc146105ae578063c59d4847146105eb575f80fd5b806365038ad91461048d57806375b238fc146104b85780638456cb59146104d857806391d14854146104ec5780639afb03f11461050b575f80fd5b80633e413bee116101b55780634f1ef2861161017a5780634f1ef2861461040f57806352d1902d1461042257806353d3ee59146104365780635c975abb1461044b57806361638ed51461046e575f80fd5b80633e413bee146103725780633f4ba83a146103a8578063444744ed146103bc5780634776c33d146103db5780634802d347146103fa575f80fd5b8063248a9ca3116101fb578063248a9ca3146102e05780632a7b4e0c146102ff5780632f2ff15d14610320578063304fe42d1461033f57806336568abe14610353575f80fd5b8062113e081461022b57806301ffc9a71461025957806309f7fc7a1461028857806323a96191146102c1575b5f80fd5b348015610236575f80fd5b5061023f610778565b604080519283526020830191909152015b60405180910390f35b348015610264575f80fd5b5061027861027336600461264d565b610854565b6040519015158152602001610250565b348015610293575f80fd5b506102b36102a236600461268f565b60086020525f908152604090205481565b604051908152602001610250565b3480156102cc575f80fd5b506102786102db3660046126a8565b61088a565b3480156102eb575f80fd5b506102b36102fa3660046126c8565b6109bb565b34801561030a575f80fd5b5061031e61031936600461268f565b6109db565b005b34801561032b575f80fd5b5061031e61033a3660046126df565b610aaf565b34801561034a575f80fd5b5061031e610ad1565b34801561035e575f80fd5b5061031e61036d3660046126df565b610d53565b34801561037d575f80fd5b505f54610390906001600160a01b031681565b6040516001600160a01b039091168152602001610250565b3480156103b3575f80fd5b5061031e610d8b565b3480156103c7575f80fd5b5061031e6103d6366004612709565b610dad565b3480156103e6575f80fd5b5061031e6103f53660046126c8565b610eaf565b348015610405575f80fd5b506102b360065481565b61031e61041d36600461274d565b611186565b34801561042d575f80fd5b506102b36111a5565b348015610441575f80fd5b506102b360035481565b348015610456575f80fd5b505f80516020612a138339815191525460ff16610278565b348015610479575f80fd5b5061031e6104883660046126a8565b6111c0565b348015610498575f80fd5b506102b36104a736600461268f565b60096020525f908152604090205481565b3480156104c3575f80fd5b506102b35f80516020612a5383398151915281565b3480156104e3575f80fd5b5061031e6113d9565b3480156104f7575f80fd5b506102786105063660046126df565b6113f8565b348015610516575f80fd5b5061055661052536600461268f565b6001600160a01b03165f90815260076020908152604080832054600883528184205460099093529220549192909190565b60408051938452602084019290925290820152606001610250565b34801561057c575f80fd5b506102b360055481565b348015610591575f80fd5b506102b35f81565b3480156105a4575f80fd5b506102b360045481565b3480156105b9575f80fd5b506105de604051806040016040528060058152602001640352e302e360dc1b81525081565b604051610250919061282b565b3480156105f6575f80fd5b506105ff61142e565b604080519687526020870195909552938501929092526060840152608083015260a082015260c001610250565b348015610637575f80fd5b5061031e61064636600461285d565b611532565b348015610656575f80fd5b5061031e6106653660046126df565b6115a4565b348015610675575f80fd5b50600154610390906001600160a01b031681565b348015610694575f80fd5b506102b36106a336600461268f565b60076020525f908152604090205481565b3480156106bf575f80fd5b5061031e6106ce366004612885565b6115c0565b3480156106de575f80fd5b506102b3611828565b3480156106f2575f80fd5b506102b37ffbd454f36a7e1a388bd6fc3ab10d434aa4578f811acbbcf33afb1c697486313c81565b348015610725575f80fd5b50600254610390906001600160a01b031681565b348015610744575f80fd5b506102b35f805160206129d383398151915281565b348015610764575f80fd5b5061031e6107733660046128be565b611898565b5f80546040516370a0823160e01b815230600482015282916001600160a01b0316906370a0823190602401602060405180830381865afa1580156107be573d5f803e3d5ffd5b505050506040513d601f19601f820116820180604052508101906107e2919061290f565b6001546040516370a0823160e01b81523060048201526001600160a01b03909116906370a0823190602401602060405180830381865afa158015610828573d5f803e3d5ffd5b505050506040513d601f19601f8201168201806040525081019061084c919061290f565b915091509091565b5f6001600160e01b03198216637965db0b60e01b148061088457506301ffc9a760e01b6001600160e01b03198316145b92915050565b5f6108a35f80516020612a138339815191525460ff1690565b156108af57505f610884565b5f8311801561092457505f546040516370a0823160e01b815230600482015284916001600160a01b0316906370a0823190602401602060405180830381865afa1580156108fe573d5f803e3d5ffd5b505050506040513d601f19601f82011682018060405250810190610922919061290f565b105b1561093057505f610884565b5f821180156109a657506001546040516370a0823160e01b815230600482015283916001600160a01b0316906370a0823190602401602060405180830381865afa158015610980573d5f803e3d5ffd5b505050506040513d601f19601f820116820180604052508101906109a4919061290f565b105b156109b257505f610884565b50600192915050565b5f9081525f805160206129f3833981519152602052604090206001015490565b5f80516020612a538339815191526109f281611b90565b6001600160a01b038216610a4d5760405162461bcd60e51b815260206004820152601e60248201527f496e76616c69642073746f726520636f6e74726163742061646472657373000060448201526064015b60405180910390fd5b600280546001600160a01b038481166001600160a01b031983168117909355604080519190921680825260208201939093527f262ba5236d75b26840517352508235f8f61948c829b770c22302ae96d923dc30910160405180910390a1505050565b610ab8826109bb565b610ac181611b90565b610acb8383611b9a565b50505050565b610ad9611c3b565b5f805160206129d3833981519152610af081611b90565b600254604080516337cfdcc560e11b815290515f926001600160a01b031691636f9fb98a9160048083019260209291908290030181865afa158015610b37573d5f803e3d5ffd5b505050506040513d601f19601f82011682018060405250810190610b5b919061290f565b90505f8111610bac5760405162461bcd60e51b815260206004820152601c60248201527f4e6f2066756e647320746f20636c61696d2066726f6d2073746f7265000000006044820152606401610a44565b5f80546040516370a0823160e01b81523060048201526001600160a01b03909116906370a0823190602401602060405180830381865afa158015610bf2573d5f803e3d5ffd5b505050506040513d601f19601f82011682018060405250810190610c16919061290f565b600254604051630fa09e6360e41b81523060048201529192506001600160a01b03169063fa09e630906024015f604051808303815f87803b158015610c59575f80fd5b505af1158015610c6b573d5f803e3d5ffd5b50505f80546040516370a0823160e01b81523060048201529193506001600160a01b031691506370a0823190602401602060405180830381865afa158015610cb5573d5f803e3d5ffd5b505050506040513d601f19601f82011682018060405250810190610cd9919061290f565b90505f610ce6838361293a565b90508060065f828254610cf9919061294d565b9091555050604080518281524260208201527fcd48cdf74df877e6c8fc2899bcd42a3b8f7942bd8373bdc650f88d98d8a2ba81910160405180910390a15050505050610d5160015f80516020612a3383398151915255565b565b6001600160a01b0381163314610d7c5760405163334bd91960e11b815260040160405180910390fd5b610d868282611c85565b505050565b5f805160206129d3833981519152610da281611b90565b610daa611cfe565b50565b610db5611c3b565b610dbd611d5d565b7ffbd454f36a7e1a388bd6fc3ab10d434aa4578f811acbbcf33afb1c697486313c610de781611b90565b6001600160a01b038416610e345760405162461bcd60e51b8152602060048201526014602482015273496e76616c69642075736572206164647265737360601b6044820152606401610a44565b5f831180610e4157505f82115b610e8d5760405162461bcd60e51b815260206004820181905260248201527f4d757374207061792077697468206174206c65617374206f6e6520746f6b656e6044820152606401610a44565b610e98848484611d8d565b50610d8660015f80516020612a3383398151915255565b610eb7611c3b565b5f805160206129d3833981519152610ece81611b90565b5f8211610f1d5760405162461bcd60e51b815260206004820152601d60248201527f416d6f756e74206d7573742062652067726561746572207468616e20300000006044820152606401610a44565b600254604080516337cfdcc560e11b815290515f926001600160a01b031691636f9fb98a9160048083019260209291908290030181865afa158015610f64573d5f803e3d5ffd5b505050506040513d601f19601f82011682018060405250810190610f88919061290f565b905080831115610fda5760405162461bcd60e51b815260206004820152601c60248201527f416d6f756e7420657863656564732073746f72652062616c616e6365000000006044820152606401610a44565b5f80546040516370a0823160e01b81523060048201526001600160a01b03909116906370a0823190602401602060405180830381865afa158015611020573d5f803e3d5ffd5b505050506040513d601f19601f82011682018060405250810190611044919061290f565b60025460405163c107532960e01b8152306004820152602481018790529192506001600160a01b03169063c1075329906044015f604051808303815f87803b15801561108e575f80fd5b505af11580156110a0573d5f803e3d5ffd5b50505f80546040516370a0823160e01b81523060048201529193506001600160a01b031691506370a0823190602401602060405180830381865afa1580156110ea573d5f803e3d5ffd5b505050506040513d601f19601f8201168201806040525081019061110e919061290f565b90505f61111b838361293a565b90508060065f82825461112e919061294d565b9091555050604080518281524260208201527fcd48cdf74df877e6c8fc2899bcd42a3b8f7942bd8373bdc650f88d98d8a2ba81910160405180910390a15050505050610daa60015f80516020612a3383398151915255565b61118e612194565b61119782612238565b6111a18282612242565b5050565b5f6111ae6122fe565b505f805160206129b383398151915290565b5f8211806111cd57505f81115b6112195760405162461bcd60e51b815260206004820152601f60248201527f4d757374206465706f736974206174206c65617374206f6e6520746f6b656e006044820152606401610a44565b81156112d8575f546040516323b872dd60e01b8152336004820152306024820152604481018490526001600160a01b03909116906323b872dd906064016020604051808303815f875af1158015611272573d5f803e3d5ffd5b505050506040513d601f19601f820116820180604052508101906112969190612960565b6112d85760405162461bcd60e51b81526020600482015260136024820152721554d110c819195c1bdcda5d0819985a5b1959606a1b6044820152606401610a44565b801561139a576001546040516323b872dd60e01b8152336004820152306024820152604481018390526001600160a01b03909116906323b872dd906064016020604051808303815f875af1158015611332573d5f803e3d5ffd5b505050506040513d601f19601f820116820180604052508101906113569190612960565b61139a5760405162461bcd60e51b815260206004820152601560248201527413985d1a5d994819195c1bdcda5d0819985a5b1959605a1b6044820152606401610a44565b604080518381526020810183905233917fbee4fe3675934fca827426c793623996a3079255089bda3a717019ffc5db2765910160405180910390a25050565b5f805160206129d38339815191526113f081611b90565b610daa612347565b5f9182525f805160206129f3833981519152602090815260408084206001600160a01b0393909316845291905290205460ff1690565b600554600354600480546006545f80546040516370a0823160e01b81523095810195909552909586958695869586958695919290916001600160a01b0316906370a0823190602401602060405180830381865afa158015611491573d5f803e3d5ffd5b505050506040513d601f19601f820116820180604052508101906114b5919061290f565b6001546040516370a0823160e01b81523060048201526001600160a01b03909116906370a0823190602401602060405180830381865afa1580156114fb573d5f803e3d5ffd5b505050506040513d601f19601f8201168201806040525081019061151f919061290f565b949b939a50919850965094509092509050565b5f80516020612a5383398151915261154981611b90565b6001600160a01b03831615611573575f80546001600160a01b0319166001600160a01b0385161790555b6001600160a01b03821615610d8657600180546001600160a01b0384166001600160a01b0319909116179055505050565b6115ad826109bb565b6115b681611b90565b610acb8383611c85565b5f80516020612a538339815191526115d781611b90565b6001600160a01b0383166116215760405162461bcd60e51b8152602060048201526011602482015270125b9d985b1a59081c9958da5c1a595b9d607a1b6044820152606401610a44565b5f82116116705760405162461bcd60e51b815260206004820152601d60248201527f416d6f756e74206d7573742062652067726561746572207468616e20300000006044820152606401610a44565b6040516370a0823160e01b8152306004820152849083906001600160a01b038316906370a0823190602401602060405180830381865afa1580156116b6573d5f803e3d5ffd5b505050506040513d601f19601f820116820180604052508101906116da919061290f565b101561171f5760405162461bcd60e51b8152602060048201526014602482015273496e73756666696369656e742062616c616e636560601b6044820152606401610a44565b60405163a9059cbb60e01b81526001600160a01b0385811660048301526024820185905282169063a9059cbb906044016020604051808303815f875af115801561176b573d5f803e3d5ffd5b505050506040513d601f19601f8201168201806040525081019061178f9190612960565b6117db5760405162461bcd60e51b815260206004820152601960248201527f456d657267656e6379207769746864726177206661696c6564000000000000006044820152606401610a44565b604080516001600160a01b038781168252602082018690528616917ff24ef89f38eadc1bde50701ad6e4d6d11a2dc24f7cf834a486991f3883328504910160405180910390a25050505050565b600254604080516337cfdcc560e11b815290515f926001600160a01b031691636f9fb98a9160048083019260209291908290030181865afa15801561186f573d5f803e3d5ffd5b505050506040513d601f19601f82011682018060405250810190611893919061290f565b905090565b5f6118a161238f565b805490915060ff600160401b820416159067ffffffffffffffff165f811580156118c85750825b90505f8267ffffffffffffffff1660011480156118e45750303b155b9050811580156118f2575080155b156119105760405163f92ee8a960e01b815260040160405180910390fd5b845467ffffffffffffffff19166001178555831561193a57845460ff60401b1916600160401b1785555b6001600160a01b0389166119875760405162461bcd60e51b8152602060048201526014602482015273496e76616c69642055534443206164647265737360601b6044820152606401610a44565b6001600160a01b0388166119dd5760405162461bcd60e51b815260206004820152601c60248201527f496e76616c6964206e617469766520746f6b656e2061646472657373000000006044820152606401610a44565b6001600160a01b038716611a2b5760405162461bcd60e51b8152602060048201526015602482015274496e76616c69642061646d696e206164647265737360581b6044820152606401610a44565b6001600160a01b038616611a815760405162461bcd60e51b815260206004820152601e60248201527f496e76616c69642073746f726520636f6e7472616374206164647265737300006044820152606401610a44565b611a896123b7565b611a916123b7565b611a996123bf565b611aa16123b7565b5f80546001600160a01b03808c166001600160a01b0319928316178355600180548c831690841617905560028054918a1691909216179055611ae39088611b9a565b50611afb5f80516020612a5383398151915288611b9a565b50611b135f805160206129d383398151915288611b9a565b50611b3e7ffbd454f36a7e1a388bd6fc3ab10d434aa4578f811acbbcf33afb1c697486313c88611b9a565b508315611b8557845460ff60401b19168555604051600181527fc7f505b2f371ae2175ee4913f4499e1f2633a7b5936321eed1cdaeb6115181d29060200160405180910390a15b505050505050505050565b610daa81336123cf565b5f5f805160206129f3833981519152611bb384846113f8565b611c32575f848152602082815260408083206001600160a01b03871684529091529020805460ff19166001179055611be83390565b6001600160a01b0316836001600160a01b0316857f2f8788117e7eff1d82e926ec794901d17c78024a50270940304540a733656f0d60405160405180910390a46001915050610884565b5f915050610884565b5f80516020612a33833981519152805460011901611c6c57604051633ee5aeb560e01b815260040160405180910390fd5b60029055565b60015f80516020612a3383398151915255565b5f5f805160206129f3833981519152611c9e84846113f8565b15611c32575f848152602082815260408083206001600160a01b0387168085529252808320805460ff1916905551339287917ff6391f5c32d9c69d2a47ea670b442974b53935d1edc7fd64eb21e047a839171b9190a46001915050610884565b611d06612408565b5f80516020612a13833981519152805460ff191681557f5db9ee0a495bf2e6ff9c91a7834c1ba4fdd244a5e8aa4e537bd38aeae4b073aa335b6040516001600160a01b03909116815260200160405180910390a150565b5f80516020612a138339815191525460ff1615610d515760405163d93c066560e01b815260040160405180910390fd5b8115611f45575f546040516370a0823160e01b815230600482015283916001600160a01b0316906370a0823190602401602060405180830381865afa158015611dd8573d5f803e3d5ffd5b505050506040513d601f19601f82011682018060405250810190611dfc919061290f565b1015611e4a5760405162461bcd60e51b815260206004820152601960248201527f496e73756666696369656e7420555344432062616c616e6365000000000000006044820152606401610a44565b5f5460405163a9059cbb60e01b81526001600160a01b038581166004830152602482018590529091169063a9059cbb906044016020604051808303815f875af1158015611e99573d5f803e3d5ffd5b505050506040513d601f19601f82011682018060405250810190611ebd9190612960565b611f005760405162461bcd60e51b81526020600482015260146024820152731554d110c81d1c985b9cd9995c8819985a5b195960621b6044820152606401610a44565b6001600160a01b0383165f9081526008602052604081208054849290611f2790849061294d565b925050819055508160035f828254611f3f919061294d565b90915550505b8015612101576001546040516370a0823160e01b815230600482015282916001600160a01b0316906370a0823190602401602060405180830381865afa158015611f91573d5f803e3d5ffd5b505050506040513d601f19601f82011682018060405250810190611fb5919061290f565b10156120035760405162461bcd60e51b815260206004820152601b60248201527f496e73756666696369656e74206e61746976652062616c616e636500000000006044820152606401610a44565b60015460405163a9059cbb60e01b81526001600160a01b038581166004830152602482018490529091169063a9059cbb906044016020604051808303815f875af1158015612053573d5f803e3d5ffd5b505050506040513d601f19601f820116820180604052508101906120779190612960565b6120bc5760405162461bcd60e51b815260206004820152601660248201527513985d1a5d99481d1c985b9cd9995c8819985a5b195960521b6044820152606401610a44565b6001600160a01b0383165f90815260096020526040812080548392906120e390849061294d565b925050819055508060045f8282546120fb919061294d565b90915550505b6001600160a01b0383165f9081526007602052604081205490036121345760058054905f61212e8361297f565b91905055505b6001600160a01b0383165f81815260076020908152604091829020429081905582518681529182018590528183015290517f35b82747873b5fdb6ea31d216f3fd3abba47bf9680bbec10ebccc02891084dec9181900360600190a2505050565b306001600160a01b037f000000000000000000000000000000000000000000000000000000000000000016148061221a57507f00000000000000000000000000000000000000000000000000000000000000006001600160a01b031661220e5f805160206129b3833981519152546001600160a01b031690565b6001600160a01b031614155b15610d515760405163703e46dd60e11b815260040160405180910390fd5b5f6111a181611b90565b816001600160a01b03166352d1902d6040518163ffffffff1660e01b8152600401602060405180830381865afa92505050801561229c575060408051601f3d908101601f191682019092526122999181019061290f565b60015b6122c457604051634c9c8ce360e01b81526001600160a01b0383166004820152602401610a44565b5f805160206129b383398151915281146122f457604051632a87526960e21b815260048101829052602401610a44565b610d868383612437565b306001600160a01b037f00000000000000000000000000000000000000000000000000000000000000001614610d515760405163703e46dd60e11b815260040160405180910390fd5b61234f611d5d565b5f80516020612a13833981519152805460ff191660011781557f62e78cea01bee320cd4e420270b5ea74000d11b0c9f74754ebdbfc544b05a25833611d3f565b5f807ff0c57e16840df040f15088dc2f81fe391c3923bec73e23a9662efc9c229c6a00610884565b610d5161248c565b6123c761248c565b610d516124b1565b6123d982826113f8565b6111a15760405163e2517d3f60e01b81526001600160a01b038216600482015260248101839052604401610a44565b5f80516020612a138339815191525460ff16610d5157604051638dfc202b60e01b815260040160405180910390fd5b612440826124b9565b6040516001600160a01b038316907fbc7cd75a20ee27fd9adebab32041f755214dbc6bffa90cc0225b39da2e5c2d3b905f90a280511561248457610d86828261251c565b6111a161258e565b6124946125ad565b610d5157604051631afcd79f60e31b815260040160405180910390fd5b611c7261248c565b806001600160a01b03163b5f036124ee57604051634c9c8ce360e01b81526001600160a01b0382166004820152602401610a44565b5f805160206129b383398151915280546001600160a01b0319166001600160a01b0392909216919091179055565b60605f80846001600160a01b0316846040516125389190612997565b5f60405180830381855af49150503d805f8114612570576040519150601f19603f3d011682016040523d82523d5f602084013e612575565b606091505b50915091506125858583836125c6565b95945050505050565b3415610d515760405163b398979f60e01b815260040160405180910390fd5b5f6125b661238f565b54600160401b900460ff16919050565b6060826125db576125d682612625565b61261e565b81511580156125f257506001600160a01b0384163b155b1561261b57604051639996b31560e01b81526001600160a01b0385166004820152602401610a44565b50805b9392505050565b80511561263457805160208201fd5b60405163d6bda27560e01b815260040160405180910390fd5b5f6020828403121561265d575f80fd5b81356001600160e01b03198116811461261e575f80fd5b80356001600160a01b038116811461268a575f80fd5b919050565b5f6020828403121561269f575f80fd5b61261e82612674565b5f80604083850312156126b9575f80fd5b50508035926020909101359150565b5f602082840312156126d8575f80fd5b5035919050565b5f80604083850312156126f0575f80fd5b8235915061270060208401612674565b90509250929050565b5f805f6060848603121561271b575f80fd5b61272484612674565b95602085013595506040909401359392505050565b634e487b7160e01b5f52604160045260245ffd5b5f806040838503121561275e575f80fd5b61276783612674565b9150602083013567ffffffffffffffff80821115612783575f80fd5b818501915085601f830112612796575f80fd5b8135818111156127a8576127a8612739565b604051601f8201601f19908116603f011681019083821181831017156127d0576127d0612739565b816040528281528860208487010111156127e8575f80fd5b826020860160208301375f6020848301015280955050505050509250929050565b5f5b8381101561282357818101518382015260200161280b565b50505f910152565b602081525f8251806020840152612849816040850160208701612809565b601f01601f19169190910160400192915050565b5f806040838503121561286e575f80fd5b61287783612674565b915061270060208401612674565b5f805f60608486031215612897575f80fd5b6128a084612674565b92506128ae60208501612674565b9150604084013590509250925092565b5f805f80608085870312156128d1575f80fd5b6128da85612674565b93506128e860208601612674565b92506128f660408601612674565b915061290460608601612674565b905092959194509250565b5f6020828403121561291f575f80fd5b5051919050565b634e487b7160e01b5f52601160045260245ffd5b8181038181111561088457610884612926565b8082018082111561088457610884612926565b5f60208284031215612970575f80fd5b8151801515811461261e575f80fd5b5f6001820161299057612990612926565b5060010190565b5f82516129a8818460208701612809565b919091019291505056fe360894a13ba1a3210667c828492db98dca3e2076cc3735a920a3ca505d382bbc97667070c54ef182b0f5858b034beac1b6f3089aa2d3188bb1e8929f4fa9b92902dd7bc7dec4dceedda775e58dd541e08a116c6c53815c0bd028192f7b626800cd5ed15c6e187e77e9aee88184c21f4f2182ab5827cb3b7e07fbedcd63f033009b779b17422d0df92223018b32b4d1fa46e071723d6817e2486d003becc55f00a49807205ce4d355092ef5a8a18f56e8913cf4a201fbe287825b095693c21775a264697066735822122014e00b164549fcdb9ca71f38acb3416bf7cae3f8b42da8f7544d9118a8bfeed364736f6c63430008180033","linkReferences":{}},"methodIdentifiers":{"ADMIN_ROLE()":"75b238fc","DEFAULT_ADMIN_ROLE()":"a217fddf","DISTRIBUTOR_ROLE()":"f0bd87cc","OPERATOR_ROLE()":"f5b541a6","UPGRADE_INTERFACE_VERSION()":"ad3cb1cc","canFund(uint256,uint256)":"23a96191","claimAmountFromStore(uint256)":"4776c33d","claimFromStore()":"304fe42d","depositFunds(uint256,uint256)":"61638ed5","emergencyWithdraw(address,address,uint256)":"e63ea408","getBalances()":"00113e08","getRoleAdmin(bytes32)":"248a9ca3","getStats()":"c59d4847","getStoreBalance()":"f05fae68","getUserPaymentInfo(address)":"9afb03f1","grantRole(bytes32,address)":"2f2ff15d","hasRole(bytes32,address)":"91d14854","initialize(address,address,address,address)":"f8c8765e","nativePaid(address)":"65038ad9","nativeToken()":"e1758bd8","pause()":"8456cb59","paused()":"5c975abb","payCatFeeder(address,uint256,uint256)":"444744ed","proxiableUUID()":"52d1902d","renounceRole(bytes32,address)":"36568abe","revokeRole(bytes32,address)":"d547741f","setTokens(address,address)":"cbc7854e","storeContract()":"f3cf0376","supportsInterface(bytes4)":"01ffc9a7","totalClaimedFromStore()":"4802d347","totalNativeDistributed()":"a36ad92d","totalUsdcDistributed()":"53d3ee59","totalUsersPaid()":"9c2829ac","unpause()":"3f4ba83a","updateStoreContract(address)":"2a7b4e0c","upgradeToAndCall(address,bytes)":"4f1ef286","usdc()":"3e413bee","usdcPaid(address)":"09f7fc7a","userPaymentTimestamp(address)":"e55a2e1b"},"id":44}