{"abi":[{"type":"constructor","inputs":[],"stateMutability":"nonpayable"},{"type":"function","name":"ADMIN_ROLE","inputs":[],"outputs":[{"name":"","type":"bytes32","internalType":"bytes32"}],"stateMutability":"view"},{"type":"function","name":"DEFAULT_ADMIN_ROLE","inputs":[],"outputs":[{"name":"","type":"bytes32","internalType":"bytes32"}],"stateMutability":"view"},{"type":"function","name":"DISTRIBUTOR_ROLE","inputs":[],"outputs":[{"name":"","type":"bytes32","internalType":"bytes32"}],"stateMutability":"view"},{"type":"function","name":"OPERATOR_ROLE","inputs":[],"outputs":[{"name":"","type":"bytes32","internalType":"bytes32"}],"stateMutability":"view"},{"type":"function","name":"UPGRADE_INTERFACE_VERSION","inputs":[],"outputs":[{"name":"","type":"string","internalType":"string"}],"stateMutability":"view"},{"type":"function","name":"depositUSDC","inputs":[{"name":"amount","type":"uint256","internalType":"uint256"}],"outputs":[],"stateMutability":"nonpayable"},{"type":"function","name":"emergencyWithdraw","inputs":[{"name":"amount","type":"uint256","internalType":"uint256"}],"outputs":[],"stateMutability":"nonpayable"},{"type":"function","name":"emergencyWithdrawAll","inputs":[],"outputs":[],"stateMutability":"nonpayable"},{"type":"function","name":"getRoleAdmin","inputs":[{"name":"role","type":"bytes32","internalType":"bytes32"}],"outputs":[{"name":"","type":"bytes32","internalType":"bytes32"}],"stateMutability":"view"},{"type":"function","name":"getUSDCBalance","inputs":[],"outputs":[{"name":"","type":"uint256","internalType":"uint256"}],"stateMutability":"view"},{"type":"function","name":"grantRole","inputs":[{"name":"role","type":"bytes32","internalType":"bytes32"},{"name":"account","type":"address","internalType":"address"}],"outputs":[],"stateMutability":"nonpayable"},{"type":"function","name":"hasRole","inputs":[{"name":"role","type":"bytes32","internalType":"bytes32"},{"name":"account","type":"address","internalType":"address"}],"outputs":[{"name":"","type":"bool","internalType":"bool"}],"stateMutability":"view"},{"type":"function","name":"initialize","inputs":[{"name":"_usdc","type":"address","internalType":"address"},{"name":"_admin","type":"address","internalType":"address"}],"outputs":[],"stateMutability":"nonpayable"},{"type":"function","name":"pause","inputs":[],"outputs":[],"stateMutability":"nonpayable"},{"type":"function","name":"paused","inputs":[],"outputs":[{"name":"","type":"bool","internalType":"bool"}],"stateMutability":"view"},{"type":"function","name":"payCatFeeder","inputs":[{"name":"user","type":"address","internalType":"address"},{"name":"usdcAmount","type":"uint256","internalType":"uint256"},{"name":"","type":"uint256","internalType":"uint256"}],"outputs":[],"stateMutability":"nonpayable"},{"type":"function","name":"proxiableUUID","inputs":[],"outputs":[{"name":"","type":"bytes32","internalType":"bytes32"}],"stateMutability":"view"},{"type":"function","name":"renounceRole","inputs":[{"name":"role","type":"bytes32","internalType":"bytes32"},{"name":"callerConfirmation","type":"address","internalType":"address"}],"outputs":[],"stateMutability":"nonpayable"},{"type":"function","name":"revokeRole","inputs":[{"name":"role","type":"bytes32","internalType":"bytes32"},{"name":"account","type":"address","internalType":"address"}],"outputs":[],"stateMutability":"nonpayable"},{"type":"function","name":"supportsInterface","inputs":[{"name":"interfaceId","type":"bytes4","internalType":"bytes4"}],"outputs":[{"name":"","type":"bool","internalType":"bool"}],"stateMutability":"view"},{"type":"function","name":"unpause","inputs":[],"outputs":[],"stateMutability":"nonpayable"},{"type":"function","name":"upgradeToAndCall","inputs":[{"name":"newImplementation","type":"address","internalType":"address"},{"name":"data","type":"bytes","internalType":"bytes"}],"outputs":[],"stateMutability":"payable"},{"type":"function","name":"usdc","inputs":[],"outputs":[{"name":"","type":"address","internalType":"contract IERC20"}],"stateMutability":"view"},{"type":"event","name":"CatFeederPaid","inputs":[{"name":"user","type":"address","indexed":true,"internalType":"address"},{"name":"usdcAmount","type":"uint256","indexed":false,"internalType":"uint256"}],"anonymous":false},{"type":"event","name":"EmergencyWithdraw","inputs":[{"name":"to","type":"address","indexed":true,"internalType":"address"},{"name":"amount","type":"uint256","indexed":false,"internalType":"uint256"}],"anonymous":false},{"type":"event","name":"FundsDeposited","inputs":[{"name":"from","type":"address","indexed":true,"internalType":"address"},{"name":"amount","type":"uint256","indexed":false,"internalType":"uint256"}],"anonymous":false},{"type":"event","name":"Initialized","inputs":[{"name":"version","type":"uint64","indexed":false,"internalType":"uint64"}],"anonymous":false},{"type":"event","name":"Paused","inputs":[{"name":"account","type":"address","indexed":false,"internalType":"address"}],"anonymous":false},{"type":"event","name":"RoleAdminChanged","inputs":[{"name":"role","type":"bytes32","indexed":true,"internalType":"bytes32"},{"name":"previousAdminRole","type":"bytes32","indexed":true,"internalType":"bytes32"},{"name":"newAdminRole","type":"bytes32","indexed":true,"internalType":"bytes32"}],"anonymous":false},{"type":"event","name":"RoleGranted","inputs":[{"name":"role","type":"bytes32","indexed":true,"internalType":"bytes32"},{"name":"account","type":"address","indexed":true,"internalType":"address"},{"name":"sender","type":"address","indexed":true,"internalType":"address"}],"anonymous":false},{"type":"event","name":"RoleRevoked","inputs":[{"name":"role","type":"bytes32","indexed":true,"internalType":"bytes32"},{"name":"account","type":"address","indexed":true,"internalType":"address"},{"name":"sender","type":"address","indexed":true,"internalType":"address"}],"anonymous":false},{"type":"event","name":"Unpaused","inputs":[{"name":"account","type":"address","indexed":false,"internalType":"address"}],"anonymous":false},{"type":"event","name":"Upgraded","inputs":[{"name":"implementation","type":"address","indexed":true,"internalType":"address"}],"anonymous":false},{"type":"error","name":"AccessControlBadConfirmation","inputs":[]},{"type":"error","name":"AccessControlUnauthorizedAccount","inputs":[{"name":"account","type":"address","internalType":"address"},{"name":"neededRole","type":"bytes32","internalType":"bytes32"}]},{"type":"error","name":"AddressEmptyCode","inputs":[{"name":"target","type":"address","internalType":"address"}]},{"type":"error","name":"ERC1967InvalidImplementation","inputs":[{"name":"implementation","type":"address","internalType":"address"}]},{"type":"error","name":"ERC1967NonPayable","inputs":[]},{"type":"error","name":"EnforcedPause","inputs":[]},{"type":"error","name":"ExpectedPause","inputs":[]},{"type":"error","name":"FailedCall","inputs":[]},{"type":"error","name":"InvalidInitialization","inputs":[]},{"type":"error","name":"NotInitializing","inputs":[]},{"type":"error","name":"UUPSUnauthorizedCallContext","inputs":[]},{"type":"error","name":"UUPSUnsupportedProxiableUUID","inputs":[{"name":"slot","type":"bytes32","internalType":"bytes32"}]}],"bytecode":{"object":"0x60a060405230608052348015610013575f80fd5b5061001c610021565b6100d3565b7ff0c57e16840df040f15088dc2f81fe391c3923bec73e23a9662efc9c229c6a00805468010000000000000000900460ff16156100715760405163f92ee8a960e01b815260040160405180910390fd5b80546001600160401b03908116146100d05780546001600160401b0319166001600160401b0390811782556040519081527fc7f505b2f371ae2175ee4913f4499e1f2633a7b5936321eed1cdaeb6115181d29060200160405180910390a15b50565b6080516117e46100f95f395f8181610ff801528181611021015261116201526117e45ff3fe60806040526004361061013c575f3560e01c80635312ea8e116100b3578063ad3cb1cc1161006d578063ad3cb1cc1461034c578063d547741f14610389578063dd191719146103a8578063f0bd87cc146103bc578063f5b541a6146103ef578063f688bcfb1461040f575f80fd5b80635312ea8e146102a45780635c975abb146102c357806375b238fc146102e65780638456cb591461030657806391d148541461031a578063a217fddf14610339575f80fd5b80633e413bee116101045780633e413bee146101f55780633f4ba83a1461022b578063444744ed1461023f578063485cc9551461025e5780634f1ef2861461027d57806352d1902d14610290575f80fd5b806301ffc9a714610140578063248a9ca3146101745780632f2ff15d146101a157806336568abe146101c25780633cfd1ccc146101e1575b5f80fd5b34801561014b575f80fd5b5061015f61015a36600461145e565b61042e565b60405190151581526020015b60405180910390f35b34801561017f575f80fd5b5061019361018e366004611485565b610464565b60405190815260200161016b565b3480156101ac575f80fd5b506101c06101bb3660046114b7565b610484565b005b3480156101cd575f80fd5b506101c06101dc3660046114b7565b6104a6565b3480156101ec575f80fd5b506101936104de565b348015610200575f80fd5b505f54610213906001600160a01b031681565b6040516001600160a01b03909116815260200161016b565b348015610236575f80fd5b506101c061054d565b34801561024a575f80fd5b506101c06102593660046114e1565b61056f565b348015610269575f80fd5b506101c0610278366004611511565b6107c8565b6101c061028b36600461154d565b6109ec565b34801561029b575f80fd5b50610193610a0b565b3480156102af575f80fd5b506101c06102be366004611485565b610a26565b3480156102ce575f80fd5b505f8051602061176f8339815191525460ff1661015f565b3480156102f1575f80fd5b506101935f8051602061178f83398151915281565b348015610311575f80fd5b506101c0610b23565b348015610325575f80fd5b5061015f6103343660046114b7565b610b42565b348015610344575f80fd5b506101935f81565b348015610357575f80fd5b5061037c604051806040016040528060058152602001640352e302e360dc1b81525081565b60405161016b919061162b565b348015610394575f80fd5b506101c06103a33660046114b7565b610b78565b3480156103b3575f80fd5b506101c0610b94565b3480156103c7575f80fd5b506101937ffbd454f36a7e1a388bd6fc3ab10d434aa4578f811acbbcf33afb1c697486313c81565b3480156103fa575f80fd5b506101935f8051602061172f83398151915281565b34801561041a575f80fd5b506101c0610429366004611485565b610d1e565b5f6001600160e01b03198216637965db0b60e01b148061045e57506301ffc9a760e01b6001600160e01b03198316145b92915050565b5f9081525f8051602061174f833981519152602052604090206001015490565b61048d82610464565b61049681610e08565b6104a08383610e12565b50505050565b6001600160a01b03811633146104cf5760405163334bd91960e11b815260040160405180910390fd5b6104d98282610eb3565b505050565b5f80546040516370a0823160e01b81523060048201526001600160a01b03909116906370a0823190602401602060405180830381865afa158015610524573d5f803e3d5ffd5b505050506040513d601f19601f82011682018060405250810190610548919061165d565b905090565b5f8051602061172f83398151915261056481610e08565b61056c610f2c565b50565b610577610f8b565b7ffbd454f36a7e1a388bd6fc3ab10d434aa4578f811acbbcf33afb1c697486313c6105a181610e08565b6001600160a01b0384166105f35760405162461bcd60e51b8152602060048201526014602482015273496e76616c69642075736572206164647265737360601b60448201526064015b60405180910390fd5b5f83116106125760405162461bcd60e51b81526004016105ea90611674565b5f546040516370a0823160e01b815230600482015284916001600160a01b0316906370a0823190602401602060405180830381865afa158015610657573d5f803e3d5ffd5b505050506040513d601f19601f8201168201806040525081019061067b919061165d565b10156106c95760405162461bcd60e51b815260206004820152601960248201527f496e73756666696369656e7420555344432062616c616e63650000000000000060448201526064016105ea565b5f5460405163a9059cbb60e01b81526001600160a01b038681166004830152602482018690529091169063a9059cbb906044016020604051808303815f875af1158015610718573d5f803e3d5ffd5b505050506040513d601f19601f8201168201806040525081019061073c91906116ab565b61077f5760405162461bcd60e51b81526020600482015260146024820152731554d110c81d1c985b9cd9995c8819985a5b195960621b60448201526064016105ea565b836001600160a01b03167f32d8aef37a519ee23fba321f10660a2ab209e3974856b17669f83f6f3e1412d7846040516107ba91815260200190565b60405180910390a250505050565b5f6107d1610fbd565b805490915060ff600160401b820416159067ffffffffffffffff165f811580156107f85750825b90505f8267ffffffffffffffff1660011480156108145750303b155b905081158015610822575080155b156108405760405163f92ee8a960e01b815260040160405180910390fd5b845467ffffffffffffffff19166001178555831561086a57845460ff60401b1916600160401b1785555b6001600160a01b0387166108b75760405162461bcd60e51b8152602060048201526014602482015273496e76616c69642055534443206164647265737360601b60448201526064016105ea565b6001600160a01b0386166109055760405162461bcd60e51b8152602060048201526015602482015274496e76616c69642061646d696e206164647265737360581b60448201526064016105ea565b61090d610fe5565b610915610fe5565b61091d610fe5565b5f80546001600160a01b0319166001600160a01b0389161781556109419087610e12565b506109595f8051602061178f83398151915287610e12565b506109715f8051602061172f83398151915287610e12565b5061099c7ffbd454f36a7e1a388bd6fc3ab10d434aa4578f811acbbcf33afb1c697486313c87610e12565b5083156109e357845460ff60401b19168555604051600181527fc7f505b2f371ae2175ee4913f4499e1f2633a7b5936321eed1cdaeb6115181d29060200160405180910390a15b50505050505050565b6109f4610fed565b6109fd82611091565b610a07828261109b565b5050565b5f610a14611157565b505f8051602061170f83398151915290565b5f8051602061178f833981519152610a3d81610e08565b5f8211610a5c5760405162461bcd60e51b81526004016105ea90611674565b5f5460405163a9059cbb60e01b8152336004820152602481018490526001600160a01b039091169063a9059cbb906044016020604051808303815f875af1158015610aa9573d5f803e3d5ffd5b505050506040513d601f19601f82011682018060405250810190610acd91906116ab565b610ae95760405162461bcd60e51b81526004016105ea906116ca565b60405182815233907f5fafa99d0643513820be26656b45130b01e1c03062e1266bf36f88cbd3bd9695906020015b60405180910390a25050565b5f8051602061172f833981519152610b3a81610e08565b61056c6111a0565b5f9182525f8051602061174f833981519152602090815260408084206001600160a01b0393909316845291905290205460ff1690565b610b8182610464565b610b8a81610e08565b6104a08383610eb3565b5f8051602061178f833981519152610bab81610e08565b5f80546040516370a0823160e01b81523060048201526001600160a01b03909116906370a0823190602401602060405180830381865afa158015610bf1573d5f803e3d5ffd5b505050506040513d601f19601f82011682018060405250810190610c15919061165d565b90505f8111610c5f5760405162461bcd60e51b81526020600482015260166024820152754e6f2062616c616e636520746f20776974686472617760501b60448201526064016105ea565b5f5460405163a9059cbb60e01b8152336004820152602481018390526001600160a01b039091169063a9059cbb906044016020604051808303815f875af1158015610cac573d5f803e3d5ffd5b505050506040513d601f19601f82011682018060405250810190610cd091906116ab565b610cec5760405162461bcd60e51b81526004016105ea906116ca565b60405181815233907f5fafa99d0643513820be26656b45130b01e1c03062e1266bf36f88cbd3bd969590602001610b17565b5f8111610d3d5760405162461bcd60e51b81526004016105ea90611674565b5f546040516323b872dd60e01b8152336004820152306024820152604481018390526001600160a01b03909116906323b872dd906064016020604051808303815f875af1158015610d90573d5f803e3d5ffd5b505050506040513d601f19601f82011682018060405250810190610db491906116ab565b610dd05760405162461bcd60e51b81526004016105ea906116ca565b60405181815233907f543ba50a5eec5e6178218e364b1d0f396157b3c8fa278522c2cb7fd99407d4749060200160405180910390a250565b61056c81336111e8565b5f5f8051602061174f833981519152610e2b8484610b42565b610eaa575f848152602082815260408083206001600160a01b03871684529091529020805460ff19166001179055610e603390565b6001600160a01b0316836001600160a01b0316857f2f8788117e7eff1d82e926ec794901d17c78024a50270940304540a733656f0d60405160405180910390a4600191505061045e565b5f91505061045e565b5f5f8051602061174f833981519152610ecc8484610b42565b15610eaa575f848152602082815260408083206001600160a01b0387168085529252808320805460ff1916905551339287917ff6391f5c32d9c69d2a47ea670b442974b53935d1edc7fd64eb21e047a839171b9190a4600191505061045e565b610f34611221565b5f8051602061176f833981519152805460ff191681557f5db9ee0a495bf2e6ff9c91a7834c1ba4fdd244a5e8aa4e537bd38aeae4b073aa335b6040516001600160a01b03909116815260200160405180910390a150565b5f8051602061176f8339815191525460ff1615610fbb5760405163d93c066560e01b815260040160405180910390fd5b565b5f807ff0c57e16840df040f15088dc2f81fe391c3923bec73e23a9662efc9c229c6a0061045e565b610fbb611250565b306001600160a01b037f000000000000000000000000000000000000000000000000000000000000000016148061107357507f00000000000000000000000000000000000000000000000000000000000000006001600160a01b03166110675f8051602061170f833981519152546001600160a01b031690565b6001600160a01b031614155b15610fbb5760405163703e46dd60e11b815260040160405180910390fd5b5f610a0781610e08565b816001600160a01b03166352d1902d6040518163ffffffff1660e01b8152600401602060405180830381865afa9250505080156110f5575060408051601f3d908101601f191682019092526110f29181019061165d565b60015b61111d57604051634c9c8ce360e01b81526001600160a01b03831660048201526024016105ea565b5f8051602061170f833981519152811461114d57604051632a87526960e21b8152600481018290526024016105ea565b6104d98383611275565b306001600160a01b037f00000000000000000000000000000000000000000000000000000000000000001614610fbb5760405163703e46dd60e11b815260040160405180910390fd5b6111a8610f8b565b5f8051602061176f833981519152805460ff191660011781557f62e78cea01bee320cd4e420270b5ea74000d11b0c9f74754ebdbfc544b05a25833610f6d565b6111f28282610b42565b610a075760405163e2517d3f60e01b81526001600160a01b0382166004820152602481018390526044016105ea565b5f8051602061176f8339815191525460ff16610fbb57604051638dfc202b60e01b815260040160405180910390fd5b6112586112ca565b610fbb57604051631afcd79f60e31b815260040160405180910390fd5b61127e826112e3565b6040516001600160a01b038316907fbc7cd75a20ee27fd9adebab32041f755214dbc6bffa90cc0225b39da2e5c2d3b905f90a28051156112c2576104d98282611346565b610a076113b8565b5f6112d3610fbd565b54600160401b900460ff16919050565b806001600160a01b03163b5f0361131857604051634c9c8ce360e01b81526001600160a01b03821660048201526024016105ea565b5f8051602061170f83398151915280546001600160a01b0319166001600160a01b0392909216919091179055565b60605f80846001600160a01b03168460405161136291906116f3565b5f60405180830381855af49150503d805f811461139a576040519150601f19603f3d011682016040523d82523d5f602084013e61139f565b606091505b50915091506113af8583836113d7565b95945050505050565b3415610fbb5760405163b398979f60e01b815260040160405180910390fd5b6060826113ec576113e782611436565b61142f565b815115801561140357506001600160a01b0384163b155b1561142c57604051639996b31560e01b81526001600160a01b03851660048201526024016105ea565b50805b9392505050565b80511561144557805160208201fd5b60405163d6bda27560e01b815260040160405180910390fd5b5f6020828403121561146e575f80fd5b81356001600160e01b03198116811461142f575f80fd5b5f60208284031215611495575f80fd5b5035919050565b80356001600160a01b03811681146114b2575f80fd5b919050565b5f80604083850312156114c8575f80fd5b823591506114d86020840161149c565b90509250929050565b5f805f606084860312156114f3575f80fd5b6114fc8461149c565b95602085013595506040909401359392505050565b5f8060408385031215611522575f80fd5b61152b8361149c565b91506114d86020840161149c565b634e487b7160e01b5f52604160045260245ffd5b5f806040838503121561155e575f80fd5b6115678361149c565b9150602083013567ffffffffffffffff80821115611583575f80fd5b818501915085601f830112611596575f80fd5b8135818111156115a8576115a8611539565b604051601f8201601f19908116603f011681019083821181831017156115d0576115d0611539565b816040528281528860208487010111156115e8575f80fd5b826020860160208301375f6020848301015280955050505050509250929050565b5f5b8381101561162357818101518382015260200161160b565b50505f910152565b602081525f8251806020840152611649816040850160208701611609565b601f01601f19169190910160400192915050565b5f6020828403121561166d575f80fd5b5051919050565b6020808252601d908201527f416d6f756e74206d7573742062652067726561746572207468616e2030000000604082015260600190565b5f602082840312156116bb575f80fd5b8151801515811461142f575f80fd5b6020808252600f908201526e151c985b9cd9995c8819985a5b1959608a1b604082015260600190565b5f8251611704818460208701611609565b919091019291505056fe360894a13ba1a3210667c828492db98dca3e2076cc3735a920a3ca505d382bbc97667070c54ef182b0f5858b034beac1b6f3089aa2d3188bb1e8929f4fa9b92902dd7bc7dec4dceedda775e58dd541e08a116c6c53815c0bd028192f7b626800cd5ed15c6e187e77e9aee88184c21f4f2182ab5827cb3b7e07fbedcd63f03300a49807205ce4d355092ef5a8a18f56e8913cf4a201fbe287825b095693c21775a2646970667358221220cc8e9000ba061c7f5a508802e5d5345c067bcce41cad3f4f52d595a535072a9164736f6c63430008180033","linkReferences":{}},"methodIdentifiers":{"ADMIN_ROLE()":"75b238fc","DEFAULT_ADMIN_ROLE()":"a217fddf","DISTRIBUTOR_ROLE()":"f0bd87cc","OPERATOR_ROLE()":"f5b541a6","UPGRADE_INTERFACE_VERSION()":"ad3cb1cc","depositUSDC(uint256)":"f688bcfb","emergencyWithdraw(uint256)":"5312ea8e","emergencyWithdrawAll()":"dd191719","getRoleAdmin(bytes32)":"248a9ca3","getUSDCBalance()":"3cfd1ccc","grantRole(bytes32,address)":"2f2ff15d","hasRole(bytes32,address)":"91d14854","initialize(address,address)":"485cc955","pause()":"8456cb59","paused()":"5c975abb","payCatFeeder(address,uint256,uint256)":"444744ed","proxiableUUID()":"52d1902d","renounceRole(bytes32,address)":"36568abe","revokeRole(bytes32,address)":"d547741f","supportsInterface(bytes4)":"01ffc9a7","unpause()":"3f4ba83a","upgradeToAndCall(address,bytes)":"4f1ef286","usdc()":"3e413bee"},"id":42}