{"abi":[{"type":"constructor","inputs":[{"name":"_storeImpl","type":"address","internalType":"address"},{"name":"_jobsImpl","type":"address","internalType":"address"},{"name":"_usdc","type":"address","internalType":"address"},{"name":"_admin","type":"address","internalType":"address"}],"stateMutability":"nonpayable"},{"type":"function","name":"jobsProxy","inputs":[],"outputs":[{"name":"","type":"address","internalType":"address"}],"stateMutability":"view"},{"type":"function","name":"storeProxy","inputs":[],"outputs":[{"name":"","type":"address","internalType":"address"}],"stateMutability":"view"}],"bytecode":{"object":"0x60c060405234801561000f575f80fd5b5060405161070538038061070583398101604081905261002e9161017a565b604080516001600160a01b038481166024830152831660448201526301e8480060648083019190915282518083039091018152608490910182526020810180516001600160e01b0316638bea875360e01b17905290518590829061009190610152565b61009c9291906101cb565b604051809103905ff0801580156100b5573d5f803e3d5ffd5b506001600160a01b0390811660805260408051858316602482015291841660448084019190915281518084039091018152606490920181526020820180516001600160e01b031663485cc95560e01b179052518590829061011590610152565b6101209291906101cb565b604051809103905ff080158015610139573d5f803e3d5ffd5b506001600160a01b031660a05250610227945050505050565b6103ef8061031683390190565b80516001600160a01b0381168114610175575f80fd5b919050565b5f805f806080858703121561018d575f80fd5b6101968561015f565b93506101a46020860161015f565b92506101b26040860161015f565b91506101c06060860161015f565b905092959194509250565b60018060a01b03831681525f60206040602084015283518060408501525f5b81811015610206578581018301518582016060015282016101ea565b505f606082860101526060601f19601f830116850101925050509392505050565b60805160a05160d26102445f395f603801525f607a015260d25ff3fe6080604052348015600e575f80fd5b50600436106030575f3560e01c806326fa85e5146034578063a4875aa0146076575b5f80fd5b605a7f000000000000000000000000000000000000000000000000000000000000000081565b6040516001600160a01b03909116815260200160405180910390f35b605a7f00000000000000000000000000000000000000000000000000000000000000008156fea2646970667358221220b78ffaa2927e46e58fbdd4a41884a6fb30934a9c011e48f4e8f9d807055260ab64736f6c6343000818003360806040526040516103ef3803806103ef8339810160408190526100229161025d565b61002c8282610033565b5050610340565b61003c82610091565b6040516001600160a01b038316907fbc7cd75a20ee27fd9adebab32041f755214dbc6bffa90cc0225b39da2e5c2d3b905f90a280511561008557610080828261010c565b505050565b61008d61017f565b5050565b806001600160a01b03163b5f036100cb57604051634c9c8ce360e01b81526001600160a01b03821660048201526024015b60405180910390fd5b7f360894a13ba1a3210667c828492db98dca3e2076cc3735a920a3ca505d382bbc80546001600160a01b0319166001600160a01b0392909216919091179055565b60605f80846001600160a01b0316846040516101289190610325565b5f60405180830381855af49150503d805f8114610160576040519150601f19603f3d011682016040523d82523d5f602084013e610165565b606091505b5090925090506101768583836101a0565b95945050505050565b341561019e5760405163b398979f60e01b815260040160405180910390fd5b565b6060826101b5576101b0826101ff565b6101f8565b81511580156101cc57506001600160a01b0384163b155b156101f557604051639996b31560e01b81526001600160a01b03851660048201526024016100c2565b50805b9392505050565b80511561020e57805160208201fd5b60405163d6bda27560e01b815260040160405180910390fd5b634e487b7160e01b5f52604160045260245ffd5b5f5b8381101561025557818101518382015260200161023d565b50505f910152565b5f806040838503121561026e575f80fd5b82516001600160a01b0381168114610284575f80fd5b60208401519092506001600160401b03808211156102a0575f80fd5b818501915085601f8301126102b3575f80fd5b8151818111156102c5576102c5610227565b604051601f8201601f19908116603f011681019083821181831017156102ed576102ed610227565b81604052828152886020848701011115610305575f80fd5b61031683602083016020880161023b565b80955050505050509250929050565b5f825161033681846020870161023b565b9190910192915050565b60a38061034c5f395ff3fe6080604052600a600c565b005b60186014601a565b6050565b565b5f604b7f360894a13ba1a3210667c828492db98dca3e2076cc3735a920a3ca505d382bbc546001600160a01b031690565b905090565b365f80375f80365f845af43d5f803e8080156069573d5ff35b3d5ffdfea2646970667358221220196c3d48c39c45d272da15bee9313e6cf968770da650f8a8bbe97201292c1f1164736f6c63430008180033","linkReferences":{}},"methodIdentifiers":{"jobsProxy()":"26fa85e5","storeProxy()":"a4875aa0"},"id":8}