{"abi":[{"type":"constructor","inputs":[],"stateMutability":"nonpayable"},{"type":"function","name":"ADMIN_ROLE","inputs":[],"outputs":[{"name":"","type":"bytes32","internalType":"bytes32"}],"stateMutability":"view"},{"type":"function","name":"DEFAULT_ADMIN_ROLE","inputs":[],"outputs":[{"name":"","type":"bytes32","internalType":"bytes32"}],"stateMutability":"view"},{"type":"function","name":"MARKETING_BUDGET_ROLE","inputs":[],"outputs":[{"name":"","type":"bytes32","internalType":"bytes32"}],"stateMutability":"view"},{"type":"function","name":"OPERATOR_ROLE","inputs":[],"outputs":[{"name":"","type":"bytes32","internalType":"bytes32"}],"stateMutability":"view"},{"type":"function","name":"UPGRADE_INTERFACE_VERSION","inputs":[],"outputs":[{"name":"","type":"string","internalType":"string"}],"stateMutability":"view"},{"type":"function","name":"WITHDRAWER_ROLE","inputs":[],"outputs":[{"name":"","type":"bytes32","internalType":"bytes32"}],"stateMutability":"view"},{"type":"function","name":"buyGiftcard","inputs":[],"outputs":[],"stateMutability":"nonpayable"},{"type":"function","name":"canBuy","inputs":[{"name":"buyer","type":"address","internalType":"address"}],"outputs":[{"name":"","type":"bool","internalType":"bool"}],"stateMutability":"view"},{"type":"function","name":"getContractBalance","inputs":[],"outputs":[{"name":"","type":"uint256","internalType":"uint256"}],"stateMutability":"view"},{"type":"function","name":"getRoleAdmin","inputs":[{"name":"role","type":"bytes32","internalType":"bytes32"}],"outputs":[{"name":"","type":"bytes32","internalType":"bytes32"}],"stateMutability":"view"},{"type":"function","name":"getStats","inputs":[],"outputs":[{"name":"price","type":"uint256","internalType":"uint256"},{"name":"purchases","type":"uint256","internalType":"uint256"},{"name":"revenue","type":"uint256","internalType":"uint256"},{"name":"balance","type":"uint256","internalType":"uint256"}],"stateMutability":"view"},{"type":"function","name":"giftcardPrice","inputs":[],"outputs":[{"name":"","type":"uint256","internalType":"uint256"}],"stateMutability":"view"},{"type":"function","name":"grantRole","inputs":[{"name":"role","type":"bytes32","internalType":"bytes32"},{"name":"account","type":"address","internalType":"address"}],"outputs":[],"stateMutability":"nonpayable"},{"type":"function","name":"hasRole","inputs":[{"name":"role","type":"bytes32","internalType":"bytes32"},{"name":"account","type":"address","internalType":"address"}],"outputs":[{"name":"","type":"bool","internalType":"bool"}],"stateMutability":"view"},{"type":"function","name":"initialize","inputs":[{"name":"_usdc","type":"address","internalType":"address"},{"name":"_admin","type":"address","internalType":"address"},{"name":"_initialPrice","type":"uint256","internalType":"uint256"}],"outputs":[],"stateMutability":"nonpayable"},{"type":"function","name":"pause","inputs":[],"outputs":[],"stateMutability":"nonpayable"},{"type":"function","name":"paused","inputs":[],"outputs":[{"name":"","type":"bool","internalType":"bool"}],"stateMutability":"view"},{"type":"function","name":"payMarketing","inputs":[{"name":"destination","type":"address","internalType":"address"},{"name":"amount","type":"uint256","internalType":"uint256"}],"outputs":[],"stateMutability":"nonpayable"},{"type":"function","name":"proxiableUUID","inputs":[],"outputs":[{"name":"","type":"bytes32","internalType":"bytes32"}],"stateMutability":"view"},{"type":"function","name":"renounceRole","inputs":[{"name":"role","type":"bytes32","internalType":"bytes32"},{"name":"callerConfirmation","type":"address","internalType":"address"}],"outputs":[],"stateMutability":"nonpayable"},{"type":"function","name":"revokeRole","inputs":[{"name":"role","type":"bytes32","internalType":"bytes32"},{"name":"account","type":"address","internalType":"address"}],"outputs":[],"stateMutability":"nonpayable"},{"type":"function","name":"setUSDC","inputs":[{"name":"_usdc","type":"address","internalType":"address"}],"outputs":[],"stateMutability":"nonpayable"},{"type":"function","name":"supportsInterface","inputs":[{"name":"interfaceId","type":"bytes4","internalType":"bytes4"}],"outputs":[{"name":"","type":"bool","internalType":"bool"}],"stateMutability":"view"},{"type":"function","name":"totalPurchases","inputs":[],"outputs":[{"name":"","type":"uint256","internalType":"uint256"}],"stateMutability":"view"},{"type":"function","name":"totalRevenue","inputs":[],"outputs":[{"name":"","type":"uint256","internalType":"uint256"}],"stateMutability":"view"},{"type":"function","name":"unpause","inputs":[],"outputs":[],"stateMutability":"nonpayable"},{"type":"function","name":"updatePrice","inputs":[{"name":"newPrice","type":"uint256","internalType":"uint256"}],"outputs":[],"stateMutability":"nonpayable"},{"type":"function","name":"upgradeToAndCall","inputs":[{"name":"newImplementation","type":"address","internalType":"address"},{"name":"data","type":"bytes","internalType":"bytes"}],"outputs":[],"stateMutability":"payable"},{"type":"function","name":"usdc","inputs":[],"outputs":[{"name":"","type":"address","internalType":"contract IERC20"}],"stateMutability":"view"},{"type":"function","name":"withdrawAll","inputs":[{"name":"to","type":"address","internalType":"address"}],"outputs":[],"stateMutability":"nonpayable"},{"type":"function","name":"withdrawFunds","inputs":[{"name":"to","type":"address","internalType":"address"},{"name":"amount","type":"uint256","internalType":"uint256"}],"outputs":[],"stateMutability":"nonpayable"},{"type":"event","name":"FundsWithdrawn","inputs":[{"name":"to","type":"address","indexed":true,"internalType":"address"},{"name":"amount","type":"uint256","indexed":false,"internalType":"uint256"}],"anonymous":false},{"type":"event","name":"GiftcardPurchased","inputs":[{"name":"buyer","type":"address","indexed":true,"internalType":"address"},{"name":"price","type":"uint256","indexed":false,"internalType":"uint256"}],"anonymous":false},{"type":"event","name":"Initialized","inputs":[{"name":"version","type":"uint64","indexed":false,"internalType":"uint64"}],"anonymous":false},{"type":"event","name":"MarketingPayment","inputs":[{"name":"to","type":"address","indexed":true,"internalType":"address"},{"name":"amount","type":"uint256","indexed":false,"internalType":"uint256"}],"anonymous":false},{"type":"event","name":"Paused","inputs":[{"name":"account","type":"address","indexed":false,"internalType":"address"}],"anonymous":false},{"type":"event","name":"PriceUpdated","inputs":[{"name":"oldPrice","type":"uint256","indexed":false,"internalType":"uint256"},{"name":"newPrice","type":"uint256","indexed":false,"internalType":"uint256"}],"anonymous":false},{"type":"event","name":"RoleAdminChanged","inputs":[{"name":"role","type":"bytes32","indexed":true,"internalType":"bytes32"},{"name":"previousAdminRole","type":"bytes32","indexed":true,"internalType":"bytes32"},{"name":"newAdminRole","type":"bytes32","indexed":true,"internalType":"bytes32"}],"anonymous":false},{"type":"event","name":"RoleGranted","inputs":[{"name":"role","type":"bytes32","indexed":true,"internalType":"bytes32"},{"name":"account","type":"address","indexed":true,"internalType":"address"},{"name":"sender","type":"address","indexed":true,"internalType":"address"}],"anonymous":false},{"type":"event","name":"RoleRevoked","inputs":[{"name":"role","type":"bytes32","indexed":true,"internalType":"bytes32"},{"name":"account","type":"address","indexed":true,"internalType":"address"},{"name":"sender","type":"address","indexed":true,"internalType":"address"}],"anonymous":false},{"type":"event","name":"Unpaused","inputs":[{"name":"account","type":"address","indexed":false,"internalType":"address"}],"anonymous":false},{"type":"event","name":"Upgraded","inputs":[{"name":"implementation","type":"address","indexed":true,"internalType":"address"}],"anonymous":false},{"type":"error","name":"AccessControlBadConfirmation","inputs":[]},{"type":"error","name":"AccessControlUnauthorizedAccount","inputs":[{"name":"account","type":"address","internalType":"address"},{"name":"neededRole","type":"bytes32","internalType":"bytes32"}]},{"type":"error","name":"AddressEmptyCode","inputs":[{"name":"target","type":"address","internalType":"address"}]},{"type":"error","name":"ERC1967InvalidImplementation","inputs":[{"name":"implementation","type":"address","internalType":"address"}]},{"type":"error","name":"ERC1967NonPayable","inputs":[]},{"type":"error","name":"EnforcedPause","inputs":[]},{"type":"error","name":"ExpectedPause","inputs":[]},{"type":"error","name":"FailedCall","inputs":[]},{"type":"error","name":"InvalidInitialization","inputs":[]},{"type":"error","name":"NotInitializing","inputs":[]},{"type":"error","name":"UUPSUnauthorizedCallContext","inputs":[]},{"type":"error","name":"UUPSUnsupportedProxiableUUID","inputs":[{"name":"slot","type":"bytes32","internalType":"bytes32"}]}],"bytecode":{"object":"0x60a060405230608052348015610013575f80fd5b5061001c610021565b6100d3565b7ff0c57e16840df040f15088dc2f81fe391c3923bec73e23a9662efc9c229c6a00805468010000000000000000900460ff16156100715760405163f92ee8a960e01b815260040160405180910390fd5b80546001600160401b03908116146100d05780546001600160401b0319166001600160401b0390811782556040519081527fc7f505b2f371ae2175ee4913f4499e1f2633a7b5936321eed1cdaeb6115181d29060200160405180910390a15b50565b608051611dcd6100f95f395f81816115d0015281816115f9015261173a0152611dcd5ff3fe6080604052600436106101d0575f3560e01c80638456cb59116100fd578063c107532911610092578063d580c5be11610062578063d580c5be14610534578063f1d2661214610567578063f5b541a614610586578063fa09e630146105a6575f80fd5b8063c1075329146104ae578063c59d4847146104cd578063cc702eec14610501578063d547741f14610515575f80fd5b8063a217fddf116100cd578063a217fddf1461042a578063ad3cb1cc1461043d578063b3e089a21461047a578063bf2d9e0b14610499575f80fd5b80638456cb59146103b857806385f438c1146103cc5780638d6cc56d146103ec57806391d148541461040b575f80fd5b80633e413bee116101735780635962a941116101435780635962a941146103395780635c975abb1461034e5780636f9fb98a1461037157806375b238fc14610385575f80fd5b80633e413bee146102c85780633f4ba83a146102fe5780634f1ef2861461031257806352d1902d14610325575f80fd5b8063248a9ca3116101ae578063248a9ca314610248578063282abe05146102755780632f2ff15d1461028a57806336568abe146102a9575f80fd5b806301ffc9a7146101d45780630808f3eb146102085780631794bb3c14610227575b5f80fd5b3480156101df575f80fd5b506101f36101ee366004611a66565b6105c5565b60405190151581526020015b60405180910390f35b348015610213575f80fd5b506101f3610222366004611aa8565b6105fb565b348015610232575f80fd5b50610246610241366004611ac1565b61061b565b005b348015610253575f80fd5b50610267610262366004611afa565b610899565b6040519081526020016101ff565b348015610280575f80fd5b5061026760015481565b348015610295575f80fd5b506102466102a4366004611b11565b6108b9565b3480156102b4575f80fd5b506102466102c3366004611b11565b6108db565b3480156102d3575f80fd5b505f546102e6906001600160a01b031681565b6040516001600160a01b0390911681526020016101ff565b348015610309575f80fd5b50610246610913565b610246610320366004611b4f565b610935565b348015610330575f80fd5b50610267610954565b348015610344575f80fd5b5061026760025481565b348015610359575f80fd5b505f80516020611d788339815191525460ff166101f3565b34801561037c575f80fd5b5061026761096f565b348015610390575f80fd5b506102677fa49807205ce4d355092ef5a8a18f56e8913cf4a201fbe287825b095693c2177581565b3480156103c3575f80fd5b506102466109de565b3480156103d7575f80fd5b506102675f80516020611d3883398151915281565b3480156103f7575f80fd5b50610246610406366004611afa565b6109fd565b348015610416575f80fd5b506101f3610425366004611b11565b610aa9565b348015610435575f80fd5b506102675f81565b348015610448575f80fd5b5061046d604051806040016040528060058152602001640352e302e360dc1b81525081565b6040516101ff9190611c2d565b348015610485575f80fd5b50610246610494366004611aa8565b610adf565b3480156104a4575f80fd5b5061026760035481565b3480156104b9575f80fd5b506102466104c8366004611c5f565b610b78565b3480156104d8575f80fd5b506104e1610dd0565b6040805194855260208501939093529183015260608201526080016101ff565b34801561050c575f80fd5b50610246610e5d565b348015610520575f80fd5b5061024661052f366004611b11565b610f87565b34801561053f575f80fd5b506102677ff11e76a6a0ebfd82a6dac4c13279f2eee5ef0db58bafadb1e3548815c1c0080581565b348015610572575f80fd5b50610246610581366004611c5f565b610fa3565b348015610591575f80fd5b506102675f80516020611d1883398151915281565b3480156105b1575f80fd5b506102466105c0366004611aa8565b611211565b5f6001600160e01b03198216637965db0b60e01b14806105f557506301ffc9a760e01b6001600160e01b03198316145b92915050565b5f6106145f80516020611d788339815191525460ff1690565b1592915050565b5f610624611410565b805490915060ff600160401b820416159067ffffffffffffffff165f8115801561064b5750825b90505f8267ffffffffffffffff1660011480156106675750303b155b905081158015610675575080155b156106935760405163f92ee8a960e01b815260040160405180910390fd5b845467ffffffffffffffff1916600117855583156106bd57845460ff60401b1916600160401b1785555b6001600160a01b03881661070f5760405162461bcd60e51b8152602060048201526014602482015273496e76616c69642055534443206164647265737360601b60448201526064015b60405180910390fd5b6001600160a01b03871661075d5760405162461bcd60e51b8152602060048201526015602482015274496e76616c69642061646d696e206164647265737360581b6044820152606401610706565b5f86116107ac5760405162461bcd60e51b815260206004820152601c60248201527f5072696365206d7573742062652067726561746572207468616e2030000000006044820152606401610706565b6107b4611438565b6107bc611438565b6107c4611438565b5f80546001600160a01b0319166001600160a01b038a1617815560018790556107ed9088611442565b506108187fa49807205ce4d355092ef5a8a18f56e8913cf4a201fbe287825b095693c2177588611442565b506108305f80516020611d1883398151915288611442565b506108485f80516020611d3883398151915288611442565b50831561088f57845460ff60401b19168555604051600181527fc7f505b2f371ae2175ee4913f4499e1f2633a7b5936321eed1cdaeb6115181d29060200160405180910390a15b5050505050505050565b5f9081525f80516020611d58833981519152602052604090206001015490565b6108c282610899565b6108cb816114e3565b6108d58383611442565b50505050565b6001600160a01b03811633146109045760405163334bd91960e11b815260040160405180910390fd5b61090e82826114ed565b505050565b5f80516020611d1883398151915261092a816114e3565b610932611566565b50565b61093d6115c5565b61094682611669565b6109508282611673565b5050565b5f61095d61172f565b505f80516020611cf883398151915290565b5f80546040516370a0823160e01b81523060048201526001600160a01b03909116906370a0823190602401602060405180830381865afa1580156109b5573d5f803e3d5ffd5b505050506040513d601f19601f820116820180604052508101906109d99190611c87565b905090565b5f80516020611d188339815191526109f5816114e3565b610932611778565b5f80516020611d18833981519152610a14816114e3565b5f8211610a635760405162461bcd60e51b815260206004820152601c60248201527f5072696365206d7573742062652067726561746572207468616e2030000000006044820152606401610706565b600180549083905560408051828152602081018590527f945c1c4e99aa89f648fbfe3df471b916f719e16d960fcec0737d4d56bd696838910160405180910390a1505050565b5f9182525f80516020611d58833981519152602090815260408084206001600160a01b0393909316845291905290205460ff1690565b7fa49807205ce4d355092ef5a8a18f56e8913cf4a201fbe287825b095693c21775610b09816114e3565b6001600160a01b038216610b565760405162461bcd60e51b8152602060048201526014602482015273496e76616c69642055534443206164647265737360601b6044820152606401610706565b505f80546001600160a01b0319166001600160a01b0392909216919091179055565b5f80516020611d38833981519152610b8f816114e3565b6001600160a01b038316610bd95760405162461bcd60e51b8152602060048201526011602482015270125b9d985b1a59081c9958da5c1a595b9d607a1b6044820152606401610706565b5f8211610c285760405162461bcd60e51b815260206004820152601d60248201527f416d6f756e74206d7573742062652067726561746572207468616e20300000006044820152606401610706565b5f546040516370a0823160e01b81523060048201526001600160a01b03909116906370a0823190602401602060405180830381865afa158015610c6d573d5f803e3d5ffd5b505050506040513d601f19601f82011682018060405250810190610c919190611c87565b821115610cd75760405162461bcd60e51b8152602060048201526014602482015273496e73756666696369656e742062616c616e636560601b6044820152606401610706565b5f5460405163a9059cbb60e01b81526001600160a01b038581166004830152602482018590529091169063a9059cbb906044016020604051808303815f875af1158015610d26573d5f803e3d5ffd5b505050506040513d601f19601f82011682018060405250810190610d4a9190611c9e565b610d885760405162461bcd60e51b815260206004820152600f60248201526e15da5d1a191c985dc819985a5b1959608a1b6044820152606401610706565b826001600160a01b03167feaff4b37086828766ad3268786972c0cd24259d4c87a80f9d3963a3c3d999b0d83604051610dc391815260200190565b60405180910390a2505050565b6001546002546003545f80546040516370a0823160e01b815230600482015291948594859485949293919290916001600160a01b0316906370a0823190602401602060405180830381865afa158015610e2b573d5f803e3d5ffd5b505050506040513d601f19601f82011682018060405250810190610e4f9190611c87565b935093509350935090919293565b610e656117c0565b5f546001546040516323b872dd60e01b815233600482015230602482015260448101919091526001600160a01b03909116906323b872dd906064016020604051808303815f875af1158015610ebc573d5f803e3d5ffd5b505050506040513d601f19601f82011682018060405250810190610ee09190611c9e565b610f1d5760405162461bcd60e51b815260206004820152600e60248201526d14185e5b595b9d0819985a5b195960921b6044820152606401610706565b600160025f828254610f2f9190611cbd565b9091555050600154600380545f90610f48908490611cbd565b909155505060015460405190815233907fd0ffaf6c6e049ad3881ffbbd4b8d7a49e7864fdae39753af41156fa08ad6b7609060200160405180910390a2565b610f9082610899565b610f99816114e3565b6108d583836114ed565b7ff11e76a6a0ebfd82a6dac4c13279f2eee5ef0db58bafadb1e3548815c1c00805610fcd816114e3565b6001600160a01b0383166110195760405162461bcd60e51b815260206004820152601360248201527224b73b30b634b2103232b9ba34b730ba34b7b760691b6044820152606401610706565b5f82116110685760405162461bcd60e51b815260206004820152601d60248201527f416d6f756e74206d7573742062652067726561746572207468616e20300000006044820152606401610706565b5f546040516370a0823160e01b81523060048201526001600160a01b03909116906370a0823190602401602060405180830381865afa1580156110ad573d5f803e3d5ffd5b505050506040513d601f19601f820116820180604052508101906110d19190611c87565b8211156111175760405162461bcd60e51b8152602060048201526014602482015273496e73756666696369656e742062616c616e636560601b6044820152606401610706565b5f5460405163a9059cbb60e01b81526001600160a01b038581166004830152602482018590529091169063a9059cbb906044016020604051808303815f875af1158015611166573d5f803e3d5ffd5b505050506040513d601f19601f8201168201806040525081019061118a9190611c9e565b6111d65760405162461bcd60e51b815260206004820152601860248201527f4d61726b6574696e67207061796d656e74206661696c656400000000000000006044820152606401610706565b826001600160a01b03167fc4137181ad3ea197a74c517d9a72ec2ef169d74054160f4051be51eb6ab5f43083604051610dc391815260200190565b5f80516020611d38833981519152611228816114e3565b5f80546040516370a0823160e01b81523060048201526001600160a01b03909116906370a0823190602401602060405180830381865afa15801561126e573d5f803e3d5ffd5b505050506040513d601f19601f820116820180604052508101906112929190611c87565b90505f81116112da5760405162461bcd60e51b81526020600482015260146024820152734e6f2066756e647320746f20776974686472617760601b6044820152606401610706565b6001600160a01b0383166113245760405162461bcd60e51b8152602060048201526011602482015270125b9d985b1a59081c9958da5c1a595b9d607a1b6044820152606401610706565b5f5460405163a9059cbb60e01b81526001600160a01b038581166004830152602482018490529091169063a9059cbb906044016020604051808303815f875af1158015611373573d5f803e3d5ffd5b505050506040513d601f19601f820116820180604052508101906113979190611c9e565b6113d55760405162461bcd60e51b815260206004820152600f60248201526e15da5d1a191c985dc819985a5b1959608a1b6044820152606401610706565b826001600160a01b03167feaff4b37086828766ad3268786972c0cd24259d4c87a80f9d3963a3c3d999b0d82604051610dc391815260200190565b5f807ff0c57e16840df040f15088dc2f81fe391c3923bec73e23a9662efc9c229c6a006105f5565b6114406117f0565b565b5f5f80516020611d5883398151915261145b8484610aa9565b6114da575f848152602082815260408083206001600160a01b03871684529091529020805460ff191660011790556114903390565b6001600160a01b0316836001600160a01b0316857f2f8788117e7eff1d82e926ec794901d17c78024a50270940304540a733656f0d60405160405180910390a460019150506105f5565b5f9150506105f5565b6109328133611815565b5f5f80516020611d588339815191526115068484610aa9565b156114da575f848152602082815260408083206001600160a01b0387168085529252808320805460ff1916905551339287917ff6391f5c32d9c69d2a47ea670b442974b53935d1edc7fd64eb21e047a839171b9190a460019150506105f5565b61156e61184e565b5f80516020611d78833981519152805460ff191681557f5db9ee0a495bf2e6ff9c91a7834c1ba4fdd244a5e8aa4e537bd38aeae4b073aa335b6040516001600160a01b03909116815260200160405180910390a150565b306001600160a01b037f000000000000000000000000000000000000000000000000000000000000000016148061164b57507f00000000000000000000000000000000000000000000000000000000000000006001600160a01b031661163f5f80516020611cf8833981519152546001600160a01b031690565b6001600160a01b031614155b156114405760405163703e46dd60e11b815260040160405180910390fd5b5f610950816114e3565b816001600160a01b03166352d1902d6040518163ffffffff1660e01b8152600401602060405180830381865afa9250505080156116cd575060408051601f3d908101601f191682019092526116ca91810190611c87565b60015b6116f557604051634c9c8ce360e01b81526001600160a01b0383166004820152602401610706565b5f80516020611cf8833981519152811461172557604051632a87526960e21b815260048101829052602401610706565b61090e838361187d565b306001600160a01b037f000000000000000000000000000000000000000000000000000000000000000016146114405760405163703e46dd60e11b815260040160405180910390fd5b6117806117c0565b5f80516020611d78833981519152805460ff191660011781557f62e78cea01bee320cd4e420270b5ea74000d11b0c9f74754ebdbfc544b05a258336115a7565b5f80516020611d788339815191525460ff16156114405760405163d93c066560e01b815260040160405180910390fd5b6117f86118d2565b61144057604051631afcd79f60e31b815260040160405180910390fd5b61181f8282610aa9565b6109505760405163e2517d3f60e01b81526001600160a01b038216600482015260248101839052604401610706565b5f80516020611d788339815191525460ff1661144057604051638dfc202b60e01b815260040160405180910390fd5b611886826118eb565b6040516001600160a01b038316907fbc7cd75a20ee27fd9adebab32041f755214dbc6bffa90cc0225b39da2e5c2d3b905f90a28051156118ca5761090e828261194e565b6109506119c0565b5f6118db611410565b54600160401b900460ff16919050565b806001600160a01b03163b5f0361192057604051634c9c8ce360e01b81526001600160a01b0382166004820152602401610706565b5f80516020611cf883398151915280546001600160a01b0319166001600160a01b0392909216919091179055565b60605f80846001600160a01b03168460405161196a9190611cdc565b5f60405180830381855af49150503d805f81146119a2576040519150601f19603f3d011682016040523d82523d5f602084013e6119a7565b606091505b50915091506119b78583836119df565b95945050505050565b34156114405760405163b398979f60e01b815260040160405180910390fd5b6060826119f4576119ef82611a3e565b611a37565b8151158015611a0b57506001600160a01b0384163b155b15611a3457604051639996b31560e01b81526001600160a01b0385166004820152602401610706565b50805b9392505050565b805115611a4d57805160208201fd5b60405163d6bda27560e01b815260040160405180910390fd5b5f60208284031215611a76575f80fd5b81356001600160e01b031981168114611a37575f80fd5b80356001600160a01b0381168114611aa3575f80fd5b919050565b5f60208284031215611ab8575f80fd5b611a3782611a8d565b5f805f60608486031215611ad3575f80fd5b611adc84611a8d565b9250611aea60208501611a8d565b9150604084013590509250925092565b5f60208284031215611b0a575f80fd5b5035919050565b5f8060408385031215611b22575f80fd5b82359150611b3260208401611a8d565b90509250929050565b634e487b7160e01b5f52604160045260245ffd5b5f8060408385031215611b60575f80fd5b611b6983611a8d565b9150602083013567ffffffffffffffff80821115611b85575f80fd5b818501915085601f830112611b98575f80fd5b813581811115611baa57611baa611b3b565b604051601f8201601f19908116603f01168101908382118183101715611bd257611bd2611b3b565b81604052828152886020848701011115611bea575f80fd5b826020860160208301375f6020848301015280955050505050509250929050565b5f5b83811015611c25578181015183820152602001611c0d565b50505f910152565b602081525f8251806020840152611c4b816040850160208701611c0b565b601f01601f19169190910160400192915050565b5f8060408385031215611c70575f80fd5b611c7983611a8d565b946020939093013593505050565b5f60208284031215611c97575f80fd5b5051919050565b5f60208284031215611cae575f80fd5b81518015158114611a37575f80fd5b808201808211156105f557634e487b7160e01b5f52601160045260245ffd5b5f8251611ced818460208701611c0b565b919091019291505056fe360894a13ba1a3210667c828492db98dca3e2076cc3735a920a3ca505d382bbc97667070c54ef182b0f5858b034beac1b6f3089aa2d3188bb1e8929f4fa9b92910dac8c06a04bec0b551627dad28bc00d6516b0caacd1c7b345fcdb5211334e402dd7bc7dec4dceedda775e58dd541e08a116c6c53815c0bd028192f7b626800cd5ed15c6e187e77e9aee88184c21f4f2182ab5827cb3b7e07fbedcd63f03300a264697066735822122062bc581e2031bfd6481b6eb5ae37d2d9b5bbcb09f4678d2b1dd2d0dcee52ccae64736f6c63430008180033","linkReferences":{}},"methodIdentifiers":{"ADMIN_ROLE()":"75b238fc","DEFAULT_ADMIN_ROLE()":"a217fddf","MARKETING_BUDGET_ROLE()":"d580c5be","OPERATOR_ROLE()":"f5b541a6","UPGRADE_INTERFACE_VERSION()":"ad3cb1cc","WITHDRAWER_ROLE()":"85f438c1","buyGiftcard()":"cc702eec","canBuy(address)":"0808f3eb","getContractBalance()":"6f9fb98a","getRoleAdmin(bytes32)":"248a9ca3","getStats()":"c59d4847","giftcardPrice()":"282abe05","grantRole(bytes32,address)":"2f2ff15d","hasRole(bytes32,address)":"91d14854","initialize(address,address,uint256)":"1794bb3c","pause()":"8456cb59","paused()":"5c975abb","payMarketing(address,uint256)":"f1d26612","proxiableUUID()":"52d1902d","renounceRole(bytes32,address)":"36568abe","revokeRole(bytes32,address)":"d547741f","setUSDC(address)":"b3e089a2","supportsInterface(bytes4)":"01ffc9a7","totalPurchases()":"5962a941","totalRevenue()":"bf2d9e0b","unpause()":"3f4ba83a","updatePrice(uint256)":"8d6cc56d","upgradeToAndCall(address,bytes)":"4f1ef286","usdc()":"3e413bee","withdrawAll(address)":"fa09e630","withdrawFunds(address,uint256)":"c1075329"},"id":44}