{"abi":[{"type":"constructor","inputs":[],"stateMutability":"nonpayable"},{"type":"function","name":"ADMIN_ROLE","inputs":[],"outputs":[{"name":"","type":"bytes32","internalType":"bytes32"}],"stateMutability":"view"},{"type":"function","name":"DEFAULT_ADMIN_ROLE","inputs":[],"outputs":[{"name":"","type":"bytes32","internalType":"bytes32"}],"stateMutability":"view"},{"type":"function","name":"MARKETING_BUDGET_ROLE","inputs":[],"outputs":[{"name":"","type":"bytes32","internalType":"bytes32"}],"stateMutability":"view"},{"type":"function","name":"OPERATOR_ROLE","inputs":[],"outputs":[{"name":"","type":"bytes32","internalType":"bytes32"}],"stateMutability":"view"},{"type":"function","name":"UPGRADE_INTERFACE_VERSION","inputs":[],"outputs":[{"name":"","type":"string","internalType":"string"}],"stateMutability":"view"},{"type":"function","name":"WITHDRAWER_ROLE","inputs":[],"outputs":[{"name":"","type":"bytes32","internalType":"bytes32"}],"stateMutability":"view"},{"type":"function","name":"buyGiftcard","inputs":[],"outputs":[],"stateMutability":"nonpayable"},{"type":"function","name":"canBuy","inputs":[{"name":"buyer","type":"address","internalType":"address"}],"outputs":[{"name":"","type":"bool","internalType":"bool"}],"stateMutability":"view"},{"type":"function","name":"getContractBalance","inputs":[],"outputs":[{"name":"","type":"uint256","internalType":"uint256"}],"stateMutability":"view"},{"type":"function","name":"getRoleAdmin","inputs":[{"name":"role","type":"bytes32","internalType":"bytes32"}],"outputs":[{"name":"","type":"bytes32","internalType":"bytes32"}],"stateMutability":"view"},{"type":"function","name":"getStats","inputs":[],"outputs":[{"name":"price","type":"uint256","internalType":"uint256"},{"name":"purchases","type":"uint256","internalType":"uint256"},{"name":"revenue","type":"uint256","internalType":"uint256"},{"name":"balance","type":"uint256","internalType":"uint256"}],"stateMutability":"view"},{"type":"function","name":"giftcardPrice","inputs":[],"outputs":[{"name":"","type":"uint256","internalType":"uint256"}],"stateMutability":"view"},{"type":"function","name":"grantRole","inputs":[{"name":"role","type":"bytes32","internalType":"bytes32"},{"name":"account","type":"address","internalType":"address"}],"outputs":[],"stateMutability":"nonpayable"},{"type":"function","name":"hasRole","inputs":[{"name":"role","type":"bytes32","internalType":"bytes32"},{"name":"account","type":"address","internalType":"address"}],"outputs":[{"name":"","type":"bool","internalType":"bool"}],"stateMutability":"view"},{"type":"function","name":"initialize","inputs":[{"name":"_usdc","type":"address","internalType":"address"},{"name":"_admin","type":"address","internalType":"address"},{"name":"_initialPrice","type":"uint256","internalType":"uint256"}],"outputs":[],"stateMutability":"nonpayable"},{"type":"function","name":"pause","inputs":[],"outputs":[],"stateMutability":"nonpayable"},{"type":"function","name":"paused","inputs":[],"outputs":[{"name":"","type":"bool","internalType":"bool"}],"stateMutability":"view"},{"type":"function","name":"payMarketing","inputs":[{"name":"destination","type":"address","internalType":"address"},{"name":"amount","type":"uint256","internalType":"uint256"}],"outputs":[],"stateMutability":"nonpayable"},{"type":"function","name":"proxiableUUID","inputs":[],"outputs":[{"name":"","type":"bytes32","internalType":"bytes32"}],"stateMutability":"view"},{"type":"function","name":"renounceRole","inputs":[{"name":"role","type":"bytes32","internalType":"bytes32"},{"name":"callerConfirmation","type":"address","internalType":"address"}],"outputs":[],"stateMutability":"nonpayable"},{"type":"function","name":"revokeRole","inputs":[{"name":"role","type":"bytes32","internalType":"bytes32"},{"name":"account","type":"address","internalType":"address"}],"outputs":[],"stateMutability":"nonpayable"},{"type":"function","name":"setUSDC","inputs":[{"name":"_usdc","type":"address","internalType":"address"}],"outputs":[],"stateMutability":"nonpayable"},{"type":"function","name":"supportsInterface","inputs":[{"name":"interfaceId","type":"bytes4","internalType":"bytes4"}],"outputs":[{"name":"","type":"bool","internalType":"bool"}],"stateMutability":"view"},{"type":"function","name":"totalPurchases","inputs":[],"outputs":[{"name":"","type":"uint256","internalType":"uint256"}],"stateMutability":"view"},{"type":"function","name":"totalRevenue","inputs":[],"outputs":[{"name":"","type":"uint256","internalType":"uint256"}],"stateMutability":"view"},{"type":"function","name":"unpause","inputs":[],"outputs":[],"stateMutability":"nonpayable"},{"type":"function","name":"updatePrice","inputs":[{"name":"newPrice","type":"uint256","internalType":"uint256"}],"outputs":[],"stateMutability":"nonpayable"},{"type":"function","name":"upgradeToAndCall","inputs":[{"name":"newImplementation","type":"address","internalType":"address"},{"name":"data","type":"bytes","internalType":"bytes"}],"outputs":[],"stateMutability":"payable"},{"type":"function","name":"usdc","inputs":[],"outputs":[{"name":"","type":"address","internalType":"contract IERC20"}],"stateMutability":"view"},{"type":"function","name":"withdrawAll","inputs":[{"name":"to","type":"address","internalType":"address"}],"outputs":[],"stateMutability":"nonpayable"},{"type":"function","name":"withdrawFunds","inputs":[{"name":"to","type":"address","internalType":"address"},{"name":"amount","type":"uint256","internalType":"uint256"}],"outputs":[],"stateMutability":"nonpayable"},{"type":"event","name":"FundsWithdrawn","inputs":[{"name":"to","type":"address","indexed":true,"internalType":"address"},{"name":"amount","type":"uint256","indexed":false,"internalType":"uint256"}],"anonymous":false},{"type":"event","name":"GiftcardPurchased","inputs":[{"name":"buyer","type":"address","indexed":true,"internalType":"address"},{"name":"price","type":"uint256","indexed":false,"internalType":"uint256"}],"anonymous":false},{"type":"event","name":"Initialized","inputs":[{"name":"version","type":"uint64","indexed":false,"internalType":"uint64"}],"anonymous":false},{"type":"event","name":"MarketingPayment","inputs":[{"name":"to","type":"address","indexed":true,"internalType":"address"},{"name":"amount","type":"uint256","indexed":false,"internalType":"uint256"}],"anonymous":false},{"type":"event","name":"Paused","inputs":[{"name":"account","type":"address","indexed":false,"internalType":"address"}],"anonymous":false},{"type":"event","name":"PriceUpdated","inputs":[{"name":"oldPrice","type":"uint256","indexed":false,"internalType":"uint256"},{"name":"newPrice","type":"uint256","indexed":false,"internalType":"uint256"}],"anonymous":false},{"type":"event","name":"RoleAdminChanged","inputs":[{"name":"role","type":"bytes32","indexed":true,"internalType":"bytes32"},{"name":"previousAdminRole","type":"bytes32","indexed":true,"internalType":"bytes32"},{"name":"newAdminRole","type":"bytes32","indexed":true,"internalType":"bytes32"}],"anonymous":false},{"type":"event","name":"RoleGranted","inputs":[{"name":"role","type":"bytes32","indexed":true,"internalType":"bytes32"},{"name":"account","type":"address","indexed":true,"internalType":"address"},{"name":"sender","type":"address","indexed":true,"internalType":"address"}],"anonymous":false},{"type":"event","name":"RoleRevoked","inputs":[{"name":"role","type":"bytes32","indexed":true,"internalType":"bytes32"},{"name":"account","type":"address","indexed":true,"internalType":"address"},{"name":"sender","type":"address","indexed":true,"internalType":"address"}],"anonymous":false},{"type":"event","name":"Unpaused","inputs":[{"name":"account","type":"address","indexed":false,"internalType":"address"}],"anonymous":false},{"type":"event","name":"Upgraded","inputs":[{"name":"implementation","type":"address","indexed":true,"internalType":"address"}],"anonymous":false},{"type":"error","name":"AccessControlBadConfirmation","inputs":[]},{"type":"error","name":"AccessControlUnauthorizedAccount","inputs":[{"name":"account","type":"address","internalType":"address"},{"name":"neededRole","type":"bytes32","internalType":"bytes32"}]},{"type":"error","name":"AddressEmptyCode","inputs":[{"name":"target","type":"address","internalType":"address"}]},{"type":"error","name":"ERC1967InvalidImplementation","inputs":[{"name":"implementation","type":"address","internalType":"address"}]},{"type":"error","name":"ERC1967NonPayable","inputs":[]},{"type":"error","name":"EnforcedPause","inputs":[]},{"type":"error","name":"ExpectedPause","inputs":[]},{"type":"error","name":"FailedCall","inputs":[]},{"type":"error","name":"InvalidInitialization","inputs":[]},{"type":"error","name":"NotInitializing","inputs":[]},{"type":"error","name":"UUPSUnauthorizedCallContext","inputs":[]},{"type":"error","name":"UUPSUnsupportedProxiableUUID","inputs":[{"name":"slot","type":"bytes32","internalType":"bytes32"}]}],"bytecode":{"object":"0x60a080604052346100cc57306080527ff0c57e16840df040f15088dc2f81fe391c3923bec73e23a9662efc9c229c6a009081549060ff8260401c166100bd57506001600160401b036002600160401b031982821601610078575b604051611b8890816100d18239608051818181610cbf0152610d9c0152f35b6001600160401b031990911681179091556040519081527fc7f505b2f371ae2175ee4913f4499e1f2633a7b5936321eed1cdaeb6115181d290602090a15f8080610059565b63f92ee8a960e01b8152600490fd5b5f80fdfe608060409080825260049081361015610016575f80fd5b5f3560e01c90816301ffc9a71461132c575080630808f3eb146112f45780631794bb3c14611112578063248a9ca3146110db578063282abe05146110bd5780632f2ff15d1461109457806336568abe1461104f5780633e413bee146110285780633f4ba83a14610fb25780634f1ef28614610d2357806352d1902d14610cab5780635962a94114610c8d5780635c975abb14610c5e5780636f9fb98a14610bcb57806375b238fc14610b915780638456cb5914610b2c57806385f438c114610af25780638d6cc56d14610a9457806391d1485414610a43578063a217fddf14610a29578063ad3cb1cc1461098a578063b3e089a2146108d9578063bf2d9e0b146108bb578063c1075329146107f5578063c59d48471461074c578063cc702eec14610613578063d547741f146105ca578063d580c5be14610590578063f1d266121461034e578063f5b541a6146103145763fa09e63014610175575f80fd5b346102ff576020806003193601126102ff5761018f61137e565b61019761191c565b5f5484516370a0823160e01b81523085820152916001600160a01b03918216918484602481865afa93841561030a575f946102d7575b50831561029d5761021f92825f8693889516986101eb8a151561148b565b8a5163a9059cbb60e01b81526001600160a01b03909316908301908152602081019490945290948593849291839160400190565b03925af1908115610293577feaff4b37086828766ad3268786972c0cd24259d4c87a80f9d3963a3c3d999b0d94959161025f915f91610266575b50611572565b51908152a2005b6102869150853d871161028c575b61027e81836113aa565b81019061155a565b5f610259565b503d610274565b85513d5f823e3d90fd5b865162461bcd60e51b815280870186905260146024820152734e6f2066756e647320746f20776974686472617760601b6044820152606490fd5b9093508481813d8311610303575b6102ef81836113aa565b810103126102ff5751925f6101cd565b5f80fd5b503d6102e5565b87513d5f823e3d90fd5b82346102ff575f3660031901126102ff57602090517f97667070c54ef182b0f5858b034beac1b6f3089aa2d3188bb1e8929f4fa9b9298152f35b50346102ff57816003193601126102ff5761036761137e565b906024357ff11e76a6a0ebfd82a6dac4c13279f2eee5ef0db58bafadb1e3548815c1c0080591825f526020925f80516020611b138339815191528452855f20335f52845260ff865f2054161561057357506001600160a01b038481169490851561053a576103d68415156114cb565b5f54169086516370a0823160e01b815230848201528581602481865afa92831561053057869286925f956104f8575b5061041561044b95841115611517565b895163a9059cbb60e01b81526001600160a01b03909116868201908152602081019390935293849283915f918391604090910190565b03925af19081156104ee575f916104d1575b501561048e57507fc4137181ad3ea197a74c517d9a72ec2ef169d74054160f4051be51eb6ab5f430929351908152a2005b845162461bcd60e51b8152908101839052601860248201527f4d61726b6574696e67207061796d656e74206661696c656400000000000000006044820152606490fd5b6104e89150843d861161028c5761027e81836113aa565b5f61045d565b86513d5f823e3d90fd5b92509290935081813d8311610529575b61051281836113aa565b810103126102ff5751918591859190610415610405565b503d610508565b88513d5f823e3d90fd5b865162461bcd60e51b8152808401869052601360248201527224b73b30b634b2103232b9ba34b730ba34b7b760691b6044820152606490fd5b6044925085519163e2517d3f60e01b835233908301526024820152fd5b82346102ff575f3660031901126102ff57602090517ff11e76a6a0ebfd82a6dac4c13279f2eee5ef0db58bafadb1e3548815c1c008058152f35b5090346102ff57806003193601126102ff57610611913561060c60016105ee611394565b93835f525f80516020611b138339815191526020525f200154611977565b6119a5565b005b5090346102ff575f3660031901126102ff5761062d611a24565b5f602060018060a01b038254166064600154855194859384926323b872dd60e01b8452338a85015230602485015260448401525af1908115610742575f91610723575b50156106ef57600254600181018091116106dc5760025560015491600354908382018092116106c95750600355519081527fd0ffaf6c6e049ad3881ffbbd4b8d7a49e7864fdae39753af41156fa08ad6b76060203392a2005b601190634e487b7160e01b5f525260245ffd5b601183634e487b7160e01b5f525260245ffd5b906020606492519162461bcd60e51b8352820152600e60248201526d14185e5b595b9d0819985a5b195960921b6044820152fd5b61073c915060203d60201161028c5761027e81836113aa565b5f610670565b82513d5f823e3d90fd5b5090346102ff575f3660031901126102ff57600154906002549060035490602060018060a01b035f54169560248351809881936370a0823160e01b835230908301525afa9283156107eb575f936107b6575b60809550815194855260208501528301526060820152f35b92506020853d6020116107e3575b816107d1602093836113aa565b810103126102ff57608094519261079e565b3d91506107c4565b50513d5f823e3d90fd5b50346102ff57816003193601126102ff5761080e61137e565b9060243561081a61191c565b6001600160a01b03838116939061083285151561148b565b61083d8315156114cb565b5f54169285516370a0823160e01b815230828201526020948582602481845afa92831561053057869386935f91610882575b5061021f95916101eb5f92861115611517565b94809294508591503d83116108b4575b61089c81836113aa565b810103126102ff57915185928592909161021f61086f565b503d610892565b82346102ff575f3660031901126102ff576020906003549051908152f35b50346102ff5760203660031901126102ff576108f361137e565b917fa49807205ce4d355092ef5a8a18f56e8913cf4a201fbe287825b095693c2177590815f525f80516020611b13833981519152602052805f20335f5260205260ff815f2054161561096e576001600160a01b0384166109548115156113fc565b6bffffffffffffffffffffffff60a01b5f5416175f555f80f35b60449350519163e2517d3f60e01b835233908301526024820152fd5b5090346102ff575f3660031901126102ff578051918183019083821067ffffffffffffffff831117610a1657508152600582526020640352e302e360dc1b60208401528151928391602083528151918260208501525f5b838110610a005750505f83830185015250601f01601f19168101030190f35b81810183015187820187015286945082016109e1565b604190634e487b7160e01b5f525260245ffd5b82346102ff575f3660031901126102ff57602090515f8152f35b5090346102ff57806003193601126102ff57602091610a60611394565b90355f525f80516020611b138339815191528352815f209060018060a01b03165f52825260ff815f20541690519015158152f35b5090346102ff5760203660031901126102ff577f945c1c4e99aa89f648fbfe3df471b916f719e16d960fcec0737d4d56bd6968389135610ad26118a3565b610add81151561143f565b600154908060015582519182526020820152a1005b82346102ff575f3660031901126102ff57602090517f10dac8c06a04bec0b551627dad28bc00d6516b0caacd1c7b345fcdb5211334e48152f35b82346102ff575f3660031901126102ff5760207f62e78cea01bee320cd4e420270b5ea74000d11b0c9f74754ebdbfc544b05a25891610b696118a3565b610b71611a24565b5f80516020611b33833981519152805460ff1916600117905551338152a1005b82346102ff575f3660031901126102ff57602090517fa49807205ce4d355092ef5a8a18f56e8913cf4a201fbe287825b095693c217758152f35b5090346102ff575f3660031901126102ff575f5481516370a0823160e01b81523093810193909352602090839060249082906001600160a01b03165afa908115610c55575f91610c20575b6020925051908152f35b90506020823d602011610c4d575b81610c3b602093836113aa565b810103126102ff576020915190610c16565b3d9150610c2e565b513d5f823e3d90fd5b82346102ff575f3660031901126102ff5760209060ff5f80516020611b33833981519152541690519015158152f35b82346102ff575f3660031901126102ff576020906002549051908152f35b5090346102ff575f3660031901126102ff577f00000000000000000000000000000000000000000000000000000000000000006001600160a01b03163003610d1657602090517f360894a13ba1a3210667c828492db98dca3e2076cc3735a920a3ca505d382bbc8152f35b5163703e46dd60e11b8152fd5b50816003193601126102ff57610d3761137e565b602492833567ffffffffffffffff81116102ff57366023820112156102ff5780840135610d63816113e0565b93610d70845195866113aa565b81855260209182860193368983830101116102ff57815f928a8693018737870101526001600160a01b037f00000000000000000000000000000000000000000000000000000000000000008116308114908115610f84575b50610f74575f80525f80516020611b138339815191528352845f20335f52835260ff855f20541615610f595781169484516352d1902d60e01b8152838189818a5afa5f9181610f2a575b50610e2d5750505050505191634c9c8ce360e01b8352820152fd5b9087878794938b7f360894a13ba1a3210667c828492db98dca3e2076cc3735a920a3ca505d382bbc91828103610f155750853b15610f01575080546001600160a01b031916821790558451907fbc7cd75a20ee27fd9adebab32041f755214dbc6bffa90cc0225b39da2e5c2d3b5f80a2825115610ee75750505f6106119581925190845af4913d15610edd573d610ecf610ec6826113e0565b925192836113aa565b81525f81943d92013e611a8f565b5060609250611a8f565b9450945050505034610ef557005b63b398979f60e01b8152fd5b8651634c9c8ce360e01b8152808501849052fd5b8751632a87526960e21b815280860191909152fd5b9091508481813d8311610f52575b610f4281836113aa565b810103126102ff5751905f610e12565b503d610f38565b845163e2517d3f60e01b815233818901525f818a0152604490fd5b845163703e46dd60e11b81528790fd5b9050817f360894a13ba1a3210667c828492db98dca3e2076cc3735a920a3ca505d382bbc541614155f610dc8565b5090346102ff575f3660031901126102ff57610fcc6118a3565b5f80516020611b338339815191529182549060ff82161561101a577f5db9ee0a495bf2e6ff9c91a7834c1ba4fdd244a5e8aa4e537bd38aeae4b073aa602084868560ff1916905551338152a1005b8251638dfc202b60e01b8152fd5b82346102ff575f3660031901126102ff575f5490516001600160a01b039091168152602090f35b5090346102ff57806003193601126102ff57611069611394565b90336001600160a01b03831603611085575061061191356119a5565b5163334bd91960e11b81529050fd5b5090346102ff57806003193601126102ff5761061191356110b860016105ee611394565b611833565b82346102ff575f3660031901126102ff576020906001549051908152f35b5090346102ff5760203660031901126102ff57602091355f525f80516020611b1383398151915282526001815f2001549051908152f35b50346102ff5760603660031901126102ff5761112c61137e565b90611135611394565b6044357ff0c57e16840df040f15088dc2f81fe391c3923bec73e23a9662efc9c229c6a009384549360ff85881c16159467ffffffffffffffff8116801590816112ec575b60011490816112e2575b1590816112d9575b506112ca5767ffffffffffffffff1981166001178755856112ab575b506001600160a01b03918216916111bf8315156113fc565b84161561127057509061122c92916111d882151561143f565b6111e0611a4e565b6111e8611a4e565b6111f0611a4e565b6bffffffffffffffffffffffff60a01b5f5416175f55600155611212816115b0565b5061121c8161163a565b50611226816116e7565b5061178d565b5061123357005b805468ff00000000000000001916905551600181527fc7f505b2f371ae2175ee4913f4499e1f2633a7b5936321eed1cdaeb6115181d290602090a1005b606490602088519162461bcd60e51b83528201526015602482015274496e76616c69642061646d696e206164647265737360581b6044820152fd5b68ffffffffffffffffff1916680100000000000000011786555f6111a7565b50865163f92ee8a960e01b8152fd5b9050155f61118b565b303b159150611183565b879150611179565b82346102ff5760203660031901126102ff5760209061131161137e565b5060ff5f80516020611b338339815191525416159051908152f35b82346102ff5760203660031901126102ff57359063ffffffff60e01b82168092036102ff57602091637965db0b60e01b811490811561136d575b5015158152f35b6301ffc9a760e01b14905083611366565b600435906001600160a01b03821682036102ff57565b602435906001600160a01b03821682036102ff57565b90601f8019910116810190811067ffffffffffffffff8211176113cc57604052565b634e487b7160e01b5f52604160045260245ffd5b67ffffffffffffffff81116113cc57601f01601f191660200190565b1561140357565b60405162461bcd60e51b8152602060048201526014602482015273496e76616c69642055534443206164647265737360601b6044820152606490fd5b1561144657565b60405162461bcd60e51b815260206004820152601c60248201527f5072696365206d7573742062652067726561746572207468616e2030000000006044820152606490fd5b1561149257565b60405162461bcd60e51b8152602060048201526011602482015270125b9d985b1a59081c9958da5c1a595b9d607a1b6044820152606490fd5b156114d257565b60405162461bcd60e51b815260206004820152601d60248201527f416d6f756e74206d7573742062652067726561746572207468616e20300000006044820152606490fd5b1561151e57565b60405162461bcd60e51b8152602060048201526014602482015273496e73756666696369656e742062616c616e636560601b6044820152606490fd5b908160209103126102ff575180151581036102ff5790565b1561157957565b60405162461bcd60e51b815260206004820152600f60248201526e15da5d1a191c985dc819985a5b1959608a1b6044820152606490fd5b6001600160a01b03165f8181527fb7db2dd08fcb62d0c9e08c51941cae53c267786a0b75803fb7960902fc8ef97d60205260409020545f80516020611b138339815191529060ff16611634575f805260205260405f20815f5260205260405f20600160ff1982541617905533905f5f80516020611af38339815191528180a4600190565b50505f90565b6001600160a01b03165f8181527fb16e88c42fd4e48df2dd6a2eabd6bc9aec654ec170056b470819f8892cc6431c60205260409020547fa49807205ce4d355092ef5a8a18f56e8913cf4a201fbe287825b095693c2177591905f80516020611b138339815191529060ff166116e057825f5260205260405f20815f5260205260405f20600160ff1982541617905533915f80516020611af38339815191525f80a4600190565b5050505f90565b6001600160a01b03165f8181527f448256db8f8fb95ee3eaaf89c1051414494e85cebb6057fcf996cc3d0ccfb45660205260409020547f97667070c54ef182b0f5858b034beac1b6f3089aa2d3188bb1e8929f4fa9b92991905f80516020611b138339815191529060ff166116e057825f5260205260405f20815f5260205260405f20600160ff1982541617905533915f80516020611af38339815191525f80a4600190565b6001600160a01b03165f8181527f395f4e35a18c2b5e556b3b2ff855307e76c0b3cc1ca71e19a70e83037e08e7b360205260409020547f10dac8c06a04bec0b551627dad28bc00d6516b0caacd1c7b345fcdb5211334e491905f80516020611b138339815191529060ff166116e057825f5260205260405f20815f5260205260405f20600160ff1982541617905533915f80516020611af38339815191525f80a4600190565b90815f525f80516020611b138339815191528060205260405f209160018060a01b031691825f5260205260ff60405f205416155f146116e057825f5260205260405f20815f5260205260405f20600160ff1982541617905533915f80516020611af38339815191525f80a4600190565b335f9081527f448256db8f8fb95ee3eaaf89c1051414494e85cebb6057fcf996cc3d0ccfb45660205260409020547f97667070c54ef182b0f5858b034beac1b6f3089aa2d3188bb1e8929f4fa9b9299060ff16156118fe5750565b6044906040519063e2517d3f60e01b82523360048301526024820152fd5b335f9081527f395f4e35a18c2b5e556b3b2ff855307e76c0b3cc1ca71e19a70e83037e08e7b360205260409020547f10dac8c06a04bec0b551627dad28bc00d6516b0caacd1c7b345fcdb5211334e49060ff16156118fe5750565b805f525f80516020611b1383398151915260205260405f20335f5260205260ff60405f205416156118fe5750565b90815f525f80516020611b138339815191528060205260405f209160018060a01b031691825f5260205260ff60405f2054165f146116e057825f5260205260405f20815f5260205260405f2060ff19815416905533917ff6391f5c32d9c69d2a47ea670b442974b53935d1edc7fd64eb21e047a839171b5f80a4600190565b60ff5f80516020611b338339815191525416611a3c57565b60405163d93c066560e01b8152600490fd5b60ff7ff0c57e16840df040f15088dc2f81fe391c3923bec73e23a9662efc9c229c6a005460401c1615611a7d57565b604051631afcd79f60e31b8152600490fd5b90611ab65750805115611aa457602081519101fd5b60405163d6bda27560e01b8152600490fd5b81511580611ae9575b611ac7575090565b604051639996b31560e01b81526001600160a01b039091166004820152602490fd5b50803b15611abf56fe2f8788117e7eff1d82e926ec794901d17c78024a50270940304540a733656f0d02dd7bc7dec4dceedda775e58dd541e08a116c6c53815c0bd028192f7b626800cd5ed15c6e187e77e9aee88184c21f4f2182ab5827cb3b7e07fbedcd63f03300a2646970667358221220066a44b3fb64f40c5ee36af8fe4ec332cf12070151befa05fc0e4b780cd051a664736f6c63430008180033","linkReferences":{}},"methodIdentifiers":{"ADMIN_ROLE()":"75b238fc","DEFAULT_ADMIN_ROLE()":"a217fddf","MARKETING_BUDGET_ROLE()":"d580c5be","OPERATOR_ROLE()":"f5b541a6","UPGRADE_INTERFACE_VERSION()":"ad3cb1cc","WITHDRAWER_ROLE()":"85f438c1","buyGiftcard()":"cc702eec","canBuy(address)":"0808f3eb","getContractBalance()":"6f9fb98a","getRoleAdmin(bytes32)":"248a9ca3","getStats()":"c59d4847","giftcardPrice()":"282abe05","grantRole(bytes32,address)":"2f2ff15d","hasRole(bytes32,address)":"91d14854","initialize(address,address,uint256)":"1794bb3c","pause()":"8456cb59","paused()":"5c975abb","payMarketing(address,uint256)":"f1d26612","proxiableUUID()":"52d1902d","renounceRole(bytes32,address)":"36568abe","revokeRole(bytes32,address)":"d547741f","setUSDC(address)":"b3e089a2","supportsInterface(bytes4)":"01ffc9a7","totalPurchases()":"5962a941","totalRevenue()":"bf2d9e0b","unpause()":"3f4ba83a","updatePrice(uint256)":"8d6cc56d","upgradeToAndCall(address,bytes)":"4f1ef286","usdc()":"3e413bee","withdrawAll(address)":"fa09e630","withdrawFunds(address,uint256)":"c1075329"},"id":40}