{"abi":[{"type":"constructor","inputs":[],"stateMutability":"nonpayable"},{"type":"function","name":"ADMIN_ROLE","inputs":[],"outputs":[{"name":"","type":"bytes32","internalType":"bytes32"}],"stateMutability":"view"},{"type":"function","name":"COMMISSION_CLAIMER_ROLE","inputs":[],"outputs":[{"name":"","type":"bytes32","internalType":"bytes32"}],"stateMutability":"view"},{"type":"function","name":"DEFAULT_ADMIN_ROLE","inputs":[],"outputs":[{"name":"","type":"bytes32","internalType":"bytes32"}],"stateMutability":"view"},{"type":"function","name":"EXPECTED_PURCHASE_AMOUNT","inputs":[],"outputs":[{"name":"","type":"uint256","internalType":"uint256"}],"stateMutability":"view"},{"type":"function","name":"OPERATOR_ROLE","inputs":[],"outputs":[{"name":"","type":"bytes32","internalType":"bytes32"}],"stateMutability":"view"},{"type":"function","name":"PROMO_FIRST_TIER","inputs":[],"outputs":[{"name":"","type":"uint256","internalType":"uint256"}],"stateMutability":"view"},{"type":"function","name":"PROMO_TIER_SIZE","inputs":[],"outputs":[{"name":"","type":"uint256","internalType":"uint256"}],"stateMutability":"view"},{"type":"function","name":"UPGRADE_INTERFACE_VERSION","inputs":[],"outputs":[{"name":"","type":"string","internalType":"string"}],"stateMutability":"view"},{"type":"function","name":"WITHDRAWER_ROLE","inputs":[],"outputs":[{"name":"","type":"bytes32","internalType":"bytes32"}],"stateMutability":"view"},{"type":"function","name":"albumPrice","inputs":[],"outputs":[{"name":"","type":"uint256","internalType":"uint256"}],"stateMutability":"view"},{"type":"function","name":"buyAlbums","inputs":[],"outputs":[],"stateMutability":"nonpayable"},{"type":"function","name":"calculateAlbumCount","inputs":[{"name":"usdcAmount","type":"uint256","internalType":"uint256"}],"outputs":[{"name":"","type":"uint256","internalType":"uint256"}],"stateMutability":"view"},{"type":"function","name":"canBuy","inputs":[{"name":"buyer","type":"address","internalType":"address"}],"outputs":[{"name":"","type":"bool","internalType":"bool"}],"stateMutability":"view"},{"type":"function","name":"claimAllReferralCommissions","inputs":[{"name":"destination","type":"address","internalType":"address"}],"outputs":[],"stateMutability":"nonpayable"},{"type":"function","name":"claimReferralCommissions","inputs":[{"name":"destination","type":"address","internalType":"address"},{"name":"amount","type":"uint256","internalType":"uint256"}],"outputs":[],"stateMutability":"nonpayable"},{"type":"function","name":"getClaimableCommission","inputs":[],"outputs":[{"name":"","type":"uint256","internalType":"uint256"}],"stateMutability":"view"},{"type":"function","name":"getContractBalance","inputs":[],"outputs":[{"name":"","type":"uint256","internalType":"uint256"}],"stateMutability":"view"},{"type":"function","name":"getCurrentCommissionRate","inputs":[],"outputs":[{"name":"","type":"uint256","internalType":"uint256"}],"stateMutability":"view"},{"type":"function","name":"getExpectedAlbumCount","inputs":[],"outputs":[{"name":"","type":"uint256","internalType":"uint256"}],"stateMutability":"view"},{"type":"function","name":"getRoleAdmin","inputs":[{"name":"role","type":"bytes32","internalType":"bytes32"}],"outputs":[{"name":"","type":"bytes32","internalType":"bytes32"}],"stateMutability":"view"},{"type":"function","name":"getStats","inputs":[],"outputs":[{"name":"price","type":"uint256","internalType":"uint256"},{"name":"purchases","type":"uint256","internalType":"uint256"},{"name":"revenue","type":"uint256","internalType":"uint256"},{"name":"balance","type":"uint256","internalType":"uint256"}],"stateMutability":"view"},{"type":"function","name":"grantRole","inputs":[{"name":"role","type":"bytes32","internalType":"bytes32"},{"name":"account","type":"address","internalType":"address"}],"outputs":[],"stateMutability":"nonpayable"},{"type":"function","name":"hasRole","inputs":[{"name":"role","type":"bytes32","internalType":"bytes32"},{"name":"account","type":"address","internalType":"address"}],"outputs":[{"name":"","type":"bool","internalType":"bool"}],"stateMutability":"view"},{"type":"function","name":"initialize","inputs":[{"name":"_usdc","type":"address","internalType":"address"},{"name":"_admin","type":"address","internalType":"address"},{"name":"_initialPrice","type":"uint256","internalType":"uint256"}],"outputs":[],"stateMutability":"nonpayable"},{"type":"function","name":"pause","inputs":[],"outputs":[],"stateMutability":"nonpayable"},{"type":"function","name":"paused","inputs":[],"outputs":[{"name":"","type":"bool","internalType":"bool"}],"stateMutability":"view"},{"type":"function","name":"proxiableUUID","inputs":[],"outputs":[{"name":"","type":"bytes32","internalType":"bytes32"}],"stateMutability":"view"},{"type":"function","name":"renounceRole","inputs":[{"name":"role","type":"bytes32","internalType":"bytes32"},{"name":"callerConfirmation","type":"address","internalType":"address"}],"outputs":[],"stateMutability":"nonpayable"},{"type":"function","name":"revokeRole","inputs":[{"name":"role","type":"bytes32","internalType":"bytes32"},{"name":"account","type":"address","internalType":"address"}],"outputs":[],"stateMutability":"nonpayable"},{"type":"function","name":"setUSDC","inputs":[{"name":"_usdc","type":"address","internalType":"address"}],"outputs":[],"stateMutability":"nonpayable"},{"type":"function","name":"supportsInterface","inputs":[{"name":"interfaceId","type":"bytes4","internalType":"bytes4"}],"outputs":[{"name":"","type":"bool","internalType":"bool"}],"stateMutability":"view"},{"type":"function","name":"totalCommissionsClaimed","inputs":[],"outputs":[{"name":"","type":"uint256","internalType":"uint256"}],"stateMutability":"view"},{"type":"function","name":"totalPurchases","inputs":[],"outputs":[{"name":"","type":"uint256","internalType":"uint256"}],"stateMutability":"view"},{"type":"function","name":"totalRevenue","inputs":[],"outputs":[{"name":"","type":"uint256","internalType":"uint256"}],"stateMutability":"view"},{"type":"function","name":"unpause","inputs":[],"outputs":[],"stateMutability":"nonpayable"},{"type":"function","name":"updatePrice","inputs":[{"name":"newPrice","type":"uint256","internalType":"uint256"}],"outputs":[],"stateMutability":"nonpayable"},{"type":"function","name":"upgradeToAndCall","inputs":[{"name":"newImplementation","type":"address","internalType":"address"},{"name":"data","type":"bytes","internalType":"bytes"}],"outputs":[],"stateMutability":"payable"},{"type":"function","name":"usdc","inputs":[],"outputs":[{"name":"","type":"address","internalType":"contract IERC20"}],"stateMutability":"view"},{"type":"function","name":"withdrawAll","inputs":[{"name":"to","type":"address","internalType":"address"}],"outputs":[],"stateMutability":"nonpayable"},{"type":"function","name":"withdrawFunds","inputs":[{"name":"to","type":"address","internalType":"address"},{"name":"amount","type":"uint256","internalType":"uint256"}],"outputs":[],"stateMutability":"nonpayable"},{"type":"event","name":"AlbumPurchased","inputs":[{"name":"buyer","type":"address","indexed":true,"internalType":"address"},{"name":"price","type":"uint256","indexed":false,"internalType":"uint256"}],"anonymous":false},{"type":"event","name":"FundsWithdrawn","inputs":[{"name":"to","type":"address","indexed":true,"internalType":"address"},{"name":"amount","type":"uint256","indexed":false,"internalType":"uint256"}],"anonymous":false},{"type":"event","name":"Initialized","inputs":[{"name":"version","type":"uint64","indexed":false,"internalType":"uint64"}],"anonymous":false},{"type":"event","name":"Paused","inputs":[{"name":"account","type":"address","indexed":false,"internalType":"address"}],"anonymous":false},{"type":"event","name":"PriceUpdated","inputs":[{"name":"oldPrice","type":"uint256","indexed":false,"internalType":"uint256"},{"name":"newPrice","type":"uint256","indexed":false,"internalType":"uint256"}],"anonymous":false},{"type":"event","name":"ReferralCommissionsClaimed","inputs":[{"name":"claimedBy","type":"address","indexed":true,"internalType":"address"},{"name":"sentTo","type":"address","indexed":true,"internalType":"address"},{"name":"amount","type":"uint256","indexed":false,"internalType":"uint256"},{"name":"commissionRate","type":"uint256","indexed":false,"internalType":"uint256"}],"anonymous":false},{"type":"event","name":"RoleAdminChanged","inputs":[{"name":"role","type":"bytes32","indexed":true,"internalType":"bytes32"},{"name":"previousAdminRole","type":"bytes32","indexed":true,"internalType":"bytes32"},{"name":"newAdminRole","type":"bytes32","indexed":true,"internalType":"bytes32"}],"anonymous":false},{"type":"event","name":"RoleGranted","inputs":[{"name":"role","type":"bytes32","indexed":true,"internalType":"bytes32"},{"name":"account","type":"address","indexed":true,"internalType":"address"},{"name":"sender","type":"address","indexed":true,"internalType":"address"}],"anonymous":false},{"type":"event","name":"RoleRevoked","inputs":[{"name":"role","type":"bytes32","indexed":true,"internalType":"bytes32"},{"name":"account","type":"address","indexed":true,"internalType":"address"},{"name":"sender","type":"address","indexed":true,"internalType":"address"}],"anonymous":false},{"type":"event","name":"Unpaused","inputs":[{"name":"account","type":"address","indexed":false,"internalType":"address"}],"anonymous":false},{"type":"event","name":"Upgraded","inputs":[{"name":"implementation","type":"address","indexed":true,"internalType":"address"}],"anonymous":false},{"type":"error","name":"AccessControlBadConfirmation","inputs":[]},{"type":"error","name":"AccessControlUnauthorizedAccount","inputs":[{"name":"account","type":"address","internalType":"address"},{"name":"neededRole","type":"bytes32","internalType":"bytes32"}]},{"type":"error","name":"AddressEmptyCode","inputs":[{"name":"target","type":"address","internalType":"address"}]},{"type":"error","name":"ERC1967InvalidImplementation","inputs":[{"name":"implementation","type":"address","internalType":"address"}]},{"type":"error","name":"ERC1967NonPayable","inputs":[]},{"type":"error","name":"EnforcedPause","inputs":[]},{"type":"error","name":"ExpectedPause","inputs":[]},{"type":"error","name":"FailedCall","inputs":[]},{"type":"error","name":"InvalidInitialization","inputs":[]},{"type":"error","name":"NotInitializing","inputs":[]},{"type":"error","name":"UUPSUnauthorizedCallContext","inputs":[]},{"type":"error","name":"UUPSUnsupportedProxiableUUID","inputs":[{"name":"slot","type":"bytes32","internalType":"bytes32"}]}],"bytecode":{"object":"0x60a060405230608052348015610013575f80fd5b5061001c610021565b6100d3565b7ff0c57e16840df040f15088dc2f81fe391c3923bec73e23a9662efc9c229c6a00805468010000000000000000900460ff16156100715760405163f92ee8a960e01b815260040160405180910390fd5b80546001600160401b03908116146100d05780546001600160401b0319166001600160401b0390811782556040519081527fc7f505b2f371ae2175ee4913f4499e1f2633a7b5936321eed1cdaeb6115181d29060200160405180910390a15b50565b6080516124de620000fa5f395f8181611c9001528181611cb90152611dfa01526124de5ff3fe608060405260043610610233575f3560e01c806385f438c111610129578063c1075329116100a8578063efb509a61161006d578063efb509a614610680578063f53eee2f14610699578063f577c588146106ad578063f5b541a6146106c1578063fa09e630146106e1575f80fd5b8063c1075329146105bc578063c59d4847146105db578063c77a51c21461060f578063d547741f1461062e578063e812047f1461064d575f80fd5b8063a217fddf116100ee578063a217fddf14610524578063ad3cb1cc14610537578063b3e089a214610574578063bc8b5c0a14610593578063bf2d9e0b146105a7575f80fd5b806385f438c1146104925780638d6cc56d146104b257806391d14854146104d157806396e4fa1d146104f05780639d79b5541461050f575f80fd5b80633f4ba83a116101b55780635c975abb1161017a5780635c975abb146103fd5780636f9fb98a14610420578063713a59c01461043457806375b238fc1461044b5780638456cb591461047e575f80fd5b80633f4ba83a1461038e5780634b1092fe146103a25780634f1ef286146103c157806352d1902d146103d45780635962a941146103e8575f80fd5b80633281e9ce116101fb5780633281e9ce146102f757806336568abe1461030c578063388949c01461032b5780633a672bfe146103445780633e413bee14610358575f80fd5b806301ffc9a7146102375780630808f3eb1461026b5780631794bb3c1461028a578063248a9ca3146102ab5780632f2ff15d146102d8575b5f80fd5b348015610242575f80fd5b50610256610251366004612126565b610700565b60405190151581526020015b60405180910390f35b348015610276575f80fd5b50610256610285366004612168565b610736565b348015610295575f80fd5b506102a96102a4366004612181565b610756565b005b3480156102b6575f80fd5b506102ca6102c53660046121ba565b6109d4565b604051908152602001610262565b3480156102e3575f80fd5b506102a96102f23660046121d1565b6109f4565b348015610302575f80fd5b506102ca60045481565b348015610317575f80fd5b506102a96103263660046121d1565b610a16565b348015610336575f80fd5b506102ca652d79883d200081565b34801561034f575f80fd5b506102ca610a4e565b348015610363575f80fd5b505f54610376906001600160a01b031681565b6040516001600160a01b039091168152602001610262565b348015610399575f80fd5b506102a9610a66565b3480156103ad575f80fd5b506102a96103bc366004612168565b610a88565b6102a96103cf36600461220f565b610c95565b3480156103df575f80fd5b506102ca610cb4565b3480156103f3575f80fd5b506102ca60025481565b348015610408575f80fd5b505f805160206124898339815191525460ff16610256565b34801561042b575f80fd5b506102ca610ccf565b34801561043f575f80fd5b506102ca6301e8480081565b348015610456575f80fd5b506102ca7fa49807205ce4d355092ef5a8a18f56e8913cf4a201fbe287825b095693c2177581565b348015610489575f80fd5b506102a9610d39565b34801561049d575f80fd5b506102ca5f8051602061244983398151915281565b3480156104bd575f80fd5b506102a96104cc3660046121ba565b610d58565b3480156104dc575f80fd5b506102566104eb3660046121d1565b610e04565b3480156104fb575f80fd5b506102ca61050a3660046121ba565b610e3a565b34801561051a575f80fd5b506102ca60015481565b34801561052f575f80fd5b506102ca5f81565b348015610542575f80fd5b50610567604051806040016040528060058152602001640352e302e360dc1b81525081565b60405161026291906122ed565b34801561057f575f80fd5b506102a961058e366004612168565b610e49565b34801561059e575f80fd5b506102ca610ee2565b3480156105b2575f80fd5b506102ca60035481565b3480156105c7575f80fd5b506102a96105d636600461231f565b610f50565b3480156105e6575f80fd5b506105ef6111a8565b604080519485526020850193909352918301526060820152608001610262565b34801561061a575f80fd5b506102a961062936600461231f565b611235565b348015610639575f80fd5b506102a96106483660046121d1565b61154c565b348015610658575f80fd5b506102ca7f3f7a3f6ef4c5d70750774e6115ea7c8ade17dcdcd0e21c11fcadb5264ae3dd1b81565b34801561068b575f80fd5b506102ca6509184e72a00081565b3480156106a4575f80fd5b506102ca611568565b3480156106b8575f80fd5b506102a96115f5565b3480156106cc575f80fd5b506102ca5f8051602061242983398151915281565b3480156106ec575f80fd5b506102a96106fb366004612168565b6118d1565b5f6001600160e01b03198216637965db0b60e01b148061073057506301ffc9a760e01b6001600160e01b03198316145b92915050565b5f61074f5f805160206124898339815191525460ff1690565b1592915050565b5f61075f611ad0565b805490915060ff600160401b820416159067ffffffffffffffff165f811580156107865750825b90505f8267ffffffffffffffff1660011480156107a25750303b155b9050811580156107b0575080155b156107ce5760405163f92ee8a960e01b815260040160405180910390fd5b845467ffffffffffffffff1916600117855583156107f857845460ff60401b1916600160401b1785555b6001600160a01b03881661084a5760405162461bcd60e51b8152602060048201526014602482015273496e76616c69642055534443206164647265737360601b60448201526064015b60405180910390fd5b6001600160a01b0387166108985760405162461bcd60e51b8152602060048201526015602482015274496e76616c69642061646d696e206164647265737360581b6044820152606401610841565b5f86116108e75760405162461bcd60e51b815260206004820152601c60248201527f5072696365206d7573742062652067726561746572207468616e2030000000006044820152606401610841565b6108ef611af8565b6108f7611af8565b6108ff611af8565b5f80546001600160a01b0319166001600160a01b038a1617815560018790556109289088611b02565b506109537fa49807205ce4d355092ef5a8a18f56e8913cf4a201fbe287825b095693c2177588611b02565b5061096b5f8051602061242983398151915288611b02565b506109835f8051602061244983398151915288611b02565b5083156109ca57845460ff60401b19168555604051600181527fc7f505b2f371ae2175ee4913f4499e1f2633a7b5936321eed1cdaeb6115181d29060200160405180910390a15b5050505050505050565b5f9081525f80516020612469833981519152602052604090206001015490565b6109fd826109d4565b610a0681611ba3565b610a108383611b02565b50505050565b6001600160a01b0381163314610a3f5760405163334bd91960e11b815260040160405180910390fd5b610a498282611bad565b505050565b5f6001546301e84800610a61919061235b565b905090565b5f80516020612429833981519152610a7d81611ba3565b610a85611c26565b50565b7f3f7a3f6ef4c5d70750774e6115ea7c8ade17dcdcd0e21c11fcadb5264ae3dd1b610ab281611ba3565b5f610abb611568565b90505f8111610b1c5760405162461bcd60e51b815260206004820152602760248201527f4e6f20636f6d6d697373696f6e7320746f20636c61696d206174206375727265604482015266373a103a34b2b960c91b6064820152608401610841565b6001600160a01b038316610b685760405162461bcd60e51b815260206004820152601360248201527224b73b30b634b2103232b9ba34b730ba34b7b760691b6044820152606401610841565b8060045f828254610b79919061237a565b909155505f9050610b88610ee2565b5f5460405163a9059cbb60e01b81526001600160a01b0387811660048301526024820186905292935091169063a9059cbb906044016020604051808303815f875af1158015610bd9573d5f803e3d5ffd5b505050506040513d601f19601f82011682018060405250810190610bfd919061238d565b610c495760405162461bcd60e51b815260206004820152601a60248201527f436f6d6d697373696f6e207472616e73666572206661696c65640000000000006044820152606401610841565b60408051838152602081018390526001600160a01b0386169133917fa04fd1d30e346cb1a8b34afd7aff367f297d7f66b94d93f684fa75f9b1f8af5a910160405180910390a350505050565b610c9d611c85565b610ca682611d29565b610cb08282611d33565b5050565b5f610cbd611def565b505f8051602061240983398151915290565b5f80546040516370a0823160e01b81523060048201526001600160a01b03909116906370a0823190602401602060405180830381865afa158015610d15573d5f803e3d5ffd5b505050506040513d601f19601f82011682018060405250810190610a6191906123ac565b5f80516020612429833981519152610d5081611ba3565b610a85611e38565b5f80516020612429833981519152610d6f81611ba3565b5f8211610dbe5760405162461bcd60e51b815260206004820152601c60248201527f5072696365206d7573742062652067726561746572207468616e2030000000006044820152606401610841565b600180549083905560408051828152602081018590527f945c1c4e99aa89f648fbfe3df471b916f719e16d960fcec0737d4d56bd696838910160405180910390a1505050565b5f9182525f80516020612469833981519152602090815260408084206001600160a01b0393909316845291905290205460ff1690565b5f60015482610730919061235b565b7fa49807205ce4d355092ef5a8a18f56e8913cf4a201fbe287825b095693c21775610e7381611ba3565b6001600160a01b038216610ec05760405162461bcd60e51b8152602060048201526014602482015273496e76616c69642055534443206164647265737360601b6044820152606401610841565b505f80546001600160a01b0319166001600160a01b0392909216919091179055565b5f652d79883d20006004541015610ef95750606490565b5f652d79883d2000600454610f0e91906123c3565b90505f610f216509184e72a0008361235b565b905060098110610f33575f9250505090565b610f3e81600a6123d6565b610f4990605a6123c3565b9250505090565b5f80516020612449833981519152610f6781611ba3565b6001600160a01b038316610fb15760405162461bcd60e51b8152602060048201526011602482015270125b9d985b1a59081c9958da5c1a595b9d607a1b6044820152606401610841565b5f82116110005760405162461bcd60e51b815260206004820152601d60248201527f416d6f756e74206d7573742062652067726561746572207468616e20300000006044820152606401610841565b5f546040516370a0823160e01b81523060048201526001600160a01b03909116906370a0823190602401602060405180830381865afa158015611045573d5f803e3d5ffd5b505050506040513d601f19601f8201168201806040525081019061106991906123ac565b8211156110af5760405162461bcd60e51b8152602060048201526014602482015273496e73756666696369656e742062616c616e636560601b6044820152606401610841565b5f5460405163a9059cbb60e01b81526001600160a01b038581166004830152602482018590529091169063a9059cbb906044016020604051808303815f875af11580156110fe573d5f803e3d5ffd5b505050506040513d601f19601f82011682018060405250810190611122919061238d565b6111605760405162461bcd60e51b815260206004820152600f60248201526e15da5d1a191c985dc819985a5b1959608a1b6044820152606401610841565b826001600160a01b03167feaff4b37086828766ad3268786972c0cd24259d4c87a80f9d3963a3c3d999b0d8360405161119b91815260200190565b60405180910390a2505050565b6001546002546003545f80546040516370a0823160e01b815230600482015291948594859485949293919290916001600160a01b0316906370a0823190602401602060405180830381865afa158015611203573d5f803e3d5ffd5b505050506040513d601f19601f8201168201806040525081019061122791906123ac565b935093509350935090919293565b7f3f7a3f6ef4c5d70750774e6115ea7c8ade17dcdcd0e21c11fcadb5264ae3dd1b61125f81611ba3565b6001600160a01b0383166112ab5760405162461bcd60e51b815260206004820152601360248201527224b73b30b634b2103232b9ba34b730ba34b7b760691b6044820152606401610841565b5f82116112fa5760405162461bcd60e51b815260206004820152601d60248201527f416d6f756e74206d7573742062652067726561746572207468616e20300000006044820152606401610841565b5f611303611568565b90508083111561136f5760405162461bcd60e51b815260206004820152603160248201527f416d6f756e74206578636565647320636c61696d61626c6520636f6d6d6973736044820152701a5bdb881c195c881859dc99595b595b9d607a1b6064820152608401610841565b5f546040516370a0823160e01b81523060048201526001600160a01b03909116906370a0823190602401602060405180830381865afa1580156113b4573d5f803e3d5ffd5b505050506040513d601f19601f820116820180604052508101906113d891906123ac565b83111561141e5760405162461bcd60e51b8152602060048201526014602482015273496e73756666696369656e742062616c616e636560601b6044820152606401610841565b8260045f82825461142f919061237a565b909155505f905061143e610ee2565b5f5460405163a9059cbb60e01b81526001600160a01b0388811660048301526024820188905292935091169063a9059cbb906044016020604051808303815f875af115801561148f573d5f803e3d5ffd5b505050506040513d601f19601f820116820180604052508101906114b3919061238d565b6114ff5760405162461bcd60e51b815260206004820152601a60248201527f436f6d6d697373696f6e207472616e73666572206661696c65640000000000006044820152606401610841565b60408051858152602081018390526001600160a01b0387169133917fa04fd1d30e346cb1a8b34afd7aff367f297d7f66b94d93f684fa75f9b1f8af5a910160405180910390a35050505050565b611555826109d4565b61155e81611ba3565b610a108383611bad565b5f80546040516370a0823160e01b815230600482015282916001600160a01b0316906370a0823190602401602060405180830381865afa1580156115ae573d5f803e3d5ffd5b505050506040513d601f19601f820116820180604052508101906115d291906123ac565b90505f6115dd610ee2565b905060646115eb82846123d6565b610f49919061235b565b6115fd611e80565b5f8054604051636eb1769f60e11b81523360048201523060248201526001600160a01b039091169063dd62ed3e90604401602060405180830381865afa158015611649573d5f803e3d5ffd5b505050506040513d601f19601f8201168201806040525081019061166d91906123ac565b5f80546040516370a0823160e01b815233600482015292935090916001600160a01b03909116906370a0823190602401602060405180830381865afa1580156116b8573d5f803e3d5ffd5b505050506040513d601f19601f820116820180604052508101906116dc91906123ac565b90505f8183106116ec57816116ee565b825b90506001548110156117425760405162461bcd60e51b815260206004820152601f60248201527f496e73756666696369656e742066756e6473206f7220616c6c6f77616e6365006044820152606401610841565b5f60015482611751919061235b565b90505f6001548261176291906123d6565b90505f82116117b35760405162461bcd60e51b815260206004820152601b60248201527f43616e6e6f74207075726368617365207a65726f20616c62756d7300000000006044820152606401610841565b5f546040516323b872dd60e01b8152336004820152306024820152604481018390526001600160a01b03909116906323b872dd906064016020604051808303815f875af1158015611806573d5f803e3d5ffd5b505050506040513d601f19601f8201168201806040525081019061182a919061238d565b6118675760405162461bcd60e51b815260206004820152600e60248201526d14185e5b595b9d0819985a5b195960921b6044820152606401610841565b8160025f828254611878919061237a565b925050819055508060035f828254611890919061237a565b909155505060405181815233907f31ac56961e6c70a5aa98adfd8efd83609dc9d548ea81e4b09d626a1be3f4cdf59060200160405180910390a25050505050565b5f805160206124498339815191526118e881611ba3565b5f80546040516370a0823160e01b81523060048201526001600160a01b03909116906370a0823190602401602060405180830381865afa15801561192e573d5f803e3d5ffd5b505050506040513d601f19601f8201168201806040525081019061195291906123ac565b90505f811161199a5760405162461bcd60e51b81526020600482015260146024820152734e6f2066756e647320746f20776974686472617760601b6044820152606401610841565b6001600160a01b0383166119e45760405162461bcd60e51b8152602060048201526011602482015270125b9d985b1a59081c9958da5c1a595b9d607a1b6044820152606401610841565b5f5460405163a9059cbb60e01b81526001600160a01b038581166004830152602482018490529091169063a9059cbb906044016020604051808303815f875af1158015611a33573d5f803e3d5ffd5b505050506040513d601f19601f82011682018060405250810190611a57919061238d565b611a955760405162461bcd60e51b815260206004820152600f60248201526e15da5d1a191c985dc819985a5b1959608a1b6044820152606401610841565b826001600160a01b03167feaff4b37086828766ad3268786972c0cd24259d4c87a80f9d3963a3c3d999b0d8260405161119b91815260200190565b5f807ff0c57e16840df040f15088dc2f81fe391c3923bec73e23a9662efc9c229c6a00610730565b611b00611eb0565b565b5f5f80516020612469833981519152611b1b8484610e04565b611b9a575f848152602082815260408083206001600160a01b03871684529091529020805460ff19166001179055611b503390565b6001600160a01b0316836001600160a01b0316857f2f8788117e7eff1d82e926ec794901d17c78024a50270940304540a733656f0d60405160405180910390a46001915050610730565b5f915050610730565b610a858133611ed5565b5f5f80516020612469833981519152611bc68484610e04565b15611b9a575f848152602082815260408083206001600160a01b0387168085529252808320805460ff1916905551339287917ff6391f5c32d9c69d2a47ea670b442974b53935d1edc7fd64eb21e047a839171b9190a46001915050610730565b611c2e611f0e565b5f80516020612489833981519152805460ff191681557f5db9ee0a495bf2e6ff9c91a7834c1ba4fdd244a5e8aa4e537bd38aeae4b073aa335b6040516001600160a01b03909116815260200160405180910390a150565b306001600160a01b037f0000000000000000000000000000000000000000000000000000000000000000161480611d0b57507f00000000000000000000000000000000000000000000000000000000000000006001600160a01b0316611cff5f80516020612409833981519152546001600160a01b031690565b6001600160a01b031614155b15611b005760405163703e46dd60e11b815260040160405180910390fd5b5f610cb081611ba3565b816001600160a01b03166352d1902d6040518163ffffffff1660e01b8152600401602060405180830381865afa925050508015611d8d575060408051601f3d908101601f19168201909252611d8a918101906123ac565b60015b611db557604051634c9c8ce360e01b81526001600160a01b0383166004820152602401610841565b5f805160206124098339815191528114611de557604051632a87526960e21b815260048101829052602401610841565b610a498383611f3d565b306001600160a01b037f00000000000000000000000000000000000000000000000000000000000000001614611b005760405163703e46dd60e11b815260040160405180910390fd5b611e40611e80565b5f80516020612489833981519152805460ff191660011781557f62e78cea01bee320cd4e420270b5ea74000d11b0c9f74754ebdbfc544b05a25833611c67565b5f805160206124898339815191525460ff1615611b005760405163d93c066560e01b815260040160405180910390fd5b611eb8611f92565b611b0057604051631afcd79f60e31b815260040160405180910390fd5b611edf8282610e04565b610cb05760405163e2517d3f60e01b81526001600160a01b038216600482015260248101839052604401610841565b5f805160206124898339815191525460ff16611b0057604051638dfc202b60e01b815260040160405180910390fd5b611f4682611fab565b6040516001600160a01b038316907fbc7cd75a20ee27fd9adebab32041f755214dbc6bffa90cc0225b39da2e5c2d3b905f90a2805115611f8a57610a49828261200e565b610cb0612080565b5f611f9b611ad0565b54600160401b900460ff16919050565b806001600160a01b03163b5f03611fe057604051634c9c8ce360e01b81526001600160a01b0382166004820152602401610841565b5f8051602061240983398151915280546001600160a01b0319166001600160a01b0392909216919091179055565b60605f80846001600160a01b03168460405161202a91906123ed565b5f60405180830381855af49150503d805f8114612062576040519150601f19603f3d011682016040523d82523d5f602084013e612067565b606091505b509150915061207785838361209f565b95945050505050565b3415611b005760405163b398979f60e01b815260040160405180910390fd5b6060826120b4576120af826120fe565b6120f7565b81511580156120cb57506001600160a01b0384163b155b156120f457604051639996b31560e01b81526001600160a01b0385166004820152602401610841565b50805b9392505050565b80511561210d57805160208201fd5b60405163d6bda27560e01b815260040160405180910390fd5b5f60208284031215612136575f80fd5b81356001600160e01b0319811681146120f7575f80fd5b80356001600160a01b0381168114612163575f80fd5b919050565b5f60208284031215612178575f80fd5b6120f78261214d565b5f805f60608486031215612193575f80fd5b61219c8461214d565b92506121aa6020850161214d565b9150604084013590509250925092565b5f602082840312156121ca575f80fd5b5035919050565b5f80604083850312156121e2575f80fd5b823591506121f26020840161214d565b90509250929050565b634e487b7160e01b5f52604160045260245ffd5b5f8060408385031215612220575f80fd5b6122298361214d565b9150602083013567ffffffffffffffff80821115612245575f80fd5b818501915085601f830112612258575f80fd5b81358181111561226a5761226a6121fb565b604051601f8201601f19908116603f01168101908382118183101715612292576122926121fb565b816040528281528860208487010111156122aa575f80fd5b826020860160208301375f6020848301015280955050505050509250929050565b5f5b838110156122e55781810151838201526020016122cd565b50505f910152565b602081525f825180602084015261230b8160408501602087016122cb565b601f01601f19169190910160400192915050565b5f8060408385031215612330575f80fd5b6123398361214d565b946020939093013593505050565b634e487b7160e01b5f52601160045260245ffd5b5f8261237557634e487b7160e01b5f52601260045260245ffd5b500490565b8082018082111561073057610730612347565b5f6020828403121561239d575f80fd5b815180151581146120f7575f80fd5b5f602082840312156123bc575f80fd5b5051919050565b8181038181111561073057610730612347565b808202811582820484141761073057610730612347565b5f82516123fe8184602087016122cb565b919091019291505056fe360894a13ba1a3210667c828492db98dca3e2076cc3735a920a3ca505d382bbc97667070c54ef182b0f5858b034beac1b6f3089aa2d3188bb1e8929f4fa9b92910dac8c06a04bec0b551627dad28bc00d6516b0caacd1c7b345fcdb5211334e402dd7bc7dec4dceedda775e58dd541e08a116c6c53815c0bd028192f7b626800cd5ed15c6e187e77e9aee88184c21f4f2182ab5827cb3b7e07fbedcd63f03300a2646970667358221220eeae0e9d1599f734f8e55e552611319e48483cd068868f36a7de32bfcf39ab1d64736f6c63430008180033","linkReferences":{}},"methodIdentifiers":{"ADMIN_ROLE()":"75b238fc","COMMISSION_CLAIMER_ROLE()":"e812047f","DEFAULT_ADMIN_ROLE()":"a217fddf","EXPECTED_PURCHASE_AMOUNT()":"713a59c0","OPERATOR_ROLE()":"f5b541a6","PROMO_FIRST_TIER()":"388949c0","PROMO_TIER_SIZE()":"efb509a6","UPGRADE_INTERFACE_VERSION()":"ad3cb1cc","WITHDRAWER_ROLE()":"85f438c1","albumPrice()":"9d79b554","buyAlbums()":"f577c588","calculateAlbumCount(uint256)":"96e4fa1d","canBuy(address)":"0808f3eb","claimAllReferralCommissions(address)":"4b1092fe","claimReferralCommissions(address,uint256)":"c77a51c2","getClaimableCommission()":"f53eee2f","getContractBalance()":"6f9fb98a","getCurrentCommissionRate()":"bc8b5c0a","getExpectedAlbumCount()":"3a672bfe","getRoleAdmin(bytes32)":"248a9ca3","getStats()":"c59d4847","grantRole(bytes32,address)":"2f2ff15d","hasRole(bytes32,address)":"91d14854","initialize(address,address,uint256)":"1794bb3c","pause()":"8456cb59","paused()":"5c975abb","proxiableUUID()":"52d1902d","renounceRole(bytes32,address)":"36568abe","revokeRole(bytes32,address)":"d547741f","setUSDC(address)":"b3e089a2","supportsInterface(bytes4)":"01ffc9a7","totalCommissionsClaimed()":"3281e9ce","totalPurchases()":"5962a941","totalRevenue()":"bf2d9e0b","unpause()":"3f4ba83a","updatePrice(uint256)":"8d6cc56d","upgradeToAndCall(address,bytes)":"4f1ef286","usdc()":"3e413bee","withdrawAll(address)":"fa09e630","withdrawFunds(address,uint256)":"c1075329"},"id":43}