{"abi":[{"type":"constructor","inputs":[],"stateMutability":"nonpayable"},{"type":"function","name":"ADMIN_ROLE","inputs":[],"outputs":[{"name":"","type":"bytes32","internalType":"bytes32"}],"stateMutability":"view"},{"type":"function","name":"DEFAULT_ADMIN_ROLE","inputs":[],"outputs":[{"name":"","type":"bytes32","internalType":"bytes32"}],"stateMutability":"view"},{"type":"function","name":"OPERATOR_ROLE","inputs":[],"outputs":[{"name":"","type":"bytes32","internalType":"bytes32"}],"stateMutability":"view"},{"type":"function","name":"UPGRADE_INTERFACE_VERSION","inputs":[],"outputs":[{"name":"","type":"string","internalType":"string"}],"stateMutability":"view"},{"type":"function","name":"WITHDRAWER_ROLE","inputs":[],"outputs":[{"name":"","type":"bytes32","internalType":"bytes32"}],"stateMutability":"view"},{"type":"function","name":"albumPrice","inputs":[],"outputs":[{"name":"","type":"uint256","internalType":"uint256"}],"stateMutability":"view"},{"type":"function","name":"buyAlbum","inputs":[],"outputs":[],"stateMutability":"nonpayable"},{"type":"function","name":"canBuy","inputs":[{"name":"buyer","type":"address","internalType":"address"}],"outputs":[{"name":"","type":"bool","internalType":"bool"}],"stateMutability":"view"},{"type":"function","name":"getContractBalance","inputs":[],"outputs":[{"name":"","type":"uint256","internalType":"uint256"}],"stateMutability":"view"},{"type":"function","name":"getRoleAdmin","inputs":[{"name":"role","type":"bytes32","internalType":"bytes32"}],"outputs":[{"name":"","type":"bytes32","internalType":"bytes32"}],"stateMutability":"view"},{"type":"function","name":"getStats","inputs":[],"outputs":[{"name":"price","type":"uint256","internalType":"uint256"},{"name":"purchases","type":"uint256","internalType":"uint256"},{"name":"revenue","type":"uint256","internalType":"uint256"},{"name":"balance","type":"uint256","internalType":"uint256"}],"stateMutability":"view"},{"type":"function","name":"grantRole","inputs":[{"name":"role","type":"bytes32","internalType":"bytes32"},{"name":"account","type":"address","internalType":"address"}],"outputs":[],"stateMutability":"nonpayable"},{"type":"function","name":"hasRole","inputs":[{"name":"role","type":"bytes32","internalType":"bytes32"},{"name":"account","type":"address","internalType":"address"}],"outputs":[{"name":"","type":"bool","internalType":"bool"}],"stateMutability":"view"},{"type":"function","name":"initialize","inputs":[{"name":"_usdc","type":"address","internalType":"address"},{"name":"_admin","type":"address","internalType":"address"},{"name":"_initialPrice","type":"uint256","internalType":"uint256"}],"outputs":[],"stateMutability":"nonpayable"},{"type":"function","name":"pause","inputs":[],"outputs":[],"stateMutability":"nonpayable"},{"type":"function","name":"paused","inputs":[],"outputs":[{"name":"","type":"bool","internalType":"bool"}],"stateMutability":"view"},{"type":"function","name":"proxiableUUID","inputs":[],"outputs":[{"name":"","type":"bytes32","internalType":"bytes32"}],"stateMutability":"view"},{"type":"function","name":"renounceRole","inputs":[{"name":"role","type":"bytes32","internalType":"bytes32"},{"name":"callerConfirmation","type":"address","internalType":"address"}],"outputs":[],"stateMutability":"nonpayable"},{"type":"function","name":"revokeRole","inputs":[{"name":"role","type":"bytes32","internalType":"bytes32"},{"name":"account","type":"address","internalType":"address"}],"outputs":[],"stateMutability":"nonpayable"},{"type":"function","name":"setUSDC","inputs":[{"name":"_usdc","type":"address","internalType":"address"}],"outputs":[],"stateMutability":"nonpayable"},{"type":"function","name":"supportsInterface","inputs":[{"name":"interfaceId","type":"bytes4","internalType":"bytes4"}],"outputs":[{"name":"","type":"bool","internalType":"bool"}],"stateMutability":"view"},{"type":"function","name":"totalPurchases","inputs":[],"outputs":[{"name":"","type":"uint256","internalType":"uint256"}],"stateMutability":"view"},{"type":"function","name":"totalRevenue","inputs":[],"outputs":[{"name":"","type":"uint256","internalType":"uint256"}],"stateMutability":"view"},{"type":"function","name":"unpause","inputs":[],"outputs":[],"stateMutability":"nonpayable"},{"type":"function","name":"updatePrice","inputs":[{"name":"newPrice","type":"uint256","internalType":"uint256"}],"outputs":[],"stateMutability":"nonpayable"},{"type":"function","name":"upgradeToAndCall","inputs":[{"name":"newImplementation","type":"address","internalType":"address"},{"name":"data","type":"bytes","internalType":"bytes"}],"outputs":[],"stateMutability":"payable"},{"type":"function","name":"usdc","inputs":[],"outputs":[{"name":"","type":"address","internalType":"contract IERC20"}],"stateMutability":"view"},{"type":"function","name":"withdrawAll","inputs":[{"name":"to","type":"address","internalType":"address"}],"outputs":[],"stateMutability":"nonpayable"},{"type":"function","name":"withdrawFunds","inputs":[{"name":"to","type":"address","internalType":"address"},{"name":"amount","type":"uint256","internalType":"uint256"}],"outputs":[],"stateMutability":"nonpayable"},{"type":"event","name":"AlbumPurchased","inputs":[{"name":"buyer","type":"address","indexed":true,"internalType":"address"},{"name":"price","type":"uint256","indexed":false,"internalType":"uint256"}],"anonymous":false},{"type":"event","name":"FundsWithdrawn","inputs":[{"name":"to","type":"address","indexed":true,"internalType":"address"},{"name":"amount","type":"uint256","indexed":false,"internalType":"uint256"}],"anonymous":false},{"type":"event","name":"Initialized","inputs":[{"name":"version","type":"uint64","indexed":false,"internalType":"uint64"}],"anonymous":false},{"type":"event","name":"Paused","inputs":[{"name":"account","type":"address","indexed":false,"internalType":"address"}],"anonymous":false},{"type":"event","name":"PriceUpdated","inputs":[{"name":"oldPrice","type":"uint256","indexed":false,"internalType":"uint256"},{"name":"newPrice","type":"uint256","indexed":false,"internalType":"uint256"}],"anonymous":false},{"type":"event","name":"RoleAdminChanged","inputs":[{"name":"role","type":"bytes32","indexed":true,"internalType":"bytes32"},{"name":"previousAdminRole","type":"bytes32","indexed":true,"internalType":"bytes32"},{"name":"newAdminRole","type":"bytes32","indexed":true,"internalType":"bytes32"}],"anonymous":false},{"type":"event","name":"RoleGranted","inputs":[{"name":"role","type":"bytes32","indexed":true,"internalType":"bytes32"},{"name":"account","type":"address","indexed":true,"internalType":"address"},{"name":"sender","type":"address","indexed":true,"internalType":"address"}],"anonymous":false},{"type":"event","name":"RoleRevoked","inputs":[{"name":"role","type":"bytes32","indexed":true,"internalType":"bytes32"},{"name":"account","type":"address","indexed":true,"internalType":"address"},{"name":"sender","type":"address","indexed":true,"internalType":"address"}],"anonymous":false},{"type":"event","name":"Unpaused","inputs":[{"name":"account","type":"address","indexed":false,"internalType":"address"}],"anonymous":false},{"type":"event","name":"Upgraded","inputs":[{"name":"implementation","type":"address","indexed":true,"internalType":"address"}],"anonymous":false},{"type":"error","name":"AccessControlBadConfirmation","inputs":[]},{"type":"error","name":"AccessControlUnauthorizedAccount","inputs":[{"name":"account","type":"address","internalType":"address"},{"name":"neededRole","type":"bytes32","internalType":"bytes32"}]},{"type":"error","name":"AddressEmptyCode","inputs":[{"name":"target","type":"address","internalType":"address"}]},{"type":"error","name":"ERC1967InvalidImplementation","inputs":[{"name":"implementation","type":"address","internalType":"address"}]},{"type":"error","name":"ERC1967NonPayable","inputs":[]},{"type":"error","name":"EnforcedPause","inputs":[]},{"type":"error","name":"ExpectedPause","inputs":[]},{"type":"error","name":"FailedCall","inputs":[]},{"type":"error","name":"InvalidInitialization","inputs":[]},{"type":"error","name":"NotInitializing","inputs":[]},{"type":"error","name":"UUPSUnauthorizedCallContext","inputs":[]},{"type":"error","name":"UUPSUnsupportedProxiableUUID","inputs":[{"name":"slot","type":"bytes32","internalType":"bytes32"}]}],"bytecode":{"object":"0x60a060405230608052348015610013575f80fd5b5061001c610021565b6100d3565b7ff0c57e16840df040f15088dc2f81fe391c3923bec73e23a9662efc9c229c6a00805468010000000000000000900460ff16156100715760405163f92ee8a960e01b815260040160405180910390fd5b80546001600160401b03908116146100d05780546001600160401b0319166001600160401b0390811782556040519081527fc7f505b2f371ae2175ee4913f4499e1f2633a7b5936321eed1cdaeb6115181d29060200160405180910390a15b50565b608051611b136100f95f395f81816112f60152818161131f01526114600152611b135ff3fe6080604052600436106101ba575f3560e01c806375b238fc116100f2578063ad3cb1cc11610092578063c59d484711610062578063c59d4847146104cb578063d547741f146104ff578063f5b541a61461051e578063fa09e6301461053e575f80fd5b8063ad3cb1cc1461043b578063b3e089a214610478578063bf2d9e0b14610497578063c1075329146104ac575f80fd5b80638d6cc56d116100cd5780638d6cc56d146103d557806391d14854146103f45780639d79b55414610413578063a217fddf14610428575f80fd5b806375b238fc1461036e5780638456cb59146103a157806385f438c1146103b5575f80fd5b80633f4ba83a1161015d5780635962a941116101385780635962a9411461030e5780635c975abb146103235780636f9fb98a1461034657806373f2524b1461035a575f80fd5b80633f4ba83a146102d35780634f1ef286146102e757806352d1902d146102fa575f80fd5b8063248a9ca311610198578063248a9ca3146102325780632f2ff15d1461025f57806336568abe1461027e5780633e413bee1461029d575f80fd5b806301ffc9a7146101be5780630808f3eb146101f25780631794bb3c14610211575b5f80fd5b3480156101c9575f80fd5b506101dd6101d836600461178c565b61055d565b60405190151581526020015b60405180910390f35b3480156101fd575f80fd5b506101dd61020c3660046117ce565b610593565b34801561021c575f80fd5b5061023061022b3660046117e7565b6105b3565b005b34801561023d575f80fd5b5061025161024c366004611820565b610831565b6040519081526020016101e9565b34801561026a575f80fd5b50610230610279366004611837565b610851565b348015610289575f80fd5b50610230610298366004611837565b610873565b3480156102a8575f80fd5b505f546102bb906001600160a01b031681565b6040516001600160a01b0390911681526020016101e9565b3480156102de575f80fd5b506102306108ab565b6102306102f5366004611875565b6108cd565b348015610305575f80fd5b506102516108ec565b348015610319575f80fd5b5061025160025481565b34801561032e575f80fd5b505f80516020611abe8339815191525460ff166101dd565b348015610351575f80fd5b50610251610907565b348015610365575f80fd5b50610230610976565b348015610379575f80fd5b506102517fa49807205ce4d355092ef5a8a18f56e8913cf4a201fbe287825b095693c2177581565b3480156103ac575f80fd5b50610230610a9c565b3480156103c0575f80fd5b506102515f80516020611a7e83398151915281565b3480156103e0575f80fd5b506102306103ef366004611820565b610abb565b3480156103ff575f80fd5b506101dd61040e366004611837565b610b67565b34801561041e575f80fd5b5061025160015481565b348015610433575f80fd5b506102515f81565b348015610446575f80fd5b5061046b604051806040016040528060058152602001640352e302e360dc1b81525081565b6040516101e99190611953565b348015610483575f80fd5b506102306104923660046117ce565b610b9d565b3480156104a2575f80fd5b5061025160035481565b3480156104b7575f80fd5b506102306104c6366004611985565b610c36565b3480156104d6575f80fd5b506104df610e8e565b6040805194855260208501939093529183015260608201526080016101e9565b34801561050a575f80fd5b50610230610519366004611837565b610f1b565b348015610529575f80fd5b506102515f80516020611a5e83398151915281565b348015610549575f80fd5b506102306105583660046117ce565b610f37565b5f6001600160e01b03198216637965db0b60e01b148061058d57506301ffc9a760e01b6001600160e01b03198316145b92915050565b5f6105ac5f80516020611abe8339815191525460ff1690565b1592915050565b5f6105bc611136565b805490915060ff600160401b820416159067ffffffffffffffff165f811580156105e35750825b90505f8267ffffffffffffffff1660011480156105ff5750303b155b90508115801561060d575080155b1561062b5760405163f92ee8a960e01b815260040160405180910390fd5b845467ffffffffffffffff19166001178555831561065557845460ff60401b1916600160401b1785555b6001600160a01b0388166106a75760405162461bcd60e51b8152602060048201526014602482015273496e76616c69642055534443206164647265737360601b60448201526064015b60405180910390fd5b6001600160a01b0387166106f55760405162461bcd60e51b8152602060048201526015602482015274496e76616c69642061646d696e206164647265737360581b604482015260640161069e565b5f86116107445760405162461bcd60e51b815260206004820152601c60248201527f5072696365206d7573742062652067726561746572207468616e203000000000604482015260640161069e565b61074c61115e565b61075461115e565b61075c61115e565b5f80546001600160a01b0319166001600160a01b038a1617815560018790556107859088611168565b506107b07fa49807205ce4d355092ef5a8a18f56e8913cf4a201fbe287825b095693c2177588611168565b506107c85f80516020611a5e83398151915288611168565b506107e05f80516020611a7e83398151915288611168565b50831561082757845460ff60401b19168555604051600181527fc7f505b2f371ae2175ee4913f4499e1f2633a7b5936321eed1cdaeb6115181d29060200160405180910390a15b5050505050505050565b5f9081525f80516020611a9e833981519152602052604090206001015490565b61085a82610831565b61086381611209565b61086d8383611168565b50505050565b6001600160a01b038116331461089c5760405163334bd91960e11b815260040160405180910390fd5b6108a68282611213565b505050565b5f80516020611a5e8339815191526108c281611209565b6108ca61128c565b50565b6108d56112eb565b6108de8261138f565b6108e88282611399565b5050565b5f6108f5611455565b505f80516020611a3e83398151915290565b5f80546040516370a0823160e01b81523060048201526001600160a01b03909116906370a0823190602401602060405180830381865afa15801561094d573d5f803e3d5ffd5b505050506040513d601f19601f8201168201806040525081019061097191906119ad565b905090565b61097e61149e565b5f546001546040516323b872dd60e01b815233600482015230602482015260448101919091526001600160a01b03909116906323b872dd906064016020604051808303815f875af11580156109d5573d5f803e3d5ffd5b505050506040513d601f19601f820116820180604052508101906109f991906119c4565b610a365760405162461bcd60e51b815260206004820152600e60248201526d14185e5b595b9d0819985a5b195960921b604482015260640161069e565b60028054905f610a45836119f7565b919050555060015460035f828254610a5d9190611a0f565b909155505060015460405190815233907f31ac56961e6c70a5aa98adfd8efd83609dc9d548ea81e4b09d626a1be3f4cdf59060200160405180910390a2565b5f80516020611a5e833981519152610ab381611209565b6108ca6114ce565b5f80516020611a5e833981519152610ad281611209565b5f8211610b215760405162461bcd60e51b815260206004820152601c60248201527f5072696365206d7573742062652067726561746572207468616e203000000000604482015260640161069e565b600180549083905560408051828152602081018590527f945c1c4e99aa89f648fbfe3df471b916f719e16d960fcec0737d4d56bd696838910160405180910390a1505050565b5f9182525f80516020611a9e833981519152602090815260408084206001600160a01b0393909316845291905290205460ff1690565b7fa49807205ce4d355092ef5a8a18f56e8913cf4a201fbe287825b095693c21775610bc781611209565b6001600160a01b038216610c145760405162461bcd60e51b8152602060048201526014602482015273496e76616c69642055534443206164647265737360601b604482015260640161069e565b505f80546001600160a01b0319166001600160a01b0392909216919091179055565b5f80516020611a7e833981519152610c4d81611209565b6001600160a01b038316610c975760405162461bcd60e51b8152602060048201526011602482015270125b9d985b1a59081c9958da5c1a595b9d607a1b604482015260640161069e565b5f8211610ce65760405162461bcd60e51b815260206004820152601d60248201527f416d6f756e74206d7573742062652067726561746572207468616e2030000000604482015260640161069e565b5f546040516370a0823160e01b81523060048201526001600160a01b03909116906370a0823190602401602060405180830381865afa158015610d2b573d5f803e3d5ffd5b505050506040513d601f19601f82011682018060405250810190610d4f91906119ad565b821115610d955760405162461bcd60e51b8152602060048201526014602482015273496e73756666696369656e742062616c616e636560601b604482015260640161069e565b5f5460405163a9059cbb60e01b81526001600160a01b038581166004830152602482018590529091169063a9059cbb906044016020604051808303815f875af1158015610de4573d5f803e3d5ffd5b505050506040513d601f19601f82011682018060405250810190610e0891906119c4565b610e465760405162461bcd60e51b815260206004820152600f60248201526e15da5d1a191c985dc819985a5b1959608a1b604482015260640161069e565b826001600160a01b03167feaff4b37086828766ad3268786972c0cd24259d4c87a80f9d3963a3c3d999b0d83604051610e8191815260200190565b60405180910390a2505050565b6001546002546003545f80546040516370a0823160e01b815230600482015291948594859485949293919290916001600160a01b0316906370a0823190602401602060405180830381865afa158015610ee9573d5f803e3d5ffd5b505050506040513d601f19601f82011682018060405250810190610f0d91906119ad565b935093509350935090919293565b610f2482610831565b610f2d81611209565b61086d8383611213565b5f80516020611a7e833981519152610f4e81611209565b5f80546040516370a0823160e01b81523060048201526001600160a01b03909116906370a0823190602401602060405180830381865afa158015610f94573d5f803e3d5ffd5b505050506040513d601f19601f82011682018060405250810190610fb891906119ad565b90505f81116110005760405162461bcd60e51b81526020600482015260146024820152734e6f2066756e647320746f20776974686472617760601b604482015260640161069e565b6001600160a01b03831661104a5760405162461bcd60e51b8152602060048201526011602482015270125b9d985b1a59081c9958da5c1a595b9d607a1b604482015260640161069e565b5f5460405163a9059cbb60e01b81526001600160a01b038581166004830152602482018490529091169063a9059cbb906044016020604051808303815f875af1158015611099573d5f803e3d5ffd5b505050506040513d601f19601f820116820180604052508101906110bd91906119c4565b6110fb5760405162461bcd60e51b815260206004820152600f60248201526e15da5d1a191c985dc819985a5b1959608a1b604482015260640161069e565b826001600160a01b03167feaff4b37086828766ad3268786972c0cd24259d4c87a80f9d3963a3c3d999b0d82604051610e8191815260200190565b5f807ff0c57e16840df040f15088dc2f81fe391c3923bec73e23a9662efc9c229c6a0061058d565b611166611516565b565b5f5f80516020611a9e8339815191526111818484610b67565b611200575f848152602082815260408083206001600160a01b03871684529091529020805460ff191660011790556111b63390565b6001600160a01b0316836001600160a01b0316857f2f8788117e7eff1d82e926ec794901d17c78024a50270940304540a733656f0d60405160405180910390a4600191505061058d565b5f91505061058d565b6108ca813361153b565b5f5f80516020611a9e83398151915261122c8484610b67565b15611200575f848152602082815260408083206001600160a01b0387168085529252808320805460ff1916905551339287917ff6391f5c32d9c69d2a47ea670b442974b53935d1edc7fd64eb21e047a839171b9190a4600191505061058d565b611294611574565b5f80516020611abe833981519152805460ff191681557f5db9ee0a495bf2e6ff9c91a7834c1ba4fdd244a5e8aa4e537bd38aeae4b073aa335b6040516001600160a01b03909116815260200160405180910390a150565b306001600160a01b037f000000000000000000000000000000000000000000000000000000000000000016148061137157507f00000000000000000000000000000000000000000000000000000000000000006001600160a01b03166113655f80516020611a3e833981519152546001600160a01b031690565b6001600160a01b031614155b156111665760405163703e46dd60e11b815260040160405180910390fd5b5f6108e881611209565b816001600160a01b03166352d1902d6040518163ffffffff1660e01b8152600401602060405180830381865afa9250505080156113f3575060408051601f3d908101601f191682019092526113f0918101906119ad565b60015b61141b57604051634c9c8ce360e01b81526001600160a01b038316600482015260240161069e565b5f80516020611a3e833981519152811461144b57604051632a87526960e21b81526004810182905260240161069e565b6108a683836115a3565b306001600160a01b037f000000000000000000000000000000000000000000000000000000000000000016146111665760405163703e46dd60e11b815260040160405180910390fd5b5f80516020611abe8339815191525460ff16156111665760405163d93c066560e01b815260040160405180910390fd5b6114d661149e565b5f80516020611abe833981519152805460ff191660011781557f62e78cea01bee320cd4e420270b5ea74000d11b0c9f74754ebdbfc544b05a258336112cd565b61151e6115f8565b61116657604051631afcd79f60e31b815260040160405180910390fd5b6115458282610b67565b6108e85760405163e2517d3f60e01b81526001600160a01b03821660048201526024810183905260440161069e565b5f80516020611abe8339815191525460ff1661116657604051638dfc202b60e01b815260040160405180910390fd5b6115ac82611611565b6040516001600160a01b038316907fbc7cd75a20ee27fd9adebab32041f755214dbc6bffa90cc0225b39da2e5c2d3b905f90a28051156115f0576108a68282611674565b6108e86116e6565b5f611601611136565b54600160401b900460ff16919050565b806001600160a01b03163b5f0361164657604051634c9c8ce360e01b81526001600160a01b038216600482015260240161069e565b5f80516020611a3e83398151915280546001600160a01b0319166001600160a01b0392909216919091179055565b60605f80846001600160a01b0316846040516116909190611a22565b5f60405180830381855af49150503d805f81146116c8576040519150601f19603f3d011682016040523d82523d5f602084013e6116cd565b606091505b50915091506116dd858383611705565b95945050505050565b34156111665760405163b398979f60e01b815260040160405180910390fd5b60608261171a5761171582611764565b61175d565b815115801561173157506001600160a01b0384163b155b1561175a57604051639996b31560e01b81526001600160a01b038516600482015260240161069e565b50805b9392505050565b80511561177357805160208201fd5b60405163d6bda27560e01b815260040160405180910390fd5b5f6020828403121561179c575f80fd5b81356001600160e01b03198116811461175d575f80fd5b80356001600160a01b03811681146117c9575f80fd5b919050565b5f602082840312156117de575f80fd5b61175d826117b3565b5f805f606084860312156117f9575f80fd5b611802846117b3565b9250611810602085016117b3565b9150604084013590509250925092565b5f60208284031215611830575f80fd5b5035919050565b5f8060408385031215611848575f80fd5b82359150611858602084016117b3565b90509250929050565b634e487b7160e01b5f52604160045260245ffd5b5f8060408385031215611886575f80fd5b61188f836117b3565b9150602083013567ffffffffffffffff808211156118ab575f80fd5b818501915085601f8301126118be575f80fd5b8135818111156118d0576118d0611861565b604051601f8201601f19908116603f011681019083821181831017156118f8576118f8611861565b81604052828152886020848701011115611910575f80fd5b826020860160208301375f6020848301015280955050505050509250929050565b5f5b8381101561194b578181015183820152602001611933565b50505f910152565b602081525f8251806020840152611971816040850160208701611931565b601f01601f19169190910160400192915050565b5f8060408385031215611996575f80fd5b61199f836117b3565b946020939093013593505050565b5f602082840312156119bd575f80fd5b5051919050565b5f602082840312156119d4575f80fd5b8151801515811461175d575f80fd5b634e487b7160e01b5f52601160045260245ffd5b5f60018201611a0857611a086119e3565b5060010190565b8082018082111561058d5761058d6119e3565b5f8251611a33818460208701611931565b919091019291505056fe360894a13ba1a3210667c828492db98dca3e2076cc3735a920a3ca505d382bbc97667070c54ef182b0f5858b034beac1b6f3089aa2d3188bb1e8929f4fa9b92910dac8c06a04bec0b551627dad28bc00d6516b0caacd1c7b345fcdb5211334e402dd7bc7dec4dceedda775e58dd541e08a116c6c53815c0bd028192f7b626800cd5ed15c6e187e77e9aee88184c21f4f2182ab5827cb3b7e07fbedcd63f03300a2646970667358221220de8a5764010428c1f57ce7632e8a957cc96bf7f27a58a9584701177f7784029264736f6c63430008180033","linkReferences":{}},"methodIdentifiers":{"ADMIN_ROLE()":"75b238fc","DEFAULT_ADMIN_ROLE()":"a217fddf","OPERATOR_ROLE()":"f5b541a6","UPGRADE_INTERFACE_VERSION()":"ad3cb1cc","WITHDRAWER_ROLE()":"85f438c1","albumPrice()":"9d79b554","buyAlbum()":"73f2524b","canBuy(address)":"0808f3eb","getContractBalance()":"6f9fb98a","getRoleAdmin(bytes32)":"248a9ca3","getStats()":"c59d4847","grantRole(bytes32,address)":"2f2ff15d","hasRole(bytes32,address)":"91d14854","initialize(address,address,uint256)":"1794bb3c","pause()":"8456cb59","paused()":"5c975abb","proxiableUUID()":"52d1902d","renounceRole(bytes32,address)":"36568abe","revokeRole(bytes32,address)":"d547741f","setUSDC(address)":"b3e089a2","supportsInterface(bytes4)":"01ffc9a7","totalPurchases()":"5962a941","totalRevenue()":"bf2d9e0b","unpause()":"3f4ba83a","updatePrice(uint256)":"8d6cc56d","upgradeToAndCall(address,bytes)":"4f1ef286","usdc()":"3e413bee","withdrawAll(address)":"fa09e630","withdrawFunds(address,uint256)":"c1075329"},"id":43}