{"abi":[{"type":"constructor","inputs":[{"name":"_implementation","type":"address","internalType":"address"},{"name":"_data","type":"bytes","internalType":"bytes"}],"stateMutability":"nonpayable"},{"type":"fallback","stateMutability":"payable"},{"type":"receive","stateMutability":"payable"},{"type":"function","name":"admin","inputs":[],"outputs":[{"name":"","type":"address","internalType":"address"}],"stateMutability":"view"},{"type":"function","name":"implementation","inputs":[],"outputs":[{"name":"","type":"address","internalType":"address"}],"stateMutability":"view"}],"bytecode":{"object":"0x608060405234801561000f575f80fd5b5060405161031f38038061031f83398101604081905261002e91610147565b5f80546001600160a01b0384166001600160a01b031991821617909155600180549091163317905580511561010a575f826001600160a01b031682604051610076919061020f565b5f60405180830381855af49150503d805f81146100ae576040519150601f19603f3d011682016040523d82523d5f602084013e6100b3565b606091505b50509050806101085760405162461bcd60e51b815260206004820152601560248201527f496e697469616c697a6174696f6e206661696c65640000000000000000000000604482015260640160405180910390fd5b505b505061022a565b634e487b7160e01b5f52604160045260245ffd5b5f5b8381101561013f578181015183820152602001610127565b50505f910152565b5f8060408385031215610158575f80fd5b82516001600160a01b038116811461016e575f80fd5b60208401519092506001600160401b038082111561018a575f80fd5b818501915085601f83011261019d575f80fd5b8151818111156101af576101af610111565b604051601f8201601f19908116603f011681019083821181831017156101d7576101d7610111565b816040528281528860208487010111156101ef575f80fd5b610200836020830160208801610125565b80955050505050509250929050565b5f8251610220818460208701610125565b9190910192915050565b60e9806102365f395ff3fe6080604052600436106028575f3560e01c80635c60da1b14605e578063f851a44014609657602e565b36602e57005b5f80546040516001600160a01b0390911691369082375f803683855af43d805f843e818015605a578184f35b8184fd5b3480156068575f80fd5b505f54607a906001600160a01b031681565b6040516001600160a01b03909116815260200160405180910390f35b34801560a0575f80fd5b50600154607a906001600160a01b03168156fea2646970667358221220daf0ec34b3d12e76be49d402e4707301f0c8468c89e629668f9b83c0b8dccb0564736f6c63430008180033","linkReferences":{}},"methodIdentifiers":{"admin()":"f851a440","implementation()":"5c60da1b"},"id":44}