{"abi":[{"type":"constructor","inputs":[],"stateMutability":"nonpayable"},{"type":"function","name":"MINT_AMOUNT","inputs":[],"outputs":[{"name":"","type":"uint256","internalType":"uint256"}],"stateMutability":"view"},{"type":"function","name":"MINT_COOLDOWN","inputs":[],"outputs":[{"name":"","type":"uint256","internalType":"uint256"}],"stateMutability":"view"},{"type":"function","name":"allowance","inputs":[{"name":"owner","type":"address","internalType":"address"},{"name":"spender","type":"address","internalType":"address"}],"outputs":[{"name":"","type":"uint256","internalType":"uint256"}],"stateMutability":"view"},{"type":"function","name":"approve","inputs":[{"name":"spender","type":"address","internalType":"address"},{"name":"value","type":"uint256","internalType":"uint256"}],"outputs":[{"name":"","type":"bool","internalType":"bool"}],"stateMutability":"nonpayable"},{"type":"function","name":"balanceOf","inputs":[{"name":"account","type":"address","internalType":"address"}],"outputs":[{"name":"","type":"uint256","internalType":"uint256"}],"stateMutability":"view"},{"type":"function","name":"decimals","inputs":[],"outputs":[{"name":"","type":"uint8","internalType":"uint8"}],"stateMutability":"pure"},{"type":"function","name":"lastMintTime","inputs":[{"name":"","type":"address","internalType":"address"}],"outputs":[{"name":"","type":"uint256","internalType":"uint256"}],"stateMutability":"view"},{"type":"function","name":"mint","inputs":[],"outputs":[],"stateMutability":"nonpayable"},{"type":"function","name":"mintAmount","inputs":[{"name":"amount","type":"uint256","internalType":"uint256"}],"outputs":[],"stateMutability":"nonpayable"},{"type":"function","name":"mintTo","inputs":[{"name":"to","type":"address","internalType":"address"},{"name":"amount","type":"uint256","internalType":"uint256"}],"outputs":[],"stateMutability":"nonpayable"},{"type":"function","name":"name","inputs":[],"outputs":[{"name":"","type":"string","internalType":"string"}],"stateMutability":"view"},{"type":"function","name":"owner","inputs":[],"outputs":[{"name":"","type":"address","internalType":"address"}],"stateMutability":"view"},{"type":"function","name":"renounceOwnership","inputs":[],"outputs":[],"stateMutability":"nonpayable"},{"type":"function","name":"symbol","inputs":[],"outputs":[{"name":"","type":"string","internalType":"string"}],"stateMutability":"view"},{"type":"function","name":"timeUntilNextMint","inputs":[{"name":"user","type":"address","internalType":"address"}],"outputs":[{"name":"","type":"uint256","internalType":"uint256"}],"stateMutability":"view"},{"type":"function","name":"totalSupply","inputs":[],"outputs":[{"name":"","type":"uint256","internalType":"uint256"}],"stateMutability":"view"},{"type":"function","name":"transfer","inputs":[{"name":"to","type":"address","internalType":"address"},{"name":"value","type":"uint256","internalType":"uint256"}],"outputs":[{"name":"","type":"bool","internalType":"bool"}],"stateMutability":"nonpayable"},{"type":"function","name":"transferFrom","inputs":[{"name":"from","type":"address","internalType":"address"},{"name":"to","type":"address","internalType":"address"},{"name":"value","type":"uint256","internalType":"uint256"}],"outputs":[{"name":"","type":"bool","internalType":"bool"}],"stateMutability":"nonpayable"},{"type":"function","name":"transferOwnership","inputs":[{"name":"newOwner","type":"address","internalType":"address"}],"outputs":[],"stateMutability":"nonpayable"},{"type":"event","name":"Approval","inputs":[{"name":"owner","type":"address","indexed":true,"internalType":"address"},{"name":"spender","type":"address","indexed":true,"internalType":"address"},{"name":"value","type":"uint256","indexed":false,"internalType":"uint256"}],"anonymous":false},{"type":"event","name":"OwnershipTransferred","inputs":[{"name":"previousOwner","type":"address","indexed":true,"internalType":"address"},{"name":"newOwner","type":"address","indexed":true,"internalType":"address"}],"anonymous":false},{"type":"event","name":"Transfer","inputs":[{"name":"from","type":"address","indexed":true,"internalType":"address"},{"name":"to","type":"address","indexed":true,"internalType":"address"},{"name":"value","type":"uint256","indexed":false,"internalType":"uint256"}],"anonymous":false},{"type":"error","name":"ERC20InsufficientAllowance","inputs":[{"name":"spender","type":"address","internalType":"address"},{"name":"allowance","type":"uint256","internalType":"uint256"},{"name":"needed","type":"uint256","internalType":"uint256"}]},{"type":"error","name":"ERC20InsufficientBalance","inputs":[{"name":"sender","type":"address","internalType":"address"},{"name":"balance","type":"uint256","internalType":"uint256"},{"name":"needed","type":"uint256","internalType":"uint256"}]},{"type":"error","name":"ERC20InvalidApprover","inputs":[{"name":"approver","type":"address","internalType":"address"}]},{"type":"error","name":"ERC20InvalidReceiver","inputs":[{"name":"receiver","type":"address","internalType":"address"}]},{"type":"error","name":"ERC20InvalidSender","inputs":[{"name":"sender","type":"address","internalType":"address"}]},{"type":"error","name":"ERC20InvalidSpender","inputs":[{"name":"spender","type":"address","internalType":"address"}]},{"type":"error","name":"OwnableInvalidOwner","inputs":[{"name":"owner","type":"address","internalType":"address"}]},{"type":"error","name":"OwnableUnauthorizedAccount","inputs":[{"name":"account","type":"address","internalType":"address"}]}],"bytecode":{"object":"0x608060405234801562000010575f80fd5b5033604051806040016040528060098152602001684d6f636b205553444360b81b815250604051806040016040528060058152602001646d5553444360d81b8152508160039081620000639190620001a4565b506004620000728282620001a4565b5050506001600160a01b038116620000a357604051631e4fbdf760e01b81525f600482015260240160405180910390fd5b620000ae81620000b5565b5062000270565b600580546001600160a01b038381166001600160a01b0319831681179093556040519116919082907f8be0079c531659141344cd1fd0a4f28419497f9722a3daafe3b4186f6b6457e0905f90a35050565b634e487b7160e01b5f52604160045260245ffd5b600181811c908216806200012f57607f821691505b6020821081036200014e57634e487b7160e01b5f52602260045260245ffd5b50919050565b601f8211156200019f57805f5260205f20601f840160051c810160208510156200017b5750805b601f840160051c820191505b818110156200019c575f815560010162000187565b50505b505050565b81516001600160401b03811115620001c057620001c062000106565b620001d881620001d184546200011a565b8462000154565b602080601f8311600181146200020e575f8415620001f65750858301515b5f19600386901b1c1916600185901b17855562000268565b5f85815260208120601f198616915b828110156200023e578886015182559484019460019091019084016200021d565b50858210156200025c57878501515f19600388901b60f8161c191681555b505060018460011b0185555b505050505050565b610a74806200027e5f395ff3fe608060405234801561000f575f80fd5b506004361061011c575f3560e01c80636aa71d18116100a9578063a9059cbb1161006e578063a9059cbb14610246578063dd62ed3e14610259578063e412c3c814610291578063f2fde38b146102a4578063f7ee7a43146102b7575f80fd5b80636aa71d18146101d457806370a08231146101f3578063715018a61461021b5780638da5cb5b1461022357806395d89b411461023e575f80fd5b806318160ddd116100ef57806318160ddd1461018c57806323b872dd14610194578063313ce567146101a7578063449a52f8146101b65780635427789c146101c9575f80fd5b806306fdde0314610120578063095ea7b31461013e5780631249c58b146101615780631306834d1461016b575b5f80fd5b6101286102c0565b604051610135919061089c565b60405180910390f35b61015161014c366004610903565b610350565b6040519015158152602001610135565b610169610369565b005b61017e61017936600461092b565b6103fa565b604051908152602001610135565b60025461017e565b6101516101a236600461094b565b610452565b60405160068152602001610135565b6101696101c4366004610903565b610475565b61017e633b9aca0081565b61017e6101e236600461092b565b60066020525f908152604090205481565b61017e61020136600461092b565b6001600160a01b03165f9081526020819052604090205490565b61016961048b565b6005546040516001600160a01b039091168152602001610135565b61012861049c565b610151610254366004610903565b6104ab565b61017e610267366004610984565b6001600160a01b039182165f90815260016020908152604080832093909416825291909152205490565b61016961029f3660046109b5565b6104b8565b6101696102b236600461092b565b6104cd565b61017e610e1081565b6060600380546102cf906109cc565b80601f01602080910402602001604051908101604052809291908181526020018280546102fb906109cc565b80156103465780601f1061031d57610100808354040283529160200191610346565b820191905f5260205f20905b81548152906001019060200180831161032957829003601f168201915b5050505050905090565b5f3361035d818585610507565b60019150505b92915050565b335f9081526006602052604090205461038590610e1090610a18565b4210156103d95760405162461bcd60e51b815260206004820181905260248201527f506c656173652077616974206265666f7265206d696e74696e6720616761696e60448201526064015b60405180910390fd5b335f8181526006602052604090204290556103f890633b9aca00610519565b565b6001600160a01b0381165f9081526006602052604081205480820361042157505f92915050565b5f61042e610e1083610a18565b905080421061044057505f9392505050565b61044a4282610a2b565b949350505050565b5f3361045f85828561054d565b61046a8585856105c9565b506001949350505050565b61047d610626565b6104878282610519565b5050565b610493610626565b6103f85f610653565b6060600480546102cf906109cc565b5f3361035d8185856105c9565b6104c0610626565b6104ca3382610519565b50565b6104d5610626565b6001600160a01b0381166104fe57604051631e4fbdf760e01b81525f60048201526024016103d0565b6104ca81610653565b61051483838360016106a4565b505050565b6001600160a01b0382166105425760405163ec442f0560e01b81525f60048201526024016103d0565b6104875f8383610776565b6001600160a01b038381165f908152600160209081526040808320938616835292905220545f198110156105c357818110156105b557604051637dc7a0d960e11b81526001600160a01b038416600482015260248101829052604481018390526064016103d0565b6105c384848484035f6106a4565b50505050565b6001600160a01b0383166105f257604051634b637e8f60e11b81525f60048201526024016103d0565b6001600160a01b03821661061b5760405163ec442f0560e01b81525f60048201526024016103d0565b610514838383610776565b6005546001600160a01b031633146103f85760405163118cdaa760e01b81523360048201526024016103d0565b600580546001600160a01b038381166001600160a01b0319831681179093556040519116919082907f8be0079c531659141344cd1fd0a4f28419497f9722a3daafe3b4186f6b6457e0905f90a35050565b6001600160a01b0384166106cd5760405163e602df0560e01b81525f60048201526024016103d0565b6001600160a01b0383166106f657604051634a1406b160e11b81525f60048201526024016103d0565b6001600160a01b038085165f90815260016020908152604080832093871683529290522082905580156105c357826001600160a01b0316846001600160a01b03167f8c5be1e5ebec7d5bd14f71427d1e84f3dd0314c0f7b2291e5b200ac8c7c3b9258460405161076891815260200190565b60405180910390a350505050565b6001600160a01b0383166107a0578060025f8282546107959190610a18565b909155506108109050565b6001600160a01b0383165f90815260208190526040902054818110156107f25760405163391434e360e21b81526001600160a01b038516600482015260248101829052604481018390526064016103d0565b6001600160a01b0384165f9081526020819052604090209082900390555b6001600160a01b03821661082c5760028054829003905561084a565b6001600160a01b0382165f9081526020819052604090208054820190555b816001600160a01b0316836001600160a01b03167fddf252ad1be2c89b69c2b068fc378daa952ba7f163c4a11628f55a4df523b3ef8360405161088f91815260200190565b60405180910390a3505050565b5f602080835283518060208501525f5b818110156108c8578581018301518582016040015282016108ac565b505f604082860101526040601f19601f8301168501019250505092915050565b80356001600160a01b03811681146108fe575f80fd5b919050565b5f8060408385031215610914575f80fd5b61091d836108e8565b946020939093013593505050565b5f6020828403121561093b575f80fd5b610944826108e8565b9392505050565b5f805f6060848603121561095d575f80fd5b610966846108e8565b9250610974602085016108e8565b9150604084013590509250925092565b5f8060408385031215610995575f80fd5b61099e836108e8565b91506109ac602084016108e8565b90509250929050565b5f602082840312156109c5575f80fd5b5035919050565b600181811c908216806109e057607f821691505b6020821081036109fe57634e487b7160e01b5f52602260045260245ffd5b50919050565b634e487b7160e01b5f52601160045260245ffd5b8082018082111561036357610363610a04565b8181038181111561036357610363610a0456fea2646970667358221220ded9296198cd35dee7639010194d1aa3a13477eaf7edc7a5310600ea0674b66e64736f6c63430008180033","linkReferences":{}},"methodIdentifiers":{"MINT_AMOUNT()":"5427789c","MINT_COOLDOWN()":"f7ee7a43","allowance(address,address)":"dd62ed3e","approve(address,uint256)":"095ea7b3","balanceOf(address)":"70a08231","decimals()":"313ce567","lastMintTime(address)":"6aa71d18","mint()":"1249c58b","mintAmount(uint256)":"e412c3c8","mintTo(address,uint256)":"449a52f8","name()":"06fdde03","owner()":"8da5cb5b","renounceOwnership()":"715018a6","symbol()":"95d89b41","timeUntilNextMint(address)":"1306834d","totalSupply()":"18160ddd","transfer(address,uint256)":"a9059cbb","transferFrom(address,address,uint256)":"23b872dd","transferOwnership(address)":"f2fde38b"},"id":47}