{"abi":[{"type":"constructor","inputs":[],"stateMutability":"nonpayable"},{"type":"function","name":"MINT_AMOUNT","inputs":[],"outputs":[{"name":"","type":"uint256","internalType":"uint256"}],"stateMutability":"view"},{"type":"function","name":"MINT_COOLDOWN","inputs":[],"outputs":[{"name":"","type":"uint256","internalType":"uint256"}],"stateMutability":"view"},{"type":"function","name":"allowance","inputs":[{"name":"owner","type":"address","internalType":"address"},{"name":"spender","type":"address","internalType":"address"}],"outputs":[{"name":"","type":"uint256","internalType":"uint256"}],"stateMutability":"view"},{"type":"function","name":"approve","inputs":[{"name":"spender","type":"address","internalType":"address"},{"name":"value","type":"uint256","internalType":"uint256"}],"outputs":[{"name":"","type":"bool","internalType":"bool"}],"stateMutability":"nonpayable"},{"type":"function","name":"balanceOf","inputs":[{"name":"account","type":"address","internalType":"address"}],"outputs":[{"name":"","type":"uint256","internalType":"uint256"}],"stateMutability":"view"},{"type":"function","name":"decimals","inputs":[],"outputs":[{"name":"","type":"uint8","internalType":"uint8"}],"stateMutability":"pure"},{"type":"function","name":"lastMintTime","inputs":[{"name":"","type":"address","internalType":"address"}],"outputs":[{"name":"","type":"uint256","internalType":"uint256"}],"stateMutability":"view"},{"type":"function","name":"mint","inputs":[],"outputs":[],"stateMutability":"nonpayable"},{"type":"function","name":"mintAmount","inputs":[{"name":"amount","type":"uint256","internalType":"uint256"}],"outputs":[],"stateMutability":"nonpayable"},{"type":"function","name":"mintTo","inputs":[{"name":"to","type":"address","internalType":"address"},{"name":"amount","type":"uint256","internalType":"uint256"}],"outputs":[],"stateMutability":"nonpayable"},{"type":"function","name":"name","inputs":[],"outputs":[{"name":"","type":"string","internalType":"string"}],"stateMutability":"view"},{"type":"function","name":"owner","inputs":[],"outputs":[{"name":"","type":"address","internalType":"address"}],"stateMutability":"view"},{"type":"function","name":"renounceOwnership","inputs":[],"outputs":[],"stateMutability":"nonpayable"},{"type":"function","name":"symbol","inputs":[],"outputs":[{"name":"","type":"string","internalType":"string"}],"stateMutability":"view"},{"type":"function","name":"timeUntilNextMint","inputs":[{"name":"user","type":"address","internalType":"address"}],"outputs":[{"name":"","type":"uint256","internalType":"uint256"}],"stateMutability":"view"},{"type":"function","name":"totalSupply","inputs":[],"outputs":[{"name":"","type":"uint256","internalType":"uint256"}],"stateMutability":"view"},{"type":"function","name":"transfer","inputs":[{"name":"to","type":"address","internalType":"address"},{"name":"value","type":"uint256","internalType":"uint256"}],"outputs":[{"name":"","type":"bool","internalType":"bool"}],"stateMutability":"nonpayable"},{"type":"function","name":"transferFrom","inputs":[{"name":"from","type":"address","internalType":"address"},{"name":"to","type":"address","internalType":"address"},{"name":"value","type":"uint256","internalType":"uint256"}],"outputs":[{"name":"","type":"bool","internalType":"bool"}],"stateMutability":"nonpayable"},{"type":"function","name":"transferOwnership","inputs":[{"name":"newOwner","type":"address","internalType":"address"}],"outputs":[],"stateMutability":"nonpayable"},{"type":"event","name":"Approval","inputs":[{"name":"owner","type":"address","indexed":true,"internalType":"address"},{"name":"spender","type":"address","indexed":true,"internalType":"address"},{"name":"value","type":"uint256","indexed":false,"internalType":"uint256"}],"anonymous":false},{"type":"event","name":"OwnershipTransferred","inputs":[{"name":"previousOwner","type":"address","indexed":true,"internalType":"address"},{"name":"newOwner","type":"address","indexed":true,"internalType":"address"}],"anonymous":false},{"type":"event","name":"Transfer","inputs":[{"name":"from","type":"address","indexed":true,"internalType":"address"},{"name":"to","type":"address","indexed":true,"internalType":"address"},{"name":"value","type":"uint256","indexed":false,"internalType":"uint256"}],"anonymous":false},{"type":"error","name":"ERC20InsufficientAllowance","inputs":[{"name":"spender","type":"address","internalType":"address"},{"name":"allowance","type":"uint256","internalType":"uint256"},{"name":"needed","type":"uint256","internalType":"uint256"}]},{"type":"error","name":"ERC20InsufficientBalance","inputs":[{"name":"sender","type":"address","internalType":"address"},{"name":"balance","type":"uint256","internalType":"uint256"},{"name":"needed","type":"uint256","internalType":"uint256"}]},{"type":"error","name":"ERC20InvalidApprover","inputs":[{"name":"approver","type":"address","internalType":"address"}]},{"type":"error","name":"ERC20InvalidReceiver","inputs":[{"name":"receiver","type":"address","internalType":"address"}]},{"type":"error","name":"ERC20InvalidSender","inputs":[{"name":"sender","type":"address","internalType":"address"}]},{"type":"error","name":"ERC20InvalidSpender","inputs":[{"name":"spender","type":"address","internalType":"address"}]},{"type":"error","name":"OwnableInvalidOwner","inputs":[{"name":"owner","type":"address","internalType":"address"}]},{"type":"error","name":"OwnableUnauthorizedAccount","inputs":[{"name":"account","type":"address","internalType":"address"}]}],"bytecode":{"object":"0x60803462000358576001600160401b0390604090808201838111828210176200026457825260098152602090684d6f636b205553444360b81b828201528251938385018581108282111762000264578452600594858152646d5553444360d81b84820152825182811162000264576003918254916001958684811c941680156200034d575b8885101462000339578190601f94858111620002e7575b50889085831160011462000284575f9262000278575b50505f1982861b1c191690861b1783555b8051938411620002645760049586548681811c9116801562000259575b82821014620002465783811162000200575b50809285116001146200019657509383949184925f956200018a575b50501b925f19911b1c19161781555b33156200017557508154336001600160a01b031982168117909355905191906001600160a01b03167f8be0079c531659141344cd1fd0a4f28419497f9722a3daafe3b4186f6b6457e05f80a3610af090816200035d8239f35b5f6024925191631e4fbdf760e01b8352820152fd5b015193505f806200010d565b92919084601f198116885f52855f20955f905b89838310620001e55750505010620001cb575b50505050811b0181556200011c565b01519060f8845f19921b161c191690555f808080620001bc565b858701518955909701969485019488935090810190620001a9565b875f52815f20848088018c1c8201928489106200023c575b018b1c019087905b82811062000230575050620000f1565b5f815501879062000220565b9250819262000218565b602288634e487b7160e01b5f525260245ffd5b90607f1690620000df565b634e487b7160e01b5f52604160045260245ffd5b015190505f80620000b1565b90889350601f19831691875f528a5f20925f5b8c828210620002d05750508411620002b8575b505050811b018355620000c2565b01515f1983881b60f8161c191690555f8080620002aa565b8385015186558c9790950194938401930162000297565b909150855f52885f20858085018d1c8201928b86106200032f575b918d8b928796959401901c01915b828110620003205750506200009b565b5f81558594508a910162000310565b9250819262000302565b634e487b7160e01b5f52602260045260245ffd5b93607f169362000084565b5f80fdfe6080604090808252600480361015610015575f80fd5b5f3560e01c91826306fdde03146107a857508163095ea7b3146107005781631249c58b146105ee5781631306834d146105c257816318160ddd146105a457816323b872dd146104b2578163313ce56714610497578163449a52f81461046b5781635427789c1461044d5781636aa71d181461041657816370a08231146103e0578163715018a6146103855781638da5cb5b1461035d57816395d89b411461023e578163a9059cbb1461020e578163dd62ed3e146101c5578163e412c3c81461019f578163f2fde38b14610110575063f7ee7a43146100f1575f80fd5b3461010c575f36600319011261010c5760209051610e108152f35b5f80fd5b90503461010c57602036600319011261010c5761012b6108c7565b90610134610a8e565b6001600160a01b03918216928315610189575050600554826bffffffffffffffffffffffff60a01b821617600555167f8be0079c531659141344cd1fd0a4f28419497f9722a3daafe3b4186f6b6457e05f80a3005b905f6024925191631e4fbdf760e01b8352820152fd5b3461010c57602036600319011261010c576101c3906101bc610a8e565b3533610954565b005b823461010c578060031936011261010c576020906101e16108c7565b6101e96108dd565b9060018060a01b038091165f5260018452825f2091165f528252805f20549051908152f35b823461010c578060031936011261010c5760209061023761022d6108c7565b60243590336109cc565b5160018152f35b823461010c575f36600319011261010c578051905f835460018160011c9060018316928315610353575b60209384841081146103405783885290811561032457506001146102d0575b505050829003601f01601f191682019267ffffffffffffffff8411838510176102bd57508291826102b9925282610880565b0390f35b604190634e487b7160e01b5f525260245ffd5b5f878152929350837f8a35acfbc15ff81a39ae7d344fd709f28e8600b4aa8c65c6b64bfe7fe36bd19b5b8385106103105750505050830101848080610287565b8054888601830152930192849082016102fa565b60ff1916878501525050151560051b8401019050848080610287565b602289634e487b7160e01b5f525260245ffd5b91607f1691610268565b823461010c575f36600319011261010c5760055490516001600160a01b039091168152602090f35b3461010c575f36600319011261010c5761039d610a8e565b600580546001600160a01b031981169091555f906001600160a01b03167f8be0079c531659141344cd1fd0a4f28419497f9722a3daafe3b4186f6b6457e08280a3005b823461010c57602036600319011261010c576020906001600160a01b036104056108c7565b165f525f8252805f20549051908152f35b823461010c57602036600319011261010c576020906001600160a01b0361043b6108c7565b165f5260068252805f20549051908152f35b823461010c575f36600319011261010c5760209051633b9aca008152f35b823461010c5736600319011261010c576101c36104866108c7565b61048e610a8e565b60243590610954565b823461010c575f36600319011261010c576020905160068152f35b90503461010c57606036600319011261010c576104cd6108c7565b6104d56108dd565b906044359260018060a01b038216805f526001602052855f20335f52602052855f2054915f198310610510575b6020876102378888886109cc565b85831061057857811561056257331561054c57505f90815260016020908152868220338352815290869020918590039091558290610237610502565b6024905f885191634a1406b160e11b8352820152fd5b6024905f88519163e602df0560e01b8352820152fd5b8651637dc7a0d960e11b8152339181019182526020820193909352604081018690528291506060010390fd5b823461010c575f36600319011261010c576020906002549051908152f35b823461010c57602036600319011261010c576020906105e76105e26108c7565b6108f3565b9051908152f35b823461010c575f36600319011261010c57335f5260209060068252805f2054610e1081018091116106ed5742106106ad57335f526006825242815f2055331561069857600254633b9aca00938482018092116106855750917fddf252ad1be2c89b69c2b068fc378daa952ba7f163c4a11628f55a4df523b3ef915f93600255338452838252808420858154019055519384523393a3005b601190634e487b7160e01b5f525260245ffd5b5163ec442f0560e01b81525f81840152602490fd5b5162461bcd60e51b815291820181905260248201527f506c656173652077616974206265666f7265206d696e74696e6720616761696e6044820152606490fd5b601184634e487b7160e01b5f525260245ffd5b823461010c578060031936011261010c576107196108c7565b602435903315610792576001600160a01b031690811561077c5760209350335f5260018452825f20825f52845280835f205582519081527f8c5be1e5ebec7d5bd14f71427d1e84f3dd0314c0f7b2291e5b200ac8c7c3b925843392a35160018152f35b8251634a1406b160e11b81525f81860152602490fd5b825163e602df0560e01b81525f81860152602490fd5b833461010c575f36600319011261010c575f60035460018160011c9060018316928315610876575b602093848410811461034057838852908115610324575060011461082057505050829003601f01601f191682019267ffffffffffffffff8411838510176102bd57508291826102b9925282610880565b60035f908152929350837fc2575a0e9e593c00f959f8c92f12db2869c3395a3b0502d05e2516446f71f85b5b8385106108625750505050830101848080610287565b80548886018301529301928490820161084c565b91607f16916107d0565b602080825282518183018190529093925f5b8281106108b357505060409293505f838284010152601f8019910116010190565b818101860151848201604001528501610892565b600435906001600160a01b038216820361010c57565b602435906001600160a01b038216820361010c57565b6001600160a01b03165f90815260066020526040902054801561094f57610e1080820191828111610934578242101561094857429003019081116109345790565b634e487b7160e01b5f52601160045260245ffd5b5050505f90565b505f90565b6001600160a01b03169081156109b457600254908082018092116109345760207fddf252ad1be2c89b69c2b068fc378daa952ba7f163c4a11628f55a4df523b3ef915f9360025584845283825260408420818154019055604051908152a3565b60405163ec442f0560e01b81525f6004820152602490fd5b916001600160a01b03808416928315610a7657169283156109b457825f525f60205260405f205490828210610a445750817fddf252ad1be2c89b69c2b068fc378daa952ba7f163c4a11628f55a4df523b3ef92602092855f525f84520360405f2055845f5260405f20818154019055604051908152a3565b60405163391434e360e21b81526001600160a01b03919091166004820152602481019190915260448101829052606490fd5b604051634b637e8f60e11b81525f6004820152602490fd5b6005546001600160a01b03163303610aa257565b60405163118cdaa760e01b8152336004820152602490fdfea2646970667358221220da246c0a67f3ec649257372d9f5f07ce455018cc3823816581fa4b0f8c3bdd5864736f6c63430008180033","linkReferences":{}},"methodIdentifiers":{"MINT_AMOUNT()":"5427789c","MINT_COOLDOWN()":"f7ee7a43","allowance(address,address)":"dd62ed3e","approve(address,uint256)":"095ea7b3","balanceOf(address)":"70a08231","decimals()":"313ce567","lastMintTime(address)":"6aa71d18","mint()":"1249c58b","mintAmount(uint256)":"e412c3c8","mintTo(address,uint256)":"449a52f8","name()":"06fdde03","owner()":"8da5cb5b","renounceOwnership()":"715018a6","symbol()":"95d89b41","timeUntilNextMint(address)":"1306834d","totalSupply()":"18160ddd","transfer(address,uint256)":"a9059cbb","transferFrom(address,address,uint256)":"23b872dd","transferOwnership(address)":"f2fde38b"},"id":37}