{"abi":[{"type":"constructor","inputs":[],"stateMutability":"nonpayable"},{"type":"function","name":"ADMIN_ROLE","inputs":[],"outputs":[{"name":"","type":"bytes32","internalType":"bytes32"}],"stateMutability":"view"},{"type":"function","name":"DEFAULT_ADMIN_ROLE","inputs":[],"outputs":[{"name":"","type":"bytes32","internalType":"bytes32"}],"stateMutability":"view"},{"type":"function","name":"OPERATOR_ROLE","inputs":[],"outputs":[{"name":"","type":"bytes32","internalType":"bytes32"}],"stateMutability":"view"},{"type":"function","name":"UPGRADE_INTERFACE_VERSION","inputs":[],"outputs":[{"name":"","type":"string","internalType":"string"}],"stateMutability":"view"},{"type":"function","name":"WITHDRAWER_ROLE","inputs":[],"outputs":[{"name":"","type":"bytes32","internalType":"bytes32"}],"stateMutability":"view"},{"type":"function","name":"albumPrice","inputs":[],"outputs":[{"name":"","type":"uint256","internalType":"uint256"}],"stateMutability":"view"},{"type":"function","name":"buyAlbum","inputs":[],"outputs":[],"stateMutability":"nonpayable"},{"type":"function","name":"canBuy","inputs":[{"name":"buyer","type":"address","internalType":"address"}],"outputs":[{"name":"","type":"bool","internalType":"bool"}],"stateMutability":"view"},{"type":"function","name":"getBuyerInfo","inputs":[{"name":"buyer","type":"address","internalType":"address"}],"outputs":[{"name":"purchased","type":"bool","internalType":"bool"},{"name":"timestamp","type":"uint256","internalType":"uint256"}],"stateMutability":"view"},{"type":"function","name":"getContractBalance","inputs":[],"outputs":[{"name":"","type":"uint256","internalType":"uint256"}],"stateMutability":"view"},{"type":"function","name":"getRoleAdmin","inputs":[{"name":"role","type":"bytes32","internalType":"bytes32"}],"outputs":[{"name":"","type":"bytes32","internalType":"bytes32"}],"stateMutability":"view"},{"type":"function","name":"getStats","inputs":[],"outputs":[{"name":"price","type":"uint256","internalType":"uint256"},{"name":"purchases","type":"uint256","internalType":"uint256"},{"name":"revenue","type":"uint256","internalType":"uint256"},{"name":"balance","type":"uint256","internalType":"uint256"}],"stateMutability":"view"},{"type":"function","name":"grantRole","inputs":[{"name":"role","type":"bytes32","internalType":"bytes32"},{"name":"account","type":"address","internalType":"address"}],"outputs":[],"stateMutability":"nonpayable"},{"type":"function","name":"hasPurchased","inputs":[{"name":"","type":"address","internalType":"address"}],"outputs":[{"name":"","type":"bool","internalType":"bool"}],"stateMutability":"view"},{"type":"function","name":"hasRole","inputs":[{"name":"role","type":"bytes32","internalType":"bytes32"},{"name":"account","type":"address","internalType":"address"}],"outputs":[{"name":"","type":"bool","internalType":"bool"}],"stateMutability":"view"},{"type":"function","name":"initialize","inputs":[{"name":"_usdc","type":"address","internalType":"address"},{"name":"_admin","type":"address","internalType":"address"},{"name":"_initialPrice","type":"uint256","internalType":"uint256"}],"outputs":[],"stateMutability":"nonpayable"},{"type":"function","name":"pause","inputs":[],"outputs":[],"stateMutability":"nonpayable"},{"type":"function","name":"paused","inputs":[],"outputs":[{"name":"","type":"bool","internalType":"bool"}],"stateMutability":"view"},{"type":"function","name":"proxiableUUID","inputs":[],"outputs":[{"name":"","type":"bytes32","internalType":"bytes32"}],"stateMutability":"view"},{"type":"function","name":"purchaseTimestamp","inputs":[{"name":"","type":"address","internalType":"address"}],"outputs":[{"name":"","type":"uint256","internalType":"uint256"}],"stateMutability":"view"},{"type":"function","name":"renounceRole","inputs":[{"name":"role","type":"bytes32","internalType":"bytes32"},{"name":"callerConfirmation","type":"address","internalType":"address"}],"outputs":[],"stateMutability":"nonpayable"},{"type":"function","name":"revokeRole","inputs":[{"name":"role","type":"bytes32","internalType":"bytes32"},{"name":"account","type":"address","internalType":"address"}],"outputs":[],"stateMutability":"nonpayable"},{"type":"function","name":"setUSDC","inputs":[{"name":"_usdc","type":"address","internalType":"address"}],"outputs":[],"stateMutability":"nonpayable"},{"type":"function","name":"supportsInterface","inputs":[{"name":"interfaceId","type":"bytes4","internalType":"bytes4"}],"outputs":[{"name":"","type":"bool","internalType":"bool"}],"stateMutability":"view"},{"type":"function","name":"totalPurchases","inputs":[],"outputs":[{"name":"","type":"uint256","internalType":"uint256"}],"stateMutability":"view"},{"type":"function","name":"totalRevenue","inputs":[],"outputs":[{"name":"","type":"uint256","internalType":"uint256"}],"stateMutability":"view"},{"type":"function","name":"unpause","inputs":[],"outputs":[],"stateMutability":"nonpayable"},{"type":"function","name":"updatePrice","inputs":[{"name":"newPrice","type":"uint256","internalType":"uint256"}],"outputs":[],"stateMutability":"nonpayable"},{"type":"function","name":"upgradeToAndCall","inputs":[{"name":"newImplementation","type":"address","internalType":"address"},{"name":"data","type":"bytes","internalType":"bytes"}],"outputs":[],"stateMutability":"payable"},{"type":"function","name":"usdc","inputs":[],"outputs":[{"name":"","type":"address","internalType":"contract IERC20"}],"stateMutability":"view"},{"type":"function","name":"withdrawAll","inputs":[{"name":"to","type":"address","internalType":"address"}],"outputs":[],"stateMutability":"nonpayable"},{"type":"function","name":"withdrawFunds","inputs":[{"name":"to","type":"address","internalType":"address"},{"name":"amount","type":"uint256","internalType":"uint256"}],"outputs":[],"stateMutability":"nonpayable"},{"type":"event","name":"AlbumPurchased","inputs":[{"name":"buyer","type":"address","indexed":true,"internalType":"address"},{"name":"price","type":"uint256","indexed":false,"internalType":"uint256"},{"name":"timestamp","type":"uint256","indexed":false,"internalType":"uint256"}],"anonymous":false},{"type":"event","name":"FundsWithdrawn","inputs":[{"name":"to","type":"address","indexed":true,"internalType":"address"},{"name":"amount","type":"uint256","indexed":false,"internalType":"uint256"}],"anonymous":false},{"type":"event","name":"Initialized","inputs":[{"name":"version","type":"uint64","indexed":false,"internalType":"uint64"}],"anonymous":false},{"type":"event","name":"Paused","inputs":[{"name":"account","type":"address","indexed":false,"internalType":"address"}],"anonymous":false},{"type":"event","name":"PriceUpdated","inputs":[{"name":"oldPrice","type":"uint256","indexed":false,"internalType":"uint256"},{"name":"newPrice","type":"uint256","indexed":false,"internalType":"uint256"}],"anonymous":false},{"type":"event","name":"RoleAdminChanged","inputs":[{"name":"role","type":"bytes32","indexed":true,"internalType":"bytes32"},{"name":"previousAdminRole","type":"bytes32","indexed":true,"internalType":"bytes32"},{"name":"newAdminRole","type":"bytes32","indexed":true,"internalType":"bytes32"}],"anonymous":false},{"type":"event","name":"RoleGranted","inputs":[{"name":"role","type":"bytes32","indexed":true,"internalType":"bytes32"},{"name":"account","type":"address","indexed":true,"internalType":"address"},{"name":"sender","type":"address","indexed":true,"internalType":"address"}],"anonymous":false},{"type":"event","name":"RoleRevoked","inputs":[{"name":"role","type":"bytes32","indexed":true,"internalType":"bytes32"},{"name":"account","type":"address","indexed":true,"internalType":"address"},{"name":"sender","type":"address","indexed":true,"internalType":"address"}],"anonymous":false},{"type":"event","name":"Unpaused","inputs":[{"name":"account","type":"address","indexed":false,"internalType":"address"}],"anonymous":false},{"type":"event","name":"Upgraded","inputs":[{"name":"implementation","type":"address","indexed":true,"internalType":"address"}],"anonymous":false},{"type":"error","name":"AccessControlBadConfirmation","inputs":[]},{"type":"error","name":"AccessControlUnauthorizedAccount","inputs":[{"name":"account","type":"address","internalType":"address"},{"name":"neededRole","type":"bytes32","internalType":"bytes32"}]},{"type":"error","name":"AddressEmptyCode","inputs":[{"name":"target","type":"address","internalType":"address"}]},{"type":"error","name":"ERC1967InvalidImplementation","inputs":[{"name":"implementation","type":"address","internalType":"address"}]},{"type":"error","name":"ERC1967NonPayable","inputs":[]},{"type":"error","name":"EnforcedPause","inputs":[]},{"type":"error","name":"ExpectedPause","inputs":[]},{"type":"error","name":"FailedCall","inputs":[]},{"type":"error","name":"InvalidInitialization","inputs":[]},{"type":"error","name":"NotInitializing","inputs":[]},{"type":"error","name":"ReentrancyGuardReentrantCall","inputs":[]},{"type":"error","name":"UUPSUnauthorizedCallContext","inputs":[]},{"type":"error","name":"UUPSUnsupportedProxiableUUID","inputs":[{"name":"slot","type":"bytes32","internalType":"bytes32"}]}],"bytecode":{"object":"0x60a060405230608052348015610013575f80fd5b5061001c610021565b6100d3565b7ff0c57e16840df040f15088dc2f81fe391c3923bec73e23a9662efc9c229c6a00805468010000000000000000900460ff16156100715760405163f92ee8a960e01b815260040160405180910390fd5b80546001600160401b03908116146100d05780546001600160401b0319166001600160401b0390811782556040519081527fc7f505b2f371ae2175ee4913f4499e1f2633a7b5936321eed1cdaeb6115181d29060200160405180910390a15b50565b608051611d416100f95f395f81816114ac015281816114d501526116160152611d415ff3fe6080604052600436106101db575f3560e01c80638456cb59116100fd578063ad3cb1cc11610092578063c59d484711610062578063c59d4847146105a1578063d547741f146105d5578063f5b541a6146105f4578063fa09e63014610614575f80fd5b8063ad3cb1cc14610511578063b3e089a21461054e578063bf2d9e0b1461056d578063c107532914610582575f80fd5b806391d14854116100cd57806391d148541461046e5780639d03ade91461048d5780639d79b554146104e9578063a217fddf146104fe575f80fd5b80638456cb59146103ed57806385f438c1146104015780638d6cc56d1461042157806390118fb414610440575f80fd5b80634f1ef286116101735780636f9fb98a116101435780636f9fb98a1461036757806373f2524b1461037b57806375b238fc1461038f57806376755118146103c2575f80fd5b80634f1ef2861461030857806352d1902d1461031b5780635962a9411461032f5780635c975abb14610344575f80fd5b80632f2ff15d116101ae5780632f2ff15d1461028057806336568abe1461029f5780633e413bee146102be5780633f4ba83a146102f4575f80fd5b806301ffc9a7146101df5780630808f3eb146102135780631794bb3c14610232578063248a9ca314610253575b5f80fd5b3480156101ea575f80fd5b506101fe6101f93660046119ba565b610633565b60405190151581526020015b60405180910390f35b34801561021e575f80fd5b506101fe61022d3660046119fc565b610669565b34801561023d575f80fd5b5061025161024c366004611a15565b6106a5565b005b34801561025e575f80fd5b5061027261026d366004611a4e565b61092b565b60405190815260200161020a565b34801561028b575f80fd5b5061025161029a366004611a65565b61094b565b3480156102aa575f80fd5b506102516102b9366004611a65565b61096d565b3480156102c9575f80fd5b505f546102dc906001600160a01b031681565b6040516001600160a01b03909116815260200161020a565b3480156102ff575f80fd5b506102516109a5565b610251610316366004611aa3565b6109c7565b348015610326575f80fd5b506102726109e6565b34801561033a575f80fd5b5061027260025481565b34801561034f575f80fd5b505f80516020611cec8339815191525460ff166101fe565b348015610372575f80fd5b50610272610a01565b348015610386575f80fd5b50610251610a70565b34801561039a575f80fd5b506102727fa49807205ce4d355092ef5a8a18f56e8913cf4a201fbe287825b095693c2177581565b3480156103cd575f80fd5b506102726103dc3660046119fc565b60056020525f908152604090205481565b3480156103f8575f80fd5b50610251610c44565b34801561040c575f80fd5b506102725f80516020611cac83398151915281565b34801561042c575f80fd5b5061025161043b366004611a4e565b610c63565b34801561044b575f80fd5b506101fe61045a3660046119fc565b60046020525f908152604090205460ff1681565b348015610479575f80fd5b506101fe610488366004611a65565b610d0f565b348015610498575f80fd5b506104d26104a73660046119fc565b6001600160a01b03165f9081526004602090815260408083205460059092529091205460ff90911691565b60408051921515835260208301919091520161020a565b3480156104f4575f80fd5b5061027260015481565b348015610509575f80fd5b506102725f81565b34801561051c575f80fd5b50610541604051806040016040528060058152602001640352e302e360dc1b81525081565b60405161020a9190611b81565b348015610559575f80fd5b506102516105683660046119fc565b610d45565b348015610578575f80fd5b5061027260035481565b34801561058d575f80fd5b5061025161059c366004611bb3565b610dde565b3480156105ac575f80fd5b506105b5611036565b60408051948552602085019390935291830152606082015260800161020a565b3480156105e0575f80fd5b506102516105ef366004611a65565b6110c3565b3480156105ff575f80fd5b506102725f80516020611c8c83398151915281565b34801561061f575f80fd5b5061025161062e3660046119fc565b6110df565b5f6001600160e01b03198216637965db0b60e01b148061066357506301ffc9a760e01b6001600160e01b03198316145b92915050565b6001600160a01b0381165f9081526004602052604081205460ff1615801561066357505f80516020611cec8339815191525460ff161592915050565b5f6106ae6112de565b805490915060ff600160401b820416159067ffffffffffffffff165f811580156106d55750825b90505f8267ffffffffffffffff1660011480156106f15750303b155b9050811580156106ff575080155b1561071d5760405163f92ee8a960e01b815260040160405180910390fd5b845467ffffffffffffffff19166001178555831561074757845460ff60401b1916600160401b1785555b6001600160a01b0388166107995760405162461bcd60e51b8152602060048201526014602482015273496e76616c69642055534443206164647265737360601b60448201526064015b60405180910390fd5b6001600160a01b0387166107e75760405162461bcd60e51b8152602060048201526015602482015274496e76616c69642061646d696e206164647265737360581b6044820152606401610790565b5f86116108365760405162461bcd60e51b815260206004820152601c60248201527f5072696365206d7573742062652067726561746572207468616e2030000000006044820152606401610790565b61083e611306565b610846611306565b61084e61130e565b610856611306565b5f80546001600160a01b0319166001600160a01b038a16178155600187905561087f908861131e565b506108aa7fa49807205ce4d355092ef5a8a18f56e8913cf4a201fbe287825b095693c217758861131e565b506108c25f80516020611c8c8339815191528861131e565b506108da5f80516020611cac8339815191528861131e565b50831561092157845460ff60401b19168555604051600181527fc7f505b2f371ae2175ee4913f4499e1f2633a7b5936321eed1cdaeb6115181d29060200160405180910390a15b5050505050505050565b5f9081525f80516020611ccc833981519152602052604090206001015490565b6109548261092b565b61095d816113bf565b610967838361131e565b50505050565b6001600160a01b03811633146109965760405163334bd91960e11b815260040160405180910390fd5b6109a082826113c9565b505050565b5f80516020611c8c8339815191526109bc816113bf565b6109c4611442565b50565b6109cf6114a1565b6109d882611545565b6109e2828261154f565b5050565b5f6109ef61160b565b505f80516020611c6c83398151915290565b5f80546040516370a0823160e01b81523060048201526001600160a01b03909116906370a0823190602401602060405180830381865afa158015610a47573d5f803e3d5ffd5b505050506040513d601f19601f82011682018060405250810190610a6b9190611bdb565b905090565b610a78611654565b610a8061169e565b335f9081526004602052604090205460ff1615610ad35760405162461bcd60e51b8152602060048201526011602482015270105b1c9958591e481c1d5c98da185cd959607a1b6044820152606401610790565b5f546001546040516323b872dd60e01b815233600482015230602482015260448101919091526001600160a01b03909116906323b872dd906064016020604051808303815f875af1158015610b2a573d5f803e3d5ffd5b505050506040513d601f19601f82011682018060405250810190610b4e9190611bf2565b610b8b5760405162461bcd60e51b815260206004820152600e60248201526d14185e5b595b9d0819985a5b195960921b6044820152606401610790565b335f908152600460209081526040808320805460ff19166001179055600590915281204290556002805491610bbf83611c25565b919050555060015460035f828254610bd79190611c3d565b90915550506001546040805191825242602083015233917f2ac4a21a8fc7d4887e29ada810b67fdc99d38edd71b34a21653694b2f8e1a41b910160405180910390a2610c4260017f9b779b17422d0df92223018b32b4d1fa46e071723d6817e2486d003becc55f0055565b565b5f80516020611c8c833981519152610c5b816113bf565b6109c46116f4565b5f80516020611c8c833981519152610c7a816113bf565b5f8211610cc95760405162461bcd60e51b815260206004820152601c60248201527f5072696365206d7573742062652067726561746572207468616e2030000000006044820152606401610790565b600180549083905560408051828152602081018590527f945c1c4e99aa89f648fbfe3df471b916f719e16d960fcec0737d4d56bd696838910160405180910390a1505050565b5f9182525f80516020611ccc833981519152602090815260408084206001600160a01b0393909316845291905290205460ff1690565b7fa49807205ce4d355092ef5a8a18f56e8913cf4a201fbe287825b095693c21775610d6f816113bf565b6001600160a01b038216610dbc5760405162461bcd60e51b8152602060048201526014602482015273496e76616c69642055534443206164647265737360601b6044820152606401610790565b505f80546001600160a01b0319166001600160a01b0392909216919091179055565b5f80516020611cac833981519152610df5816113bf565b6001600160a01b038316610e3f5760405162461bcd60e51b8152602060048201526011602482015270125b9d985b1a59081c9958da5c1a595b9d607a1b6044820152606401610790565b5f8211610e8e5760405162461bcd60e51b815260206004820152601d60248201527f416d6f756e74206d7573742062652067726561746572207468616e20300000006044820152606401610790565b5f546040516370a0823160e01b81523060048201526001600160a01b03909116906370a0823190602401602060405180830381865afa158015610ed3573d5f803e3d5ffd5b505050506040513d601f19601f82011682018060405250810190610ef79190611bdb565b821115610f3d5760405162461bcd60e51b8152602060048201526014602482015273496e73756666696369656e742062616c616e636560601b6044820152606401610790565b5f5460405163a9059cbb60e01b81526001600160a01b038581166004830152602482018590529091169063a9059cbb906044016020604051808303815f875af1158015610f8c573d5f803e3d5ffd5b505050506040513d601f19601f82011682018060405250810190610fb09190611bf2565b610fee5760405162461bcd60e51b815260206004820152600f60248201526e15da5d1a191c985dc819985a5b1959608a1b6044820152606401610790565b826001600160a01b03167feaff4b37086828766ad3268786972c0cd24259d4c87a80f9d3963a3c3d999b0d8360405161102991815260200190565b60405180910390a2505050565b6001546002546003545f80546040516370a0823160e01b815230600482015291948594859485949293919290916001600160a01b0316906370a0823190602401602060405180830381865afa158015611091573d5f803e3d5ffd5b505050506040513d601f19601f820116820180604052508101906110b59190611bdb565b935093509350935090919293565b6110cc8261092b565b6110d5816113bf565b61096783836113c9565b5f80516020611cac8339815191526110f6816113bf565b5f80546040516370a0823160e01b81523060048201526001600160a01b03909116906370a0823190602401602060405180830381865afa15801561113c573d5f803e3d5ffd5b505050506040513d601f19601f820116820180604052508101906111609190611bdb565b90505f81116111a85760405162461bcd60e51b81526020600482015260146024820152734e6f2066756e647320746f20776974686472617760601b6044820152606401610790565b6001600160a01b0383166111f25760405162461bcd60e51b8152602060048201526011602482015270125b9d985b1a59081c9958da5c1a595b9d607a1b6044820152606401610790565b5f5460405163a9059cbb60e01b81526001600160a01b038581166004830152602482018490529091169063a9059cbb906044016020604051808303815f875af1158015611241573d5f803e3d5ffd5b505050506040513d601f19601f820116820180604052508101906112659190611bf2565b6112a35760405162461bcd60e51b815260206004820152600f60248201526e15da5d1a191c985dc819985a5b1959608a1b6044820152606401610790565b826001600160a01b03167feaff4b37086828766ad3268786972c0cd24259d4c87a80f9d3963a3c3d999b0d8260405161102991815260200190565b5f807ff0c57e16840df040f15088dc2f81fe391c3923bec73e23a9662efc9c229c6a00610663565b610c4261173c565b61131661173c565b610c42611761565b5f5f80516020611ccc8339815191526113378484610d0f565b6113b6575f848152602082815260408083206001600160a01b03871684529091529020805460ff1916600117905561136c3390565b6001600160a01b0316836001600160a01b0316857f2f8788117e7eff1d82e926ec794901d17c78024a50270940304540a733656f0d60405160405180910390a46001915050610663565b5f915050610663565b6109c48133611769565b5f5f80516020611ccc8339815191526113e28484610d0f565b156113b6575f848152602082815260408083206001600160a01b0387168085529252808320805460ff1916905551339287917ff6391f5c32d9c69d2a47ea670b442974b53935d1edc7fd64eb21e047a839171b9190a46001915050610663565b61144a6117a2565b5f80516020611cec833981519152805460ff191681557f5db9ee0a495bf2e6ff9c91a7834c1ba4fdd244a5e8aa4e537bd38aeae4b073aa335b6040516001600160a01b03909116815260200160405180910390a150565b306001600160a01b037f000000000000000000000000000000000000000000000000000000000000000016148061152757507f00000000000000000000000000000000000000000000000000000000000000006001600160a01b031661151b5f80516020611c6c833981519152546001600160a01b031690565b6001600160a01b031614155b15610c425760405163703e46dd60e11b815260040160405180910390fd5b5f6109e2816113bf565b816001600160a01b03166352d1902d6040518163ffffffff1660e01b8152600401602060405180830381865afa9250505080156115a9575060408051601f3d908101601f191682019092526115a691810190611bdb565b60015b6115d157604051634c9c8ce360e01b81526001600160a01b0383166004820152602401610790565b5f80516020611c6c833981519152811461160157604051632a87526960e21b815260048101829052602401610790565b6109a083836117d1565b306001600160a01b037f00000000000000000000000000000000000000000000000000000000000000001614610c425760405163703e46dd60e11b815260040160405180910390fd5b7f9b779b17422d0df92223018b32b4d1fa46e071723d6817e2486d003becc55f0080546001190161169857604051633ee5aeb560e01b815260040160405180910390fd5b60029055565b5f80516020611cec8339815191525460ff1615610c425760405163d93c066560e01b815260040160405180910390fd5b60017f9b779b17422d0df92223018b32b4d1fa46e071723d6817e2486d003becc55f0055565b6116fc61169e565b5f80516020611cec833981519152805460ff191660011781557f62e78cea01bee320cd4e420270b5ea74000d11b0c9f74754ebdbfc544b05a25833611483565b611744611826565b610c4257604051631afcd79f60e31b815260040160405180910390fd5b6116ce61173c565b6117738282610d0f565b6109e25760405163e2517d3f60e01b81526001600160a01b038216600482015260248101839052604401610790565b5f80516020611cec8339815191525460ff16610c4257604051638dfc202b60e01b815260040160405180910390fd5b6117da8261183f565b6040516001600160a01b038316907fbc7cd75a20ee27fd9adebab32041f755214dbc6bffa90cc0225b39da2e5c2d3b905f90a280511561181e576109a082826118a2565b6109e2611914565b5f61182f6112de565b54600160401b900460ff16919050565b806001600160a01b03163b5f0361187457604051634c9c8ce360e01b81526001600160a01b0382166004820152602401610790565b5f80516020611c6c83398151915280546001600160a01b0319166001600160a01b0392909216919091179055565b60605f80846001600160a01b0316846040516118be9190611c50565b5f60405180830381855af49150503d805f81146118f6576040519150601f19603f3d011682016040523d82523d5f602084013e6118fb565b606091505b509150915061190b858383611933565b95945050505050565b3415610c425760405163b398979f60e01b815260040160405180910390fd5b6060826119485761194382611992565b61198b565b815115801561195f57506001600160a01b0384163b155b1561198857604051639996b31560e01b81526001600160a01b0385166004820152602401610790565b50805b9392505050565b8051156119a157805160208201fd5b60405163d6bda27560e01b815260040160405180910390fd5b5f602082840312156119ca575f80fd5b81356001600160e01b03198116811461198b575f80fd5b80356001600160a01b03811681146119f7575f80fd5b919050565b5f60208284031215611a0c575f80fd5b61198b826119e1565b5f805f60608486031215611a27575f80fd5b611a30846119e1565b9250611a3e602085016119e1565b9150604084013590509250925092565b5f60208284031215611a5e575f80fd5b5035919050565b5f8060408385031215611a76575f80fd5b82359150611a86602084016119e1565b90509250929050565b634e487b7160e01b5f52604160045260245ffd5b5f8060408385031215611ab4575f80fd5b611abd836119e1565b9150602083013567ffffffffffffffff80821115611ad9575f80fd5b818501915085601f830112611aec575f80fd5b813581811115611afe57611afe611a8f565b604051601f8201601f19908116603f01168101908382118183101715611b2657611b26611a8f565b81604052828152886020848701011115611b3e575f80fd5b826020860160208301375f6020848301015280955050505050509250929050565b5f5b83811015611b79578181015183820152602001611b61565b50505f910152565b602081525f8251806020840152611b9f816040850160208701611b5f565b601f01601f19169190910160400192915050565b5f8060408385031215611bc4575f80fd5b611bcd836119e1565b946020939093013593505050565b5f60208284031215611beb575f80fd5b5051919050565b5f60208284031215611c02575f80fd5b8151801515811461198b575f80fd5b634e487b7160e01b5f52601160045260245ffd5b5f60018201611c3657611c36611c11565b5060010190565b8082018082111561066357610663611c11565b5f8251611c61818460208701611b5f565b919091019291505056fe360894a13ba1a3210667c828492db98dca3e2076cc3735a920a3ca505d382bbc97667070c54ef182b0f5858b034beac1b6f3089aa2d3188bb1e8929f4fa9b92910dac8c06a04bec0b551627dad28bc00d6516b0caacd1c7b345fcdb5211334e402dd7bc7dec4dceedda775e58dd541e08a116c6c53815c0bd028192f7b626800cd5ed15c6e187e77e9aee88184c21f4f2182ab5827cb3b7e07fbedcd63f03300a26469706673582212208f44981129ebb26521ecaae48731537a9be8730faf1d436efb58583b3d526acb64736f6c63430008180033","linkReferences":{}},"methodIdentifiers":{"ADMIN_ROLE()":"75b238fc","DEFAULT_ADMIN_ROLE()":"a217fddf","OPERATOR_ROLE()":"f5b541a6","UPGRADE_INTERFACE_VERSION()":"ad3cb1cc","WITHDRAWER_ROLE()":"85f438c1","albumPrice()":"9d79b554","buyAlbum()":"73f2524b","canBuy(address)":"0808f3eb","getBuyerInfo(address)":"9d03ade9","getContractBalance()":"6f9fb98a","getRoleAdmin(bytes32)":"248a9ca3","getStats()":"c59d4847","grantRole(bytes32,address)":"2f2ff15d","hasPurchased(address)":"90118fb4","hasRole(bytes32,address)":"91d14854","initialize(address,address,uint256)":"1794bb3c","pause()":"8456cb59","paused()":"5c975abb","proxiableUUID()":"52d1902d","purchaseTimestamp(address)":"76755118","renounceRole(bytes32,address)":"36568abe","revokeRole(bytes32,address)":"d547741f","setUSDC(address)":"b3e089a2","supportsInterface(bytes4)":"01ffc9a7","totalPurchases()":"5962a941","totalRevenue()":"bf2d9e0b","unpause()":"3f4ba83a","updatePrice(uint256)":"8d6cc56d","upgradeToAndCall(address,bytes)":"4f1ef286","usdc()":"3e413bee","withdrawAll(address)":"fa09e630","withdrawFunds(address,uint256)":"c1075329"},"id":0}